:1000000055AA55AA0200000036700000000000004A
:100010002223000000000000040000000000000097
:10002000000000000000000004010000F87400005F
:10003000000800000000000000000000B40CDBED30
:100040009043F8F43D1D00006FBC070BC2E2FFFFB8
:1000500000021000E100000097630000DD010000D5
:100060002902000075020000C1020000000000002B
:100070000000000000000000000000009F6300007E
:10008000A7630000000000000D030000AF63000044
:10009000B7630000C3630000CB630000D7630000B8
:1000A000E3630000EF630000F763000003640000F7
:1000B0004F6400001B0300000F6400001764000081
:1000C0000000000027640000516400005364000039
:1000D0005F64000061640000636400003F6400002E
:1000E000476400002F64000037640000656400006E
:1000F00067640000736400001F64000000000000DB
:1001000000000000000000000000000000000000EF
:100110002223000001000140000000000000000058
:1001200000000000000000000000000000000000CF
:1001300000F002F800F058F80AA090E8000C8244A1
:100140008344AAF10107DA4501D100F04DF8AFF27E
:10015000090EBAE80F0013F0010F18BFFB1A43F0A5
:100160000103184794720000C47200000A4410F89A
:10017000014B14F00F0508BF10F8015B240908BFFC
:1001800010F8014B6D1E05D010F8013B6D1E01F8F3
:10019000013BF9D1641E03D0641E01F8015BFBD161
:1001A0009142E4D370470000103A24BF78C878C168
:1001B000FAD8520724BF30C830C144BF04680C606D
:1001C000704700000023002400250026103A28BFB5
:1001D00078C1FBD8520728BF30C148BF0B607047B9
:1001E0001FB51FBD10B510BDDFF80CD0FFF7F8FF2D
:1001F00006F0F8F906F077FD0002100003B4FFF7EF
:10020000F1FF03BC06F07AFD40BA7047C0BA7047F0
:1002100072B6784600F10A004DF8080C62B630BF9D
:1002200000BF704740BA7047C0BA704711484FF0DE
:100230000F0100F8011B4FF0010100F8011B4FF006
:10024000020100F8011B4FF0000100F8011B00F84B
:10025000011B00F8011B00F8011B00F8011B1EF038
:10026000040F0CBFEFF30880EFF309804FF0020199
:1002700004F086BF0002002011484FF00F0100F883
:10028000011B4FF0010100F8011B4FF0030100F8C2
:10029000011B4FF0000100F8011B00F8011B00F8E2
:1002A000011B00F8011B00F8011B1EF0040F0CBF1E
:1002B000EFF30880EFF309804FF0030104F060BF13
:1002C0000002002011484FF00F0100F8011B4FF011
:1002D000010100F8011B4FF0040100F8011B4FF071
:1002E000000100F8011B00F8011B00F8011B00F8D9
:1002F000011B00F8011B1EF0040F0CBFEFF3088078
:10030000EFF309804FF0040104F03ABF000200202F
:1003100011484FF00F0100F8011B4FF0010100F8E8
:10032000011B4FF0050100F8011B4FF0000100F820
:10033000011B00F8011B00F8011B00F8011B00F86D
:10034000011B1EF0040F0CBFEFF30880EFF30980D0
:100350004FF0050104F014BF0002002000B506F0C4
:100360003BF85DF804EB00F02FB81EF0040F0CBF53
:10037000EFF30880EFF309804FF0000104F000BFB5
:100380000A484FF0FF0101704FF0000080F3118820
:100390004FF0000080F3098805484FF0020101701A
:1003A00062B604484FF080510160704722ED00E0D2
:1003B0001E03100004ED00E002484FF08051016080
:1003C0007047000004ED00E04FF0200080F311883A
:1003D000EFF3098098B11248006812490968884211
:1003E00017D0EFF309800E49096820E9F00F886003
:1003F00000B50B48006806F0CAF95DF804EB084840
:1004000008490A68026000688168B1E8F00F81F36A
:1004100009884EF0040E4FF0000080F311887047F9
:100420002003100024031000EFF311804FF020018F
:1004300081F31188704700004FF0000080F31188AD
:100440007047000062B6704772B6704710B5022060
:1004500000F0E4F9032000F0E1F9042000F0DEF9F7
:10046000052000F0DBF9062000F0D8F9072000F0A5
:10047000D5F9082000F0D2F9092000F0CFF90F20BB
:1004800000F0CCF94FF00051002001F84A0F8871BC
:10049000F022CA710F224A70F84908628862086324
:1004A000886008618861C8604861C8614862C86244
:1004B00048630621022000F0C7F90621032000F05E
:1004C000C3F90621042000F0BFF90621052000F041
:1004D000BBF90621084600F0B7F90621072000F015
:1004E000B3F90621082000F0AFF90421092000F03B
:1004F000ABF906210F2000F0A7F9022000F099F9CE
:10050000032000F096F9042000F093F9052000F094
:1005100090F9062000F08DF9072000F08AF90820F4
:1005200000F087F9092000F084F9022000F06BF94F
:10053000032000F068F9042000F065F9052000F0C0
:1005400062F9062000F05FF9072000F05CF908204E
:1005500000F059F9BDE81040092000F054B94FF0FF
:100560000051C98C4FEA90100A06C44901D5C44A0B
:1005700000E0C44AB2FBF0F0086070474FF0005052
:1005800090F84A00000700D0012070477047BE492C
:1005900000200860B9498860C8607047B74AD160D8
:1005A000642148430A2190FBF1F0B0F5803F06DB5F
:1005B000A0F57F40FF3890604FF6FF7002E0002109
:1005C00080B2916000F050B9AC4910B58868B0F5C0
:1005D000803F06DBA0F57F40FF3888604FF6FF7054
:1005E00003E030B10022C0B28A60BDE8104000F0E4
:1005F0003BB9CA68FFF7CBFF12B1BDE81040104706
:100600000020FFF7C3FF10BD9F490020091D0860AF
:100610009A49086148617047984A5161642148438A
:100620000A2190FBF1F0B0F5803F06DBA0F57F409A
:10063000FF3810614FF6FF7002E0002180B21161B7
:1006400000F024B98D4910B50869B0F5803F06DB8C
:10065000A0F57F40FF3808614FF6FF7004E00028E6
:1006600006DD002280B20A61BDE8104000F00EB93C
:100670004A69FFF7C9FF12B1BDE8104010470120D9
:10068000FFF784FF10BD80490020083108607B49D6
:100690008861C8617047794910B58869B0F5803FB5
:1006A00006DBA0F57F40FF3888614FF6FF7003E05E
:1006B00030B1002280B28A61BDE8104000F0EFB88E
:1006C000CA69FFF7E0FF12B1BDE8104010470220F1
:1006D000FFF75CFF10BD6C490020103108606749CE
:1006E000086248627047654910B5086AB0F5803FF6
:1006F00006D3A0F57F40FF3808624FF6FF7003E095
:1007000030B1002280B20A62BDE8104000F0D1B8DA
:100710004A6AFFF7E0FF12B1BDE81040104704201D
:10072000FFF734FF10BD58490020143108605349C9
:100730008862C8627047514AD162116848430A21F1
:10074000B0FBF1F0B0F5803F06DBA0F57F40FF384D
:1007500090624FF6FF7002E0002180B2916200F0DB
:10076000B3B84FF00050B0F85A0044490969084442
:100770007047424910B5886AB0F5803F06D3A0F5AE
:100780007F40FF3888624FF6FF7003E030B10022EF
:1007900080B28A62BDE8104000F096B8CA6AFFF7DE
:1007A000C2FF12B1BDE8104010470520FFF7EEFE72
:1007B00010BD10B504460F2000F03BF80F2000F0EC
:1007C00022F82E4844604FF00050C18C090602D533
:1007D0004EF6602101E04AF6C87141652A490120C0
:1007E000B8310860091D086010BD10B50F2000F079
:1007F00015F84FF00050C06C204920F07F40496848
:10080000BDE81040084700F01F0201219140400957
:10081000800000F1E020C0F80011704700F01F02D6
:10082000012191404009800000F1E020C0F88011D2
:10083000704700F01F02012191404009800000F143
:10084000E020C0F8801270474907090E002806DA38
:1008500000F00F0000F1E02080F8141D704700F157
:10086000E02080F800147047074900220A604FF02A
:100870000052A2F8580001200860704700021000E2
:10088000C0270900D0DD06004009002214490022DB
:100890000A60CA06A2F85A0001200860EDE7104974
:1008A0000022091D0A608A06A2F85C000120086087
:1008B000E3E70B4900220C310A604FF00052A2F826
:1008C000600001200860D8E70549002210310A6065
:1008D0004FF00052A2F8620001200860CDE700004E
:1008E0004409002210B55B4C002020605A4800F0FB
:1008F000A9FD0120206010BD10B54FF0E0214FF0A0
:100900008060C1F88001C1F880025449A02081F8BC
:100910000004FFF7E7FF4FF00051C88CCA8C00F0CD
:100920000300120600EB400001D54D4A01E04C4A9D
:10093000303A12F8203001F8983F02EB80004278FC
:100940004A7082788A70C278CA7002790A714279D4
:100950004A7182798A71C279CA71027A0A72427ABC
:100960004A72827A8A72C07AC87210BD70B54FF02E
:10097000005400F07F00049D84F88D0084F88E10F0
:10098000A4F8942001213748002283B1C0F88011D7
:1009900094F8913023F0700384F8913094F89130FA
:1009A000702606EA05152B4384F8913001E0C0F863
:1009B000802114F8923F23F034032370C0F84422BE
:1009C000C0F84012D0F89C110129FBD170BDF0B5E0
:1009D0004FF00054DDE90765DDE905C700F07F0051
:1009E00084F88D0084F88E10A4F8942084F88F3059
:1009F000A4F896C001211B48002287B1C0F88011DD
:100A000094F8913023F0700384F8913094F8913089
:100A1000702707EA05152B4384F8913001E0C0F8F0
:100A2000802114F8923F23F034032370237843F09D
:100A30002003237016B1C0F8481201E0C0F8482224
:100A4000C0F84422C0F84012D0F89C110129FBD113
:100A5000F0BD000084140022AA8206001AE000E023
:100A60000C6D0000001000223748012101600021B8
:100A70000160704735480121016000210160704725
:100A800000B54FF0E0230122C3F8802103F5C073C5
:100A9000FFF7F0FFFFF7E8FF2C4808380260A020BE
:100AA00083F88002C3F8002143F8802C00BD274959
:100AB000083910B10020086070470120FBE7234887
:100AC00001217838016000210160704710B572B6CD
:100AD0001F490C78002104E01D4A521C525C42540C
:100AE000491CA142F8DB40F6FC0000F0ABFC62B60A
:100AF000204610BD144901201C3908607047144875
:100B000020300078124921310978401A00F03F0066
:100B100070474FF00051027881F80022427881F846
:100B20000122827881F80222C27881F803220279B8
:100B300081F80422427981F80522827981F806221F
:100B4000C07981F8070270475C8400229405002276
:100B50000004002010B50A2000F05AF80B2000F025
:100B600057F80A2000F05FF80B2000F05CF8052130
:100B70000A2000F063F805210B2000F05FF84FF029
:100B800000507F2100F8351F4170C1700021C171F4
:100B900001724172817210BD01238340D8B24FF0BF
:100BA0000053002993F8361001D0014300E081433F
:100BB00083F8361013F8381F0AB1014300E081436F
:100BC0001970704701238340D8B24FF000530029B9
:100BD00093F83C1006D0014383F83C1093F83E1084
:100BE000014305E0814383F83C1093F83E108143B4
:100BF00083F83E1013F83D1F22B101431970997814
:100C0000014303E0814319709978814399707047DB
:100C100000F01F02012191404009800000F1E02016
:100C2000C0F88011704700F01F0201219140400977
:100C3000800000F1E020C0F8801270474907090EDB
:100C4000002806DA00F00F0000F1E02080F8141D03
:100C5000704700F1E02080F8001470477047FE4BA9
:100C6000FE4A998A814203D2401AD080084601E0A8
:100C70000021D180DA68FA491047F74810B50069B9
:100C80008047F649C88810B1BDE81040E7E7896899
:100C9000002903D0BDE810400120084710BDEE48F0
:100CA00010B500698047ED4C4FF00000A16819B104
:100CB00088470020A06010BDFFF7D0FF10BDE749B6
:100CC000CA780B7952005A43E34B0878D2B29B683A
:100CD00040F48070C968184701461822DE4805F0C4
:100CE0007FBF08B501218DF80010DB4908200122E3
:100CF0004B686946984708BD38B5D84A81791323AF
:100D000011714179D170027901F0070102F01F02DF
:100D10008DF800208DF80110C078032200F01F002C
:100D20008DF80200CC48694644681846A04738BD93
:100D3000F8B50446007CC84DC0F34002014662F39A
:100D40005F01C0F3800241EA8201C0F3C00241EAC0
:100D5000C201C0F3001241EA0211C0F3401241EA9D
:100D600042118DF800108109607C272300F00102F8
:100D700041EA0211C0F3400041EA40108DF8010041
:100D8000607CC0F38001C0F3C00241EA0211C0F3ED
:100D9000001241EA4211C0F3401241EA8211800977
:100DA00041EAC0108DF802006E68032269461846B9
:100DB000B047E0792B23C0F38002014662F39F0124
:100DC000C0F3C10241EA0211C0F3401041EA8010B1
:100DD0008DF80000607CA17CC00901F0030140EAAD
:100DE00001108DF801006E68022269461846B0476E
:100DF0002D262B680122694630469847A17C9DF834
:100E00000000C1F3800108438DF800006B680122E7
:100E1000694630469847F8BD10B50446FFF761FFB4
:100E20002046FFF769FF204600F04FF92046BDE855
:100E300010407DE738B53D218DF800108649044605
:100E400012204B68012269469847A088FFF707FFE8
:100E500038BD10B5044600F07AF92046BDE81040D0
:100E6000E8E7F8B57C4C122506462368012269465E
:100E7000284698479DF80000012240F008008DF8B0
:100E80000000636869462846984748252368012280
:100E90006946284698479DF80000012220F0060088
:100EA00040EA46008DF80000636869462846984786
:100EB000236801226946284698479DF800000122D0
:100EC00040F001008DF800006368694628469847A5
:100ED000F8BD38B5604D482401222B68694620468C
:100EE00098479DF80000012220F001008DF80000D5
:100EF0006B6869462046984738BD38B5564D2A2458
:100F000001222B686946204698479DF8000001227F
:100F100020F0100040F001008DF800006B68694679
:100F20002046984738BD38B54B4D2A2401222B68FE
:100F30006946204698479DF80000012220F00100F4
:100F40008DF800006B6869462046984738BDF8B5B3
:100F5000414C4425064623680122694628469847A5
:100F60009DF80000012240F082008DF800006368C7
:100F70006946284698472D25236801226946284658
:100F800098479DF80000012220F0FC0040F08E0000
:100F90008DF8000063686946284698471425236841
:100FA00001226946284698479DF80000012220F05A
:100FB000070040F001008DF800006368694628468C
:100FC00098471525236801226946284698479DF8C9
:100FD000000006F01F0120F01F0001438DF80010F3
:100FE00063680122694628469847F8BD2DE9F84311
:100FF000194C132517468846814623680122694605
:101000002846984701269DF8000006FA08F120F0CE
:101010001F0001F01F0101438DF800106368324684
:1010200069462846984727252368012269462846AD
:1010300098479DF80000BE4020F03F0006F03F01B9
:1010400001438DF8001063680122694628469847DD
:101050002E250122694605E03003100038021000F9
:101060002B0C00002368284698479DF800000122B9
:1010700040F00C008DF800006368694628469847E8
:101080003E2023680122694698479DF8000000F041
:10109000300189F80010BDE8F883554B40F48070AA
:1010A0001B681847524B40F480705B68184701B5C5
:1010B00006209DF80010012201F01F018DF800109C
:1010C0004B494B686946984708BDFEB5494D0446F3
:1010D0000078287060786870454EA078A870312735
:1010E00033680122694638469847E07940069DF802
:1010F000000002D540F0200001E020F020008DF833
:101100000000E179090602D540F0800001E020F0FE
:1011100080008DF8000073680122694638469847C0
:1011200021893220C1F30801ADF80010E168CDF843
:10113000021029788DF8061069788DF80710A978C3
:101140008DF808107368092269469847FEBD70B58E
:1011500004460168274886B0254D8160A168C160BA
:10116000E1680161217C162001F001018DF8001079
:10117000617C8DF80110A17C8DF8021000218DF8A2
:101180000310A18A0F22C1F30C01ADF80410E18A0B
:10119000C1F30B01ADF80610218BC1F30B01ADF8C3
:1011A0000810618BC1F30B01ADF80A10A18BC1F3DC
:1011B0000B01ADF80C10A17F8DF80E106B6869461D
:1011C000984731262B68012204A9304698479DF89C
:1011D0001000E17F20F01F0001F01F0101438DF896
:1011E00010106B68012204A93046984706B070BD04
:1011F00030031000380210004FF0E0214FF480302F
:10120000C1F88001C1F880027249A02081F8000471
:10121000704730B5704C01252560E50603F03F03AB
:1012200085F86B30002304E051F8235040F8235038
:101230005B1C9342F8DB0020206030BD30B595B0D8
:101240000446302105F028FD64480068009063489A
:10125000001D0068019061480830006802905F48F6
:101260000C30006803905D481030006804905B48C3
:1012700014300068059059481830006806905748A7
:101280001C3000680790554820300068089053488B
:101290002430006809905148283000680A904F486F
:1012A0002C3000680B904D48303000680C904B4853
:1012B000343000680D904948383000680E90474837
:1012C0003C3000680F90454840300068109043481B
:1012D00044300068119041484830006812903F48FF
:1012E0003F494C306FF00205006813900098884227
:1012F0004DD1A810A06120612060A062E062E06191
:10130000206203A8029900F06FF8019981423ED152
:101310000B9845F2AA5180B2884208D10498C0B215
:10132000A061139A92B28A4200D0801DE0610C98AD
:1013300080B2884217D10398039A00F47F40D2B25A
:1013400040EA0240039AC2F307421043254A904202
:1013500003D30598C0F3012000E000202061059828
:1013600000F00F0020600D9880B2884201D10698ED
:10137000A0620E9880B2884201D10798E0620F986F
:1013800080B2884201D10898206215B030BDA561B5
:1013900025612560A562E562E5612562F5E710B586
:1013A0000446142105F078FC0C487C380068206065
:1013B0000A48803800686060084878380068A06093
:1013C000064874380068E06004487038006820619E
:1013D00010BD000010E000E0441B0022B41E040019
:1013E0005C000D6000010200F0B5074600200346D6
:1013F000184E10E057F8235003224FEAC20C45FA6A
:101400000CF484EA2064E4B2521E56F8244084EAC4
:101410000020F2D55B1C8B42ECDBF0BD70B50546BD
:1014200000200C4C0246103C09E0AB5C521C03F05F
:101430000F0604EB1313A65D1B78304418448A4250
:10144000F3DB70BD08B50090401E00900028FBDC67
:1014500008BD00004C6D00004FF00051C88C4C4A94
:1014600000F0030012687AB101280AD0022806D0E1
:10147000032802D04FF416700EE046200CE09620B0
:101480000AE04FF4967007E001280ED002280AD037
:10149000032806D04FF4E170401E21F8520F088057
:1014A00070473220F8E76E20F6E7DC20F4E748F6D4
:1014B0001971480720F82A1F0B2180F83E100021DF
:1014C0004183022280F8C0204FF008520120C2F868
:1014D000D4032F4A983A10602E48016070474FF0AD
:1014E000005141F29840C884B6E74FF0005140F2F5
:1014F0009A70C884B0E74FF00050C08CA0F5A0519E
:10150000983901D000207047012070474FF00051FA
:101510008A8C60F304028A8470471F48016841F096
:101520000401016070471C48016821F0040101605A
:1015300070474FF0005108817047174928310968FA
:101540000160154918310968416013491C31096867
:101550008160114920310968C1600F492C31096847
:1015600001610D490C39096841610B491431096861
:10157000816170474FF00050808870474FF00050F5
:10158000807970474FF000514C2081F8200070475F
:10159000DC040022EC1B002210ED00E030B41DC87A
:1015A000454981E81D00012130BC002005F020B92B
:1015B0002DE9F84F414801240068057D417D90F8F0
:1015C000EA004D4300F0030004FA00FA3A486421AF
:1015D000103005F061FB3A4804F046FD3848DFF86A
:1015E000D8800471002408F1100B36E0DFF8D090A9
:1015F000032734490026C9F80010484604F038FD96
:1016000000226B460121104605F042F9012100201D
:1016100005F01DF998F8000060B103F0E4FD7F1EAD
:10162000002F0AD0E9DC76B34FF000005946D8F815
:1016300004200FE04FF00106F5E74FF0040004F03E
:101640000CFDF0E751F8203032F910703B4441F8BE
:101650002030401CA842F5DB641C5445C6DB012E3B
:1016600011D1164900205C46174A0B6809E093F82F
:10167000EA6054F8201006F00306314122F81010F9
:10168000401CA842F3DB114901200870BDE8F88F27
:1016900010B50446002005F05CF9022005F059F968
:1016A000E00701D0FFF784FF022005F06DF9BDE8E7
:1016B0001040002005F068B948031000EC0210004B
:1016C0004C0210004D150000AE68012011031000FF
:1016D00010B5184C40F2FF112068FFF785FE216815
:1016E000C1F8FC0700213F200EF1B2FA2168BDE8E5
:1016F00010403F234FF400720F48FFF78ABD10B52A
:1017000040F2FF310D48FFF76FFE0C49C1F8FC0FA6
:1017100000213D200EF19CFA00213E200EF198FAA6
:10172000BDE810403D234FF4806204490448FFF7B0
:1017300070BD0000EC021000F0EF0300500001202B
:10174000F0CF030030B41DC84E4981E81D000121CF
:1017500030BC002005F04CB810B5002005F0F9F8B9
:10176000FFF7CBFB00F063F80446FFF7DCFB012C2E
:1017700004D13C224449A020FFF78FFC002005F053
:1017800003F9012010BD10B5FEF73EFFBDE8104083
:10179000822003F03BBD2DE9F047002005F0D9F889
:1017A00000253A4F4FF0360A6E1EA846E8B2FFF702
:1017B0007EFC0020FFF755FB3C683868A042FCD057
:1017C0003868A042FCD132496420FEF725FFFEF7BD
:1017D000C8FF81463868A042FCD03868A042FCD1DE
:1017E000FEF7BFFF0446FFF774FBFEF70DFFA9EB02
:1017F000040080B2B0EB0A0001D4014600E041428F
:10180000B14204D2002800DA40420646A8466D1CC8
:101810006DB2202DCADB1F4908F0FF0081F8A80631
:10182000FFF745FCBDE8F047002005F0ADB8FEB578
:101830000025684604F018FC174800900320114E5C
:101840008DF804000446684604F012FC002202AB46
:101850000121104605F01CF80121002004F0F7FFDB
:10186000307838B1641E03F0BEFC002C05D0EADCF1
:101870002846FEBD4FF00105FAE74FF0020004F0E4
:10188000ECFBF5E7BC031000BC060120981B00220E
:101890003717000050000120F516000030B41DC8B5
:1018A000894981E81D00012130BC002004F0A0BF5F
:1018B0002DE9F84F854864210068047D407D44434C
:1018C0008148103005F0E8F93221814805F0C2F96D
:1018D0003221804805F0BEF97D4842F21071323065
:1018E00005F0B8F9DFF8E8A10020AAF1320A47F6BE
:1018F000FF71AAF1320BCA4304E02AF810102BF84A
:101900001020401CA042F8DB734804F0ADFB724984
:10191000012000250871DFF8C09103266F49DFF828
:10192000A8810027C9F80010484604F0A1FB002256
:101930006B460121104604F0ABFF0121002004F0AA
:1019400086FF98F80000C0B103F04DFC761E002E13
:1019500016D0E9DCBFB35E48D8F8041005FB04F2EA
:1019600000F13200DFF8608100EB42034FF000002D
:1019700056465F4608F1100823E04FF00107E9E7FB
:101980004FF0040004F069FBE4E731F8102023F87D
:10199000102058F8202031F910C0624448F8202067
:1019A00031F9102037F910C0624501DD27F8102009
:1019B00031F9102036F910C0624501DA26F81020FE
:1019C000401CA042E1DB6D1CC82DA4DBDFF8F880D1
:1019D0000020C8213E4D52465B4608F110080EE03B
:1019E00033F9106032F91070F61B761025F810608C
:1019F00058F8206096FBF1F648F82060401CA042A1
:101A0000EEDB334F0020334E3237894615E000229B
:101A100058F82030114601FB040C37F91CC0BCEB10
:101A2000030C01D5CCF1000C491C6244C829F2DB3F
:101A300092FBF9F126F81010401CA042E7DB0027CA
:101A400007E036F9172035F91710F8B203F0FBFD5F
:101A50007F1CA742F5DBBDE8F88F2DE9F843002491
:101A60008DF80040204604F074FF184D2868C07CB3
:101A7000FFF76DFA2F680025A1464FF0010807F225
:101A80000B170024785D08FA04F68DF800900640E4
:101A90000DD0224629466846FFF7A8FA9DF80000B7
:101AA000202804D132462946052003F0C9FC641CD5
:101AB000E4B2062CE6D36D1CEDB2052DE1D3002077
:101AC00004F062FFBDE8F883CC031000EC021000C4
:101AD000B4100120F6370120540210004D18000008
:101AE00010B504460221002004F082FE0F48046075
:101AF00010BD08B50E48FEF75CFE00226B460221C1
:101B0000104604F0C5FE0221002004F0A0FE0948A2
:101B10005522016805480A7100684871020A8A71F5
:101B2000020CCA71FEF71BFD08BD00005C0210002C
:101B3000911A0000F002100008B50024DFF8588167
:101B4000564F4FF40049264600226B464146104648
:101B500004F09EFE0098800319D5FEF775FC5048EE
:101B600004680660FEF76EFCE00701D0FFF713FE85
:101B7000A00701D5FFF7F0FD00231A46012102203E
:101B800003F048FD4FF40031002004F060FE00989F
:101B9000000411D500256D1CEDB2FFF7DDFD012815
:101BA0006ED0032DF7D900224946082003F048FCE7
:101BB0004946002004F04BFE0098000510D5394836
:101BC000046806602046FFF763FD4FF400610020C3
:101BD00004F03DFE0023E1B21A46062003F01AFD90
:101BE0000098C0040CD5FFF784FF0023012219469A
:101BF000022003F00FFD4FF48051002004F027FE77
:101C00000098800406D5FFF763FD4FF400510020D3
:101C100004F01DFE0098400406D5FFF770FD4FF458
:101C20008041002004F013FE0098400311D538686D
:101C300090F80A01C0070CD0FFF70FFF4FF4802186
:101C4000002004F004FE00231A4619460C2003F07D
:101C5000E1FC009800037FF577AF386890F80A013F
:101C60008007F8D5FFF724FE4FF40021002004F090
:101C7000EEFD00231A4619460E2003F0CBFC63E765
:101C80000120FFF705FDE1B20023C4F3072208207D
:101C900003F0C0FC8CE7000003F80F00EC0210001A
:101CA000080310000403100010B58143C80711D0C9
:101CB0005648016841F0010101604FF400610020C5
:101CC00004F096FD01220023BDE8104011460520D6
:101CD00003F0A0BC10BD10B5FEF725FD0121BDE845
:101CE0001040084604F084BD4949012804D0022868
:101CF00001D10320087070470220FBE738B50020AF
:101D000004F027FE4348006810B1FFF7EDFF01E043
:101D100000F0ECF83E4840490078022813D0032830
:101D20000ED0042812D001240025FEF7E8FE00B1F1
:101D300001256946032004F09AFD009858B909E08E
:101D40000868847AF0E70868447AEDE70868B0F834
:101D50000B40E9E715B1142C00D2142420462F497A
:101D6000FEF7E9FC03242E4D00F050F9012807D1BD
:101D7000287858B1641E03F036FA002C0DD0F3DC3D
:101D8000BDE838404FF0000004F0FEBD2548016872
:101D90002548006800F04EF8F2E7032004F05DF9F2
:101DA000EEE770B52148046821490D680C6095EA9A
:101DB000040F20D0164E2DB16CB121462846BDE847
:101DC000704071E70220307021462846FFF76CFF13
:101DD000BDE8704092E7FEF7A6FC0121084604F03A
:101DE00036FD0120307021462846FFF75DFFBDE833
:101DF000704000F021B870BD10B5FEF794FC0121D1
:101E0000084604F024FDBDE8104077E70403100005
:101E100068021000FC021000EC021000871C000099
:101E2000400410007402100070021000F402100050
:101E30006C02100000F014B810B5032004F089FD06
:101E40004821244804F028FF22490120087003207B
:101E500004F09AFD0121BDE81040022004F0C8BC46
:101E60002DE9F0410F46054640EA0706002403200D
:101E700004F06FFD174A184B958117619868506000
:101E8000164800781070F0070CD015480168087DDE
:101E9000497D4843906042000E485968163004F06E
:101EA0005AFE0124032004F06FFD002C0FD00D48D2
:101EB0000078012809D00C480078012805D00121BC
:101EC000BDE8F041022004F093BC0221F8E7BDE830
:101ED000F08100002405100040041000680210008A
:101EE000EC0210000C0310000D03100070B502F09E
:101EF000B4FC00255D4C5E4B01280AD05D48267875
:101F000003210068022E427B06D1007AC60706D163
:101F100003E0022020701D6070BD8007FCD51868AA
:101F2000401C18609042F7DD1D60217070BD30B418
:101F30001DC8514981E81D00082130BC012004F072
:101F400057BC2DE9F0414B480025006890F83A1045
:101F5000C90758D04949464E2F460978C9074DD080
:101F6000DFF808810125002498F80010444A02296E
:101F700004D0032917D0042926D111E090F8AB1022
:101F800092F90030994205DB90F9A31092F90020F4
:101F9000914202DD90F83D4016E090F83C4013E09D
:101FA00090F8404010E090F8AB1092F90030994260
:101FB00005DB90F9A31092F90020914202DD90F820
:101FC0003F4001E090F83E4002F047FC012804D079
:101FD0002C480078012807D00AE098F8000004286F
:101FE00006D00025776006E098F80000022807D0A8
:101FF0007068401C70607068A04203DD776002E08A
:102000007760F8E700252846BDE8F0812DE9FE431A
:1020100001251A4E1C4FDFF874806846002404F036
:1020200023F8FFF78EFF3178C90700D0012440EA7A
:102030000401C90701D08DF8045038601448C8F86D
:1020400000400090684604F013F8012802D00020F8
:10205000BDE8FE8302AB00220821012004F018FC39
:102060000821012004F0F3FB0120F1E768021000D1
:1020700060021000EC021000400410006C0210001E
:10208000000310000C031000740210007002100016
:10209000DF1E0000164808B50021012241600270D1
:1020A0008160C160491E104604F0D1FB6B460022DE
:1020B0001721012004F0ECFB0098800705D5FFF7FD
:1020C00070FE0221012004F0C2FB0098C00705D079
:1020D0000121084604F0BBFBFFF710FE0098C00684
:1020E000E4D51021012004F0B2FBFFF785FEDDE707
:1020F00068021000084C00202060401C206003F0A3
:10210000BDFBFEF73BFA08B9FFF707FAFEF780F8C8
:1021100004F062F92068F0E77802100032216F487D
:1021200004F098BD2DE9FF4FDFF8B491064683B067
:10213000D9F8000093466B4A90F83B10002701F055
:102140000F05012102911278B0F94340B0F9471010
:102150006FF01308C5F1100A4FF0010C012A33D1BA
:1021600090F83A2092062FD5B0F94940B0F94B10BB
:10217000012B02D0022B13D05DE030F8491FCDE9CE
:102180000017838828223C21584603F08FFB04B2B5
:10219000D9F8000030F84B1FCDE9001783882CE0F8
:1021A00030F8491FCDE9001C83886746424600216C
:1021B000584603F07BFB04B2D9F8000030F84B2FEF
:1021C000CDE90027838830E0012B02D0022B17D005
:1021D00031E0B0F84310CDE90017B0F841302822C3
:1021E0003C21584603F062FB04B2D9F80000B0F875
:1021F0004710CDE90017B0F8453028223C2116E001
:10220000B0F84310CDE9001CB0F8413067464246B3
:102210000021584603F04AFB04B2D9F80000B0F898
:102220004710CDE90017B0F8453042460021584626
:1022300003F03CFB01B22C48DFF8A0B000688646F2
:1022400020E0D9F8002036F910C03BF9107092F860
:102250003A305FEA436804D592F83B20B0EB121F96
:1022600010D0204A1278012A05D19A0603D5049A83
:1022700032F9102002E0ACEB070212B2A24215DCE8
:10228000CA4213D4401EDCD2029800280ED07046F9
:102290005B4609E033F9102036F910106A4301FB60
:1022A0000A21091123F81010401EF3D207B0BDE82F
:1022B000F08F2DE9F0411C46069F15460E46C007DB
:1022C0000AD002F0CAFA002806D13B462246294627
:1022D0003046BDE8F04125E7BDE8F081AE68012059
:1022E000EC02100060680120A40210007848002170
:1022F000417041607047774A10B51268014652003C
:10230000754804F028FC75490120087010BD10B50F
:10231000002402F0A2FA00236D4A012817D053606E
:102320006F484FF47A710068407AB1FBF0F101EB2D
:1023300041005168B1EB800F07D95360012400239D
:1023400011222146052003F065F9204610BD506892
:10235000401C5060E4E72DE9F04700255C4E012069
:102360002F4606F1010A012B03D05D4C002324689F
:102370000EE0377038468AF80070BDE8F08731F912
:1023800013C0B4F8EF80C44501DD002002E05B1CFF
:102390009342F4D3317851EA000302D0012903D0EB
:1023A0002EE0012030702BE050B34E4864214FF0F6
:1023B00001090378D04603F16300B0FBF1FC01FB97
:1023C0001C014948534300EB430C514300EB4103CC
:1023D0009AF80010481CC0B209B388F8000094F8BD
:1023E000F21088420CD98AF80070377094F8E9002E
:1023F000012500F0010310222946052003F00AF907
:102400002846BAE73CF9116033F91170F61B00D584
:10241000764294F8F170BE42F2DC491CC9B2914296
:10242000F0D3B9F1000FEBD08AF80000E8E72DE90E
:10243000F0410746DDE907651C46022004F089FAF1
:102440002748006890F8E800400706D52B4632463A
:1024500021463846FFF77FFF03E01D490020491C55
:102460000870FFF754FF0446022004F08DFA20465E
:10247000BDE8F08170B506460C78002008701B4856
:10248000174D01210170286890F8E900C00709D0B4
:10249000022004F05EFA3046FFF72DFF022004F020
:1024A00073FA09E01248016841F0010101604FF43C
:1024B0000061002004F09CF928682246012190F870
:1024C000E900BDE8704000F00103052003F0A2B868
:1024D0007C021000A4021000AE680120110310005D
:1024E000EC021000870210002838012012031000AF
:1024F0000403100010B501463222544804F02BFBAF
:102500005348322201685148323004F024FB5148CC
:10251000322201684D48643004F01DFB4E483222DF
:1025200001684A48BDE81040963004F014BB10B56D
:102530004A494B4C01200870206841004948006816
:1025400004F088FB206841004348006804F082FBE7
:102550004FF496713D4804F07DFBBDE8104000F05B
:102560000DBAF0B54048414B414C016801F161069C
:10257000B51D0020186058601881206060602081BF
:1025800008E036F8102023F810202F5CD21B24F826
:102590001020401C0A7D8242F3DC36480078002877
:1025A0000AD035480078002806D1344A31F86A0F3D
:1025B0001080887832490880F0BD014600208A07E3
:1025C00000D0012011F00C0F01D040F0020011F0FA
:1025D000300F01D040F004007047F8B5064622489D
:1025E00000240094006815460F4690F85A00000732
:1025F00004D51B480168304600F07DF82A4639466C
:10260000304600F0C8FC03461E480068FFF7D5FFBF
:102610000090042B14D0032B08D0022B06D0012BE2
:102620002A46694630460DD000F022FA1648007856
:10263000042803D030460099FFF75CFF2046F8BD20
:102640000120F8BD00F054FAF0E7704700EC0120DB
:10265000C0021000BC021000B802100011031000EC
:10266000A4021000B4021000EC021000AA04100032
:10267000B4041000606801200F0310001A4C012000
:102680001C4C0120505D0120680210002DE9F04132
:10269000B149DFF8C8E24FF0640C0C68217D627D1F
:1026A00094F8705051430022CBB2713402FB03F115
:1026B0000EEB4106002104E030F8117026F811708D
:1026C000491C9942F8DB521C6245EFDB0F21A448FC
:1026D00004F0C0FA3221A34804F0BCFA0020A0495B
:1026E00002E0225C0A54401CA842FADB9E4900200A
:1026F0004870BDE8F0810B4630B49B4904464878E9
:10270000401CC0B24870642801D9002048705A00AB
:10271000C0B29249584301EB4000214630BC04F05E
:102720001ABAF0B590486421914E4078ABB064304D
:10273000B0FBF1F201FB1201306800254200484372
:1027400086498A4C01EB400110A804F004FA0220EB
:1027500004F0FFF88749308891F9001000B2814AEF
:10276000CDE90021029003AA10AB1DA9104600F08C
:10277000CFFB022004F008F9002103AA33680BE024
:1027800032F91100071E00DA7842A04203DD38005A
:1027900000D5784204B2491C9942F1D36E4F386893
:1027A00090F88200A0421ADB022004F0D2F83068D0
:1027B0006C494200704804F0CEF93221694804F0B7
:1027C00049FA022004F0E0F838680125302290F838
:1027D000E900294600F00103052002F01BFF2BB0A1
:1027E0002846F0BD2DE9F34FADB0DFF86C91002025
:1027F0002B90D9F800008B46002590F87040FFF729
:1028000090FF01287ED0DFF860A1A846584F99E0DC
:102810005348CDF8A880015D9AF80100401A642160
:10282000643090FBF1F201FB1200C6B2342103A820
:1028300004F032FA34211DA804F02EFA3868474912
:102840004200704301EB400110A804F084F902201B
:1028500004F07FF84749388891F9001000B210AAB7
:102860000092CDE9011003AA1DA910462D9B00F08E
:102870004FFB022004F088F83C49002003AB3E687F
:1028800005E033F910208A4200DD1146401CB042B9
:10289000F7D3D9F80000B0F86D00884252DC00236D
:1028A0001A46194603A8CDF800B000F06DFAFFF7FC
:1028B00084FE2A9040B101232AAA002103A8CDF862
:1028C000008001F07AFC00B1DDB3D9F80010264891
:1028D000002491F86F2001784D46491CC9B201705F
:1028E000914202D980F8008001249AF80000012862
:1028F00006D1386810A942001A48323004F02BF98A
:1029000004B100E024E0022004F023F838681A49FA
:102910004200144804F01FF938681249420032316D
:10292000154804F018F9022004F02EF82868202237
:10293000012190F8E90000F00103052002F06AFE91
:1029400006E0FFE7641EBFF463AF0DB98AF80080AC
:102950002B982FB0BDE8F08FEC0210002838012032
:1029600050041000B04B0120860210000080FFFFD1
:10297000A402100000031000AE680120DE48002110
:1029800041608160C16041708170C1701921DB4874
:1029900004F060B9D849024600204978022900D0E5
:1029A0001046704710B500231A4688B131B103298B
:1029B0000ED0032805D0042905D009E0042807D04B
:1029C00005E0022204E0052801D0062800D10122FA
:1029D000C9494A7040B13AB10346022A04D1C848F5
:1029E000006890F804010870184610BDC249487884
:1029F000022803D1087810B1401E08707047C04902
:102A00000320096891F80011890703F0B1B92DE995
:102A1000F043DFF8E4820446B94BD8E9020184EAC6
:102A2000010C00214FF00109B44F1E6814E009FAAF
:102A300001F313EA0C0F09D0234204D096F85B503F
:102A400005F00F0501E096F85E507D547D564DB1BE
:102A50006D1E7D54491C09B29142E8DBC8F80C4058
:102A6000BDE8F083234201D01843F3E79843F1E730
:102A70002DE9F04116460246A1480D68006890F81D
:102A80005A00000703D531461046FFF7ABFE9A4CBB
:102A9000032228466168FFF7BAFFA1680025884233
:102AA0001ED0A0602179C0B2FFF77CFF0746207AD4
:102AB000FFF770FF9349A06091F9001002F0DAFD72
:102AC000207A03F0F1F8384603F052F98E48017885
:102AD00031B1217A890703D48C490570012008702F
:102AE0008B48A570E5700670A0686060BDE8F08155
:102AF0002DE9F84F074608689146009040B3804E94
:102B0000DFF808A27C4D30684FF001084FF0000458
:102B100090F85A00810703D4410701D4800605D5F7
:102B20001146684601F037FD012816D03068794F0C
:102B300090F8560000074DD5774804210470684688
:102B4000FEF76CFCC0B2012844D9686878B141E056
:102B50003846FFF78DFFBDE8F88F306890F85A00CF
:102B6000000703D549463846FFF73CFE8BE038683E
:102B7000B0F90020B0F902108A4200DC0A46B0F930
:102B80000410B0F90630994200DC1946B0F908305B
:102B9000B0F90AC0634500DC63460098DFF87CC1E9
:102BA000032804D0052809D006280CD012E0BCF870
:102BB000000082420DDB81420BDB0BE0BCF8000021
:102BC000824206DB03E0BCF80000814201DB834265
:102BD00000DA0094326892F85A00C00653D59AF889
:102BE000000010B30098062808D0052806D0032856
:102BF00008D0012823D046E0009444E0686800280B
:102C0000FAD040E0686880B938686423B0F90A10E7
:102C1000B0F90800594391FBF0F0B2F8E01000B2AF
:102C2000814203DA009485F802802CE0AB78012B16
:102C300029D192F8E220891A8142DDDB23E068681D
:102C400008BB3968B1F90230B1F90000834217DDE1
:102C5000B1F90A1064277B43002900DA494293FB4B
:102C6000F1F792F8E3108F420ADB002800DA4042C5
:102C700093FBF0F0884203DB009485F80380BBE708
:102C8000E8780128B8D0032269680098FFF7BFFEF2
:102C9000A968884228D0A8602979C0B2FFF782FECF
:102CA0000746287AFFF776FE1649A86091F90010CA
:102CB00002F0E0FC306890F800018007287A05D522
:102CC00002F0AEFF384603F040F804E002F0ECFFFB
:102CD000384603F04DF80C48017829B1297A890764
:102CE00002D404708AF80080FFF780FE084981F85A
:102CF0000090A86868602EE7880210005F0410004A
:102D0000EC02100000031000190310001003100063
:102D100085021000B8021000860210001A4C012033
:102D20002DE9F04715460A46DDF8288007461C467F
:102D3000002641461046DDF8309000F0BCFE024609
:102D4000F648006890F85A00C00705D0B8F1010FA6
:102D500002D1B9F1000F10D037F9151037F914006E
:102D6000814200DD0846904204DD012606FA05F0A6
:102D7000A64006433046BDE8F08737F8150037F81F
:102D80001410084400B2EEE72DE9F04786B0824601
:102D90000E460020DDF838900096CDE903901546E8
:102DA0001C46CDE901540246014601235046FFF777
:102DB000B7FF0096CDE901540746CDE903970323F9
:102DC000022201215046FFF7ABFF0096CDE90154E6
:102DD00040EA0708CDE90398052304220221504662
:102DE000FFF79EFF40EA0800C0B206B0C3E72DE936
:102DF000FF4F9146864600250D9F46E005FB07F0F4
:102E00000199012247F6FF7C01EB40066FEA0C04B2
:102E10000EEB400B13460021C9F1000A16E036F90B
:102E2000110048450FDA50450DDD844500DD84462C
:102E3000844200DA0446002802DA4FF0000202E081
:102E400001DD4FF0000301F1010189B2B942E6D37F
:102E500052EA030009D012B1012A04D004E0012B88
:102E600002D1204601E023B1002041000BD0002117
:102E700007E06046F9E736F81120121A2BF8112006
:102E8000491CB942F7DB6D1CADB203988542B5D33E
:102E9000BDE8FF8F2DE9F04F00259B469AB0531EE9
:102EA000DFB22C462B460DF1340AE94611E031F928
:102EB000136035445E1CB44695FBF6F629F81360A2
:102EC000FE1A5B1C31F91680444494FBFCFC2AF882
:102ED00016C09342EBDBBBF1010F01D1921ED2B2BF
:102EE0004C4655460FE034F9123035F91260334440
:102EF00003EBD3735B101BB2002B04DD31F81260BF
:102F0000F31A20F81230521EEDD21AB0BDE8F08F3D
:102F10002DE9F84F91461E46DDE90A250C9C8A46AC
:102F2000834623463146484602F0AEFD7B4E7C4F39
:102F3000DFF8F081306890F89A00C0070AD038783E
:102F4000012807D198F8000020B1A2B229464846CE
:102F500002F008FD65002A464946504603F0FBFD95
:102F6000306890F8560000070ED5387801280BD14C
:102F700098F8000040B16C48009449460268084641
:102F8000938E243202F0E0FB2A4649465846BDE8BB
:102F9000F84F03F0E0BD2DE9F74F6448002484B0FA
:102FA00005788A460470914626463221604803F02F
:102FB00051FE6048604F06605848604E006890F8C7
:102FC0005610C9070AD0009590F85700049900F0F0
:102FD0000F03308802B2386802F065FD022003F06A
:102FE000B8FCDFF85CB13088DFF85C81DBF80020EA
:102FF00000B20092CDE901A03B68524F4C4AD8F88C
:1030000000003968FFF784FF022003F0BDFC4F4841
:103010000078012808D13088D8F8002003B2DBF806
:103020000010049802F056F8DFF8F0B0DBF800006A
:1030300090F85610490709D590F85A00000705D4B2
:10304000327801233A483968FFF724FFDBF80000A3
:1030500090F85610890708D5417D00913449037DC9
:1030600090F858200846FFF7C2FE30683049420009
:10307000386803F070FD3168CDF800A0CDE9011586
:103080004546D8F8003032493A680498FFF7CFF93E
:10309000012818D0DBF8000090F85600000703D58F
:1030A0001F480078012810D00022CDF8009001239D
:1030B00011463868FFF768FE10B11E490124086008
:1030C000204607B022E70424FAE70023CDF8009059
:1030D0001A4619462868EDE7B0F900300A681A4424
:1030E0000A60B0F902304A681A444A60B0F9043004
:1030F0008A681A448A60B0F90630CA681A44CA60FD
:10310000B0F908300A691A440A61B0F90A004A693C
:1031100010444861088B401C08837047EC02100083
:103120006068012010031000F0021000110310006D
:1031300078041000505D0120BC021000A4021000B1
:10314000C0021000B4021000B80210000E031000FC
:10315000AE68012030B5002499B02346012A10D072
:103160004868009008680190C868029088680390D9
:103170004869049008690590FB486A46006805465E
:1031800018E0B0F902100091B0F900100191B0F907
:1031900006100291B0F904100391B0F90A100491DD
:1031A000B0F90800E7E752F82010002902DD01FB22
:1031B00000440B44401EF6D24FF47A7044436D1E17
:1031C0006B43B4FBF3F019B000B230BDE74B99B0DC
:1031D000012A0FD04868009008680190C8680290E2
:1031E000886803904869049008690590DE486A463B
:1031F000006816E0B0F902100091B0F900100191DA
:10320000B0F906100291B0F904100391B0F90A1058
:103210000491B0F90800E8E752F82010994200DD67
:103220000BB2401EF8D2184619B0704770B50E4662
:1032300015460446012200213046FFF78BFF0A2184
:1032400090FBF1F040B2652832D2112C10D0122C34
:103250000ED0132C0CD0212C13D0222C11D0232CC7
:103260000FD0312C15D0322C13D0332C11D018E0C4
:10327000C0EBC00105EB8102518B41F0010151838C
:103280000FE0C0EBC00105EB81014A8B42F0020266
:1032900006E0C0EBC00105EB81014A8B42F004025D
:1032A0004A83C0EBC00005EB80013046FFF714FFF6
:1032B000122C03D0222C01D0322C04D13046BDE890
:1032C0007040AB4908E770BDA94AB2F9181000294F
:1032D0000FDDA2F11C0314280CD0242813D03428AD
:1032E00007D1106990FBF1F01861506990FBF1F083
:1032F00058617047106890FBF1F01860506890FBBF
:10330000F1F058607047906890FBF1F09860D068D9
:1033100090FBF1F0D86070472DE9F04F9449642399
:103320001C3996200A68934E5A4392FBF0F21FFA1A
:1033300082FB4A685A4392FBF0F21FFA82FA8A68CB
:103340005A4392FBF0F21FFA82F9CA685A4392FB81
:10335000F0F21FFA82F80A6949695A4392FBF0F2C7
:10336000594391FBF0F01FFA82FC87B2652238E0E6
:10337000C2EBC20306EB8300B0F91810002930DD60
:1033800056F8234064256C4301FB0BF594FBF5F4E0
:1033900046F8234043686424634301FB0AF493FB2B
:1033A000F4F3436083686424634301FB09F493FBF3
:1033B000F4F38360C3686424634301FB08F493FB64
:1033C000F4F3C36003696424634301FB0CF493FBCF
:1033D000F4F30361436964246343794393FBF1F19C
:1033E0004161521EC4D291E52DE9F0416527DFF815
:1033F00084815CE0C7EBC70C08EB8C04B4F91810AF
:10340000002954DD002221461046FFF7A3FE0A21C1
:1034100090FBF1F045B2002221461046FFF7D6FEA0
:103420000646002221461046FFF794FE504982319D
:1034300021F815006639A07E485558F82C004FF445
:103440007A71484390FBF6F04B4921F8150060680B
:103450004FF47A71484390FBF6F04749CA3121F89E
:103460001500A0684FF47A71484390FBF6F0434989
:1034700021F81500E0684FF47A71484390FBF6F0AC
:103480003E49CA3121F8150020694FF47A7148434A
:1034900090FBF6F03A4921F8150060694FF47A7113
:1034A000484390FBF6F03649CA3121F815007F1EDB
:1034B000A0D2BDE8F0812DE9F0472D4F2E4B1C37EF
:1034C00007F166022D4DDFF8B89002F5CA7402F5D7
:1034D0004A7602F2BC4A012854D0002842D191F920
:1034E000000064283EDAA2F1650C10F80C80B8F1F7
:1034F000000F37D13F5C00F80C7091F9000032F8F2
:10350000107002EB40007F1C478091F9000033F8F7
:10351000102003EB4000428091F9000034F81020A5
:1035200004EB4000428091F9000035F8102005EBD3
:103530004000428091F9000036F8102006EB400070
:10354000428091F9000039F8103009EB40004380C7
:1035500091F900003AF810300AEB400043800878F7
:10356000401C087007E40000A40210000080FFFF68
:1035700048570120204C012094580120285A01204E
:10358000BC5B012091F900000028EBDDDFF884C46A
:1035900010F80C80B8F1000FE4D13F5C00F80C701B
:1035A00091F9000032F8107002EB40007F1E20F805
:1035B000027C91F9000033F8102003EB400020F862
:1035C000022C91F9000034F8102004EB400020F8A0
:1035D000022C91F9000035F8102005EB400020F88E
:1035E000022C91F9000036F8102006EB400020F87C
:1035F000022C91F9000039F8103009EB400020F856
:10360000023C91F900003AF810300AEB400020F833
:10361000023C0878401EA4E72DE9FF5FFE480068E1
:1036200000F1810100F17A0CCDE902C14B1FCA1EE5
:1036300000F17B0C6531CDE9001CDFF8E0C300F13F
:103640007D0E00F17F0BDCF800C000F5D87A00F2A7
:103650007A299CF820C100F5517700F20E4600F55A
:103660009B6500F2A254A0F834C0ED48DDF808C014
:10367000C23990F800808CF80080DDF804C090F822
:1036800001808CF8008090F802C083F800C0C378F5
:103690008EF800300379137040798BF80000DD4814
:1036A000373802880A8082884A8002898A80828923
:1036B000CA80028A0A81808A4881D6496522491CCB
:1036C000039803F048FAD349CA226731009803F0FF
:1036D00042FACA22D349504603F03DFAD149CA22E0
:1036E000CA31484603F037FACA22CF49384603F0B8
:1036F00032FACD49CA22CA31304603F02CFACA2226
:10370000CA49284603F027FA04B02046BDE8F05F16
:10371000C649CA22CA3103F01EBA70B5C04D7F2017
:10372000002468702870E870A8706871287105F529
:103730003566305D01280AD128787F2806D160B22D
:10374000287018B1B6490120FFF7B5FE6C70305DE6
:1037500002280BD1A8787F2807D160B2A87020B1C9
:10376000AF490120891CFFF7A6FEEC70305D0428EC
:103770000BD128797F2807D160B2287120B1A849E0
:103780000120091DFFF797FE6C71641C652CD0DBCE
:10379000A3490020491CFFF78EFEA1490020C91C47
:1037A000FFF789FE9E490020491DFFF784FE95F929
:1037B00000100020884203DD95F9012090420FDBC4
:1037C00095F90220904203DD95F90320904207DB32
:1037D00095F9042090423BDD95F90520904237DAB7
:1037E000325CAABB321812F8012C3254894A673273
:1037F00002EB400333F8023C22F81030CA3202EBED
:10380000400333F8023C22F81030CA3202EB400386
:1038100033F8023C22F81030CA3202EB400333F88E
:10382000023C22F81030CA3202EB400333F8023C6B
:1038300022F81030CA3202EB400333F8023C22F87F
:103840001030CA3202EB400333F8023C22F8103049
:10385000401C6528AEDB70BD6E4810B56521401C6C
:1038600003F01AFACA216F4803F0F4F96D48CA212F
:10387000CA3003F0EFF9CA216B4803F0EBF96A484C
:10388000CA21CA3003F0E6F9CA21684803F0E2F918
:103890006648CA21CA3003F0DDF95E4A652047F662
:1038A000FF71673201E022F81010401EFBD25C4825
:1038B00040F60C310C3003F0EFF956481C211B3850
:1038C00003F0EAF953481C21BDE81040373803F0F3
:1038D000E3B970B5564C014600252078012844D044
:1038E000112845D0122843D0132841D021283FD099
:1038F00022283DD023283BD0312839D0322837D058
:10390000332835D0142838D0342836D0242834D061
:10391000002829D1FFF700FDFFF766FDFFF7FDFE48
:10392000FFF77AFE00231A46ED219A2001F072FE7D
:1039300040480570207811280FD012280DD0132888
:103940000BD0212809D0222807D0232805D03128E0
:1039500003D0322801D0332806D16088401C80B2C1
:1039600060800A2800D3658070BDFFF775FFE1E72E
:103970002B4A0C32FFF75AFCDCE7FFF7A5FC254881
:103980001C211B3803F088F9D4E7F8B52A49234FE6
:1039900000250B780D703A68284E294C92F8561085
:1039A000C9070AD0009392F8571001F00F0321883D
:1039B0000AB20146306802F076F8022002F0C9FF30
:1039C0002088316803B21F481F4E0268306802F039
:1039D0005BF8022002F0D8FF1C480078012804D0D0
:1039E00014480078012862D042E03868184E90F8F8
:1039F0005600400705D52278012316483168FFF7A5
:103A000049FA386890F8561089072BD5417D009106
:103A1000037D21E063570120F0021000EC0210004A
:103A2000144C012094580120285A0120BC5B01202D
:103A3000980210000C03100011031000BC021000CB
:103A4000A4021000C0021000B80210000D03100004
:103A5000B402100078041000284990F85820084655
:103A6000FFF7C5F9206825494200306803F073F874
:103A700000220095012311463068FFF785F9FEF713
:103A80009CFD1F4D03222968FEF7C1FF1D4C2168D4
:103A9000884209D01C492060C0B291F9001001F0A1
:103AA000E9FD207802F000F920682860F8BD306850
:103AB000BDE8F8400DE710B5114C0346012224681B
:103AC0009A4000202240012905D0104C247814B1DE
:103AD0000F4C247824B96AB108483C3030F8130000
:103AE000002906D10B49002AC88802D00989401A4A
:103AF00080B210BD01483230F0E7000078041000B9
:103B00008C02100090021000000310006068012079
:103B100010031000144C01202DE9FF4FFF4893B013
:103B200091460068209E00F5D8711291CA3111911A
:103B3000CA311091CA310F91CA3100F1810700F2E8
:103B4000A25B0E91012200214846FFF73FFB05468C
:103B50001398002101700846F5E01298F04B30F9F7
:103B600016104FF47A70694391FBF0F1ADF8041030
:103B7000119931F91610694391FBF0F1ADF8061077
:103B8000109931F91610694391FBF0F1ADF8081066
:103B90000F9931F91610694391FBF0F1ADF80A1055
:103BA0000E9931F91610694391FBF0F1ADF80C1044
:103BB0003BF91610694391FBF0F0ADF80E000020C0
:103BC0001A6809E001A939F8104031F810C0A4EBD7
:103BD0000C0421F81040401C9042F3D30122002134
:103BE00001A8FFF7B7FA0A2190FBF1F044B20421D3
:103BF0001698FDF713FC012851DDCA48006890F8BB
:103C00005600000703D5C848007801280DD0219838
:103C1000012300900022114601A8FFF7B5F8FEF736
:103C2000CCFC8446385D20B130E021980023009020
:103C3000F0E716980078400728D5B85D804604283C
:103C400024D0B84B214608461B68002293F885E033
:103C50001AE0491C401E49B240B2642900DB6421CD
:103C6000002800DC00207B5C2BB1634503D1984524
:103C700001D00C460AE03B5C2BB1634503D198456B
:103C800001D0044602E0521C9645E2DC169A385DEB
:103C9000B95D12680143914201D104283ED0385DDC
:103CA000D8B30122002101A8FFF790FA129901ABC5
:103CB00031F914204FF47A71424392FBF1F2ADF8DE
:103CC0000420119A32F91420424392FBF1F2ADF82C
:103CD0000620109A32F91420424392FBF1F2ADF81B
:103CE00008200F9A32F91420424392FBF1F2ADF80A
:103CF0000A200E9A32F91420424392FBF1F2ADF8F9
:103D00000C203BF91420424392FBF1F0844AADF8B9
:103D10000E008649002014680EE01EE0C1B2139820
:103D200001701AE039F9102033F910C0A2EB0C022F
:103D30008A4200DD11B2401CA042F3D3A9420CDD3F
:103D40000D460AF10100DFF8DC818246D8F8000058
:103D500090F8841051453FF700AF129801AA704CBB
:103D600030F916104FF47A70694391FBF0F1ADF819
:103D70000410119931F91610694391FBF0F1ADF877
:103D80000610109931F91610694391FBF0F1ADF866
:103D900008100F9931F91610694391FBF0F1ADF855
:103DA0000A100E9931F91610694391FBF0F1ADF844
:103DB0000C103BF91610694391FBF0F0ADF80E00C2
:103DC000002008E039F8101032F81030CB1A14999E
:103DD00021F81030401C21688842F3D317B0BDE8A9
:103DE000F08F2DE9F04115460E46002407460122CA
:103DF0002146FFF7EBF94A49024600200B6813E021
:103E000037F910104FF47A7C01FB0CF191FBF2F1C1
:103E100036F910C009B28C4503DB35F910C08C456A
:103E200001DD012402E0401C9842E9D32046BDE8B0
:103E3000F0812DE9FF4F394A82B01268DDE90F4663
:103E400002F5D877019702F1E60502F27A2902F528
:103E5000517A02F20E4B02F59B6E02F2A2578132AA
:103E6000009712F804C02F4ADDF848801768B8F1AF
:103E7000010F7CD0139A012A7AD0BCF1040F78D0BC
:103E8000B7F98620DDF81080D8F8008018EA0C0F0A
:103E900008D0DDF84CC0BCF1010F6BD0B7F88A70C8
:103EA0003A4412B21D4FDDF844C03F68BCF1010F27
:103EB00007F5D87737F914707ED0DDF804C03CF9E7
:103EC00016C0CDF804C0A7EB0C0C35F91670A3EBA7
:103ED00007080CFB08FC35F91480A8EB07079CFBCE
:103EE000F7F7DDF804C0674407EB020CA0F800C048
:103EF000BF1A0F8039F914C039F91670019735F9D6
:103F00001690ACEB070CA3EB090735F914800CFBFA
:103F100007FCA8EB09079CFBF7FC09E0F002100086
:103F2000A4021000EC021000606801200080FFFF76
:103F3000019F674407EB020CA0F802C0BF1A4F8034
:103F40003AF914C03AF9169035F91670ACEB090C31
:103F5000A3EB07080CFB08FC35F91480A8EB070756
:103F60009CFBF7FC0CEB090707EB020C03E054E0A9
:103F70005CE05EE060E0A0F804C0BF1A8F803BF90F
:103F800014C03BF9169035F91670ACEB090CA3EB95
:103F900007080CFB08FC35F91480A8EB07079CFB0D
:103FA000F7FC0CEB090707EB020CA0F806C0BF1AE0
:103FB000CF803EF914C000E041E03EF9169035F99B
:103FC0001670ACEB090CA3EB07080CFB08FC35F9E9
:103FD0001480A8EB07079CFBF7FC0CEB090707EB29
:103FE000020CA0F808C0BF1A0F81009F37F914C057
:103FF00037F9167035F91660ACEB070C9B1B0CFB00
:1040000003FC35F914309B1B9CFBF3F33B449C18D9
:104010004481981A488106B0E1E6BCF1040F02D051
:1040200097F880203EE797F881203BE7B7F98C208E
:1040300028E7B7F9882025E7B7F88E7030E7BB1876
:10404000038039F81430134443803AF81430134491
:1040500083803BF814301344C3803EF8143013447B
:104060000381009B33F8143013444381019830F8E6
:104070001400801A088039F81400801A48803AF831
:104080001400801A88803BF81400801AC8803EF81B
:104090001400801A0881009830F81400801AB9E7DB
:1040A0002DE9F74F0546FF4896B047F6FF760068C2
:1040B000002700F5D8711591CA31149100F5517B94
:1040C00000F20E4A00F59B6100F2A250CDE9120108
:1040D00014210DA802F0E0FD012200211898FFF73D
:1040E00075F801462C46E9460DF1340E50E015985E
:1040F000ED4B30F914204FF47A704A4392FBF0F202
:10410000ADF80020149A32F914204A4392FBF0F2E1
:10411000ADF802203BF914204A4392FBF0F2ADF8CF
:1041200004203AF914204A4392FBF0F2ADF806203D
:10413000139A32F914204A4392FBF0F2ADF80820AA
:10414000129A32F914204A4392FBF0F0D74AADF8A4
:104150000A000020D2F800C014E0189A32F910804A
:1041600039F91020A8EB02085FEA080201D5C8F16E
:1041700000029A4205DD5FEA080201D5C8F100029B
:1041800013B2401C6045E8D3621B641C2EF8123049
:1041900017988442ABDD1799002072464B1B06E04E
:1041A00032F91010B14201DA0E4607B2401C8342C8
:1041B000F6DA781900B219B011E62DE9FF4F9B46E7
:1041C000B84BBB499FB018680968002490F87A6022
:1041D00091F83021DDF8B09006EB1216F6B2019698
:1041E00090F87D6002F00F02B21A02F0FF0890F81A
:1041F0007E2091F83111254602EB1112D6B290F8CB
:104200007F2001F00F01511ACFB2219909680029CE
:1042100071D000210091049100F18101E630CDE9D7
:104220000210012200211F98FEF794FF82460A2106
:1042300090FBF1F041B265290CD20298405C08B1C4
:10424000054600E00124BBF1010F09D054EA090042
:104250001ED02FE0219900200860012023B0BEE588
:104260009348019B026892F8320103EB1013DBB212
:10427000019300F00F03A8EB030000F0FF0892F891
:10428000330106EB101200F00F00381AD6B2C7B295
:10429000E80704D0019881420CDA01246FE0A807F6
:1042A00002D54145F9DC05E0680703D5B142F4DBEE
:1042B000B942F2DC7CBB59EA0B002DD115F0060F98
:1042C0002AD07B48006890F89020881A1144AA07E9
:1042D0000BD5744A126892F87C20824201DD1046A8
:1042E00003E04246414500DD11466A0707D5B0426A
:1042F00002DA304603E03EE0B94200DD39461F9A5B
:10430000FFF7CEFE049B40B20124CDF810908DE85B
:10431000190853461FE02CE081B163290EDA029898
:10432000084410F8012C4AB1407838B1039830F8AD
:104330001120524506DC481C40B206E001200090E6
:10434000084602E00846491E49B2009CCDF810908C
:104350008DE81308534612A905A8209AFFF769FDB6
:104360005B4612AA05A9CDF800901F98FFF739FD0A
:104370000446012C03D02198056020466EE7219960
:1043800000200860F9E72DE9FF4F93B0002011905D
:10439000444888461F460068012600F18109424CC6
:1043A000342102A802F078FC404900200A6807E0A6
:1043B000139931F91010A14201DD0C46C5B2401C21
:1043C0009042F5D34FF0010A0AFA05F0FEF7F5F82E
:1043D000DFF8DCB00446002519F80500A04251D1F1
:1043E000CDE90057434602A910A8139AFFF794FBA2
:1043F000DBF8000090F85600000703D52D48007840
:10440000012814D0012300970022114602A8FEF7CC
:10441000BBFC70B39DF840108C420BD0D8F8003034
:1044200044EA01029A4205D121B10F9122E0002312
:104430000097E9E7FEF7C1F80F9004214046FCF72A
:10444000EDFFC1B20F98844209D0D8F8003044EA99
:1044500000029A4203D1012901D904280AD000237D
:104460000FAA414602A8CDF800A0FFF7A6FE061E3F
:1044700001D007E000260F98844203D0044315982A
:10448000046002E06D1C652DA6DBDBF8000090F8EF
:10449000E307DD2803D10021119A00F0BAFF30466E
:1044A0009CE40000F00210000080FFFFA402100056
:1044B000EC021000606801202DE9F047C4B082468C
:1044C000342110A802F0E8FB0024734DDFF8CC91F2
:1044D00042E0734E6427DFF8CC813078001B6330F4
:1044E00090FBF7F107FB1100C1B228684200484376
:1044F00008EB40011DA802F02EFB3078001B643051
:1045000090FBF7F107FB1100C1B228684200484355
:1045100008EB40012AA802F01EFB6349288891F9A4
:10452000001000B21DAACDE90021029003AA2AAB17
:1045300037A91046FEF7ECFC002010AE03A92B684B
:1045400007E036F8102031F810703A4426F81020B1
:10455000401C9842F5D3641CD9F8000090F834014F
:10456000A042B6DCBDF94800BDF94A10884201DD21
:10457000801000E08810DAF80010042908D1D9F87A
:10458000001091F83511814202DD0021CAF80010B7
:1045900044B0BDE8F0872DE9F34FDFF8009181B01A
:1045A0000025D9F80000019ADFF8008190F85A0040
:1045B000D2F800A02C462E462F468007AB4618D5D1
:1045C0003B48CDF800B0002341460068FFF7F5FDF9
:1045D000040003D0012C0FD077B90AE0042133483E
:1045E000FCF71CFFC0B2012800D90127019806681A
:1045F000F2E7D8F8000038BBD9F8000090F85A006C
:10460000400726D52A48DDE9012328490068FFF73D
:10461000BAFE0746042101A8FCF700FFC0B2012F33
:1046200004D0012815D1D8F8000068B1D8F80000EE
:10463000019910EA0A00086004D116B1D8F8000008
:1046400018B10125012F02D003E00E60FAE7012C1A
:104650000CD01849A1F800B0D9F8000090F85A0021
:10466000800615D5D8F8000058B111E01149088826
:10467000401C80B208805028EED3502008800125CD
:10468000EAE701980168042902D1FFF715FF022526
:104690002846BDE8FE8F0000A4021000EC021000C6
:1046A0008702100028380120000310008C0210003F
:1046B000B80210009C02100070B51A4C0026226847
:1046C00092F83A305B072AD5B2F814210025891AEE
:1046D0000BB21549496806E030F911209A4201DC15
:1046E000DA4200D50125491EF6D2C5B1FBF7ACFE72
:1046F0000E4D286840F002002860FBF7A3FE4FF43F
:104700000041002002F074F820682A78012190F816
:104710003A00C0F38003072000F07CFF01263046FA
:1047200070BD0000EC021000A00210000803100091
:1047300070B5B44CB44DE068B5F90C1080EA0102D4
:10474000D20708D0C90702D0FDF7F1FE03E0C00789
:1047500001D0FDF77AFFB5F90C00E0602869A06090
:10476000A8686060A8481630206128782070A748A3
:10477000A061323060616438E061A548206270BD9C
:10478000F8B50024032002F0E4F8FFF7D1FF9D4DB7
:10479000A04EA14F287BC00727D096F900009F4963
:1047A000096891F9AB20824201DA012006E091F913
:1047B000A320824201DD022000E00020387091F841
:1047C0001301C00708D0B5F90210286900F04BF8B2
:1047D00010B1012808D008E03A7896F9001028694D
:1047E000FDF7FBFE044600E00124A86870B102203A
:1047F00002F0AFF83878009096F90030AA6929697C
:10480000A868FDF756FD022002F0BEF8012C03D186
:1048100083492869FDF72EFEBDE8F840032002F029
:10482000B3B808B500F083F86B46002203210220DC
:1048300002F02EF80098C00705D00121022002F0F6
:1048400006F8FFF79DFF00988007EDD50221084686
:1048500001F0FDFF00F049F8E6E772480068002823
:1048600000D00120704770B50D460646002400F0C8
:1048700091F8012806D029463046FFF71DFF012890
:1048800030D030E06848006801282BD15D49634A88
:10489000486A401E486210684FF0005190F80001CD
:1048A0004FEA807006D0002819DA11F8350F40F071
:1048B0000F0016E0002805DA11F8350F20F002008D
:1048C000087008E011F8360F40F002000870887890
:1048D00020F002008870554900200860FDE711F8BB
:1048E000360F08700124204670BD38B5032002F051
:1048F00030F8FFF71DFF434C207BC00702D0206932
:10490000FFF743F8A06868B1022002F022F8002007
:1049100000901423A2692169A068FDF7CAFC022057
:1049200002F032F8BDE83840032002F02DB870B52F
:10493000344C0025394EE560A5603068017D407D2E
:1049400041436160012033492070142008702F48D2
:1049500036380560364805600571FDF7E8FDFDF75E
:10496000DDFBFDF7C3FC65704FF4C8706062306812
:1049700090F8281061B1490010F8342F521C40788B
:104980004A43C2EB022100F01F000141618070BD6B
:104990000121F1E72DE9F0410025DFF868C0064666
:1049A0002C46681E2A46AE46DCF804700CE036F948
:1049B00012308B4202DA0B44002B04DC012536F95D
:1049C000124050B203E0521CBA42F0D3A5B19CF899
:1049D0000110491C11F0FF018CF801100ED0124A91
:1049E0008CF801E001211160C3B2E2B2C4F30721E7
:1049F000ED2000F00FFE01E08CF801E02846BDE854
:104A0000F0810000A002100024051000865D012046
:104A1000AE6801200003100013031000EC02100028
:104A20008402100094021000FC0210005C090022B5
:104A300014031000FA4900200860FA490860FA4996
:104A40000860FA490870FA490870FA490870FA498A
:104A500008707047D0214DF6C062BA2000F0F0BC5B
:104A600070B54FF40063984202D2F44C246807E01A
:104A7000A0F5805080B24FF4805398420CD2F04C95
:104A800085189D4200DD1A1A002303E0CD5C1E1834
:104A90005B1CA5559342F9DB70BDB0F5805F04D275
:104AA0000A460146E548006808E0B0F5FE5F07D316
:104AB000A0F5FE5080B20A460146E14800F0DDBC98
:104AC000704738B5002000900C888A7869462046E7
:104AD00000F0B0FBE1B2C020009A00F083FC38BDCA
:104AE00038B50C8888788DF8000001226946204688
:104AF00000F0C6FBE1B29DF80020C22000F072FC7D
:104B000038BD01F026B810B54FF40051002000F078
:104B1000C4F90023BDE810401A461946032000F0EE
:104B200079BD10B54FF48041002000F0B6F90023A4
:104B3000BDE810401A461946042000F06BBDB84984
:104B40000A6882430A600221012000F0A6B9B44934
:104B50000A6802430A600221012000F09EB9FBF7B7
:104B6000AEBFFBF787BF10B5C00711D0B548002313
:104B70000222016841F0010101600121052000F0DD
:104B800049FDBDE810404FF40061002000F085B9F8
:104B900010BD10B50324FBF757FCAB480460FBF7CE
:104BA00051FC002301211A46084600F033FDBDE800
:104BB00010404FF40031002000F06FB910B5002311
:104BC00001221946104600F025FDBDE810404FF4C3
:104BD0008051002000F061B9984A10B5126804466F
:104BE0009A4892F8E327012C02D0022C05D006E067
:104BF000882A10D00978017001E0882A02D0892A19
:104C000003D008E04978017005E0017800231A46D6
:104C1000172000F0FFFC85480178002903D1002C03
:104C200001DD0121017010BD7F4A002301281360BE
:104C300005D1087810211060012000F02EB97047CE
:104C40004FF48021002000F028B94FF4002100200B
:104C500000F023B979480021006890F81601C007D8
:104C600011D07B480068827A12B1FF2A03D00AE093
:104C7000C27A1AB107E0C27AFF2A04D19621817262
:104C8000A521C172012100231A46102000F0C2BCE8
:104C90006F4800210B4600680A468172C1722020CD
:104CA00000F0B8BC00280DD008786A4A01280AD064
:104CB00002280BD003280CD0042803D1B1F801003E
:104CC000A2F8030070474878107070474878507019
:104CD000704748789070704710B508780C4638B126
:104CE0005349012008705C4900200870FDF739FC29
:104CF0005A4920780870012801D1FFF734FF217844
:104D00000023BDE810401A469A2000F083BC10B57D
:104D1000474C2278D2B9504A1278BAB1504A042886
:104D200009D000201070002321781A469F20BDE88A
:104D3000104000F06FBC4B4B0888188048884A49E7
:104D4000088001201070FDF70CFCECE7404A00EBF6
:104D5000D070136820F0010203F1340001F0FBFE73
:104D600000231A4621789C20E1E7314A1278002A74
:104D70000AD0012808DC36480978002300681A4662
:104D8000C1739D2000F046BC704770B5284C227856
:104D9000A2B12F4D00EBD07626F001022B6803F173
:104DA000240001F0D8FE2968700800234884217887
:104DB000BDE870401A469B2000F02CBC26480078C5
:104DC000002810D11D4B294A294C1B6808E031F8F6
:104DD000105022F8105031F8105024F81050401C98
:104DE0001D7D8542F3DC70BD70B5194A4D78431EB8
:104DF00014680A781D445434202D02DBDBB2FF21F5
:104E000008E0A318421E1846491C01F0A4FE002326
:104E10001A460121BDE87040992000F0FBBB00005C
:104E2000F4021000F8021000FC021000120310003F
:104E30000C0310000D03100019031000EC02100009
:104E400050000120040310000803100000031000AC
:104E5000F002100014031000606801209802100096
:104E60000F0310001A4C01201C4C0120AA04100052
:104E7000B404100030B40F4C00B108782070002347
:104E8000C1B230BC1A46A32000F0C4BB09780A485E
:104E9000012900D000210170704738B50C46054645
:104EA00001F0A6FC6946284601F0E1FC009A224286
:104EB000F8D138BD0D0310000E03100010B52021ED
:104EC0005B4801F0C7FE5A48FBF700FE5849401EF8
:104ED00011F8012BA2F190031F2B01D8554A05E0D0
:104EE000A2F1C0030F2B06D8524A803252F8232079
:104EF000BDE810401047B82A21D00DDCB02A13D0ED
:104F0000B22A27D1032825D108888A78BDE8104025
:104F100040BA1146FFF7C1BDFB2A17D0FC2A19D1B0
:104F2000BDE81040FFF7FDBD022813DD31F8022B6C
:104F3000BDE8104053BA821E1846FFF791BD022803
:104F400008D10888BDE81040FFF7DBBDBDE8104080
:104F5000FFF7D9BD10BD0120FFF7F9BD0120FFF714
:104F6000EEBD10B5FDF7C2F9BDE810400120FFF716
:104F7000FABD00F0CABA304810B5017800290CD04B
:104F8000022101702D480068002806D0FDF7AEF917
:104F9000BDE810400120FFF7E6BD10BD26480178AE
:104FA000002903D003210170FDF7DBBA704770B50B
:104FB00023484FF001050078800702D5214805708D
:104FC00070BD214C20680078A52802D0012000F097
:104FD0000FF940F2FF112068FCF706FA2168D1F8BA
:104FE000FC17814202D0022000F002F940F2FF31AA
:104FF0001648FCF7F9F91549D1F8FC1F814206D093
:1050000020680079800702D4032000F0F1F80A48F4
:105010000570FDF7A6FA0120FFF7A5FDBDE8704079
:105020000B48FDF733BB044901200870FDF799BA1E
:10503000BE0410004C710000100310008C02100020
:105040009002100019031000EC0210005000012023
:10505000AE68012008B5FFF7EDFC00F039FA1B4CF3
:1050600020680079800701D5FFF793FD206800795B
:10507000C00701D0FFF76FFF216891F856000007C5
:105080000CD5087D497D484300F02AFB10490023D8
:105090001A4608700146C02000F0BCFAFDF761FA1C
:1050A00001216B460022032001F0F2FB0098C007AB
:1050B000F6D0FFF703FF0121032001F0C8FBFBF747
:1050C00019FDEDE70121032001F092BBEC02100075
:1050D000606801202DE9F0411C4D0F465E002988D3
:1050E000904601EBC10149000CB26968324601EB00
:1050F00044030146184601F02EFD6868324600EB75
:10510000440039460C3001F026FD6868324600EB59
:1051100044004146183001F01EFD2888401C00B2B2
:105120001E2190FBF1F201FB1201288029B9002811
:1051300009D068680188491C0180B5F900003C2845
:1051400001DB00202880BDE8F0810000C8021000CB
:105150003448006890F8000181074FF0005005D5F1
:1051600010F8351F21F00201017008E010F8361F19
:1051700041F002010170817821F002018170FEE7A7
:105180002A4C294AC4E900210168A1604168E16014
:1051900081682161C16861610169A1614169E16161
:1051A00081692162C069606204F12800FCF7C5F9D9
:1051B00001F087FC6064FFF7CBFF1C491C4AC1E982
:1051C0000020704710B501284FF0000205D00146BD
:1051D000BDE81040022000F033B90121022000F0A8
:1051E0002FF9FFF7B5FF012801D10220EAE7704748
:1051F00010B5044601460022032000F021F9012CDD
:1052000001D0022C01D1FFF7A3FF10BD00220146FF
:10521000062000F015B901460022072000F010F921
:10522000FFF796FFEC021000AF0550FA00EE0120E8
:10523000BA0110AB77B585B00E46BDF814401546DF
:10524000200A40EA0420ADF814005F48BDF81410AD
:1052500000248180FC38CDE90004134600F58072FB
:105260005A480294039402210078FBF7B0FB08B07F
:105270002A463046BDE870405349FC3901F06BBC0A
:1052800017B581B01446BDF80400030A43EA0020B4
:10529000ADF804004C48BDF8042082802246801DF1
:1052A00001F059FC0020034600904848464AA11CE2
:1052B000121D0078FBF75AFB1FBD77B585B00E466F
:1052C000BDF814401546200A40EA0420ADF8140049
:1052D0003D48BDF8141000248180FC38CDE900045D
:1052E000134600F580723948029403940221007835
:1052F000FBF76DFB08B02A463046BDE870403249E6
:10530000FC3901F028BCFBF749B908B50020ADF81D
:10531000000002226946FFF78DFFBDF8000008BDBE
:105320002DE9F0412A4E294F86B0306800252A46E3
:10533000C079387001210720FBF72EFC072001F00F
:10534000E3FC00204FF4FA7100BF401C8842FBDBF5
:10535000072001F0E2FC20481E49002202600A7882
:1053600002700A7942700A7A8270097BC1701B4907
:1053700040F201400024088044F20E28FFF7C5FFE8
:10538000404509D03068641C022C80793870F5DB08
:1053900015B90120FFF716FFAFF21B100190AFF215
:1053A0006B100090AFF2ED000290AFF2A5000390F9
:1053B0000B48049040F28F20ADF814006846FBF7CC
:1053C0008BFC06B0BDE8F0815C6701201A03100079
:1053D000EC021000B01F04005C6601201C031000EA
:1053E0003F0500001CB5DB238DF800308DF801006F
:1053F0008DF80210100E8DF80300100C8DF80400CB
:10540000100A8DF805008DF80620684600F055F961
:105410001CBD1CB5DB238DF800308DF801008DF824
:105420000210100E8DF80300100C8DF80400100A05
:105430008DF805008DF806206846FBF76AFB1CBD59
:105440001CB50F238DF800308DF801008DF8021087
:10545000080A8DF803008DF80420100A8DF8050065
:10546000100C8DF80600100E9A498DF807000120E7
:1054700008706846FBF74DFB1CBD2DE9FC41002779
:1054800006460097122015460C4601978DF800003D
:105490001AE0200A8DF80100C4F30B008DF80240D9
:1054A000315C30448DF8031041788DF80410817818
:1054B0008DF80510C0788DF806008DF807706846E5
:1054C00000F0FBF8241D2D1F002DE2DCBDE8FC815F
:1054D0001CB50020804900900190096810234A788B
:1054E00089788DF800308DF804008DF801008DF872
:1054F00005208DF802008DF806108DF803008DF858
:105500000700684600F0D9F81CBD70B588B00024CB
:105510000094142001948DF80000FCF72FF88DF80A
:10552000010023208DF803006B4E22208DF804002B
:105530003068684D41788DF8051080788DF8060048
:10554000287880018DF80700684600F0B6F80094CE
:10555000152001948DF80000306890F8EC178DF854
:10556000011090F8ED178DF8021090F8EE178DF8F5
:10557000031090F8EF078DF80400287880018DF86B
:105580000700684600F099F8009402A80194FBF720
:1055900006FF1B208DF800000298000E8DF8010018
:1055A0000298000C8DF802000298000A8DF80300A2
:1055B00002988DF804008DF8054004988DF80600D7
:1055C000287880018DF80700684600F076F800948E
:1055D0001C208DF8000003980194000E8DF8010046
:1055E0000398000C8DF802000398000A8DF8030060
:1055F00003988DF8040005988DF8050006988DF83D
:105600000600287880018DF80700684600F055F8FC
:1056100008B070BD1CB5304C246894F8E247A4076C
:1056200010D500240194009416248DF800408DF8C4
:1056300001008DF802108DF803208DF804306846C3
:1056400000F03BF81CBD1CB5002300930193E1233F
:105650008DF800308DF80100080A8DF80200100A5C
:105660008DF804008DF803108DF80520684600F0D1
:1056700024F81CBD1CB5184A126892F80021D20704
:105680001AD0002200920E238DF800308DF8010010
:1056900012488DF8022001928DF80320B0F8030023
:1056A000030A8DF804308DF805008DF806108DF88A
:1056B0000720684600F001F81CBD10B50446012023
:1056C00001F047F92046FBF724FABDE8104001201D
:1056D00001F05AB9D0021000EC02100014031000BF
:1056E000F0B52249074601200A68518C51B3204980
:1056F000096891F81731D17B8B4202D009B1FF299B
:1057000020D102F1340602F12404B51C00214FF629
:10571000FF7C383208E034F811300BB1634501D119
:10572000002003E0491C89B2B942F4D3318809B1A1
:10573000FF2900D10020298821B1FF2902D0128839
:10574000914200D20020F0BDF0B50024059E0AE091
:1057500031F9145032F814705D4395FBF7F520F8D9
:105760001450641CA4B2B442F2DBF0BDF00210008D
:10577000EC02100070B54E21324801F06BFA314C4A
:10578000A620314D208042F2223060802868417886
:10579000217180786071FBF7EDFEE080FFF7B5FDC9
:1057A00020812868017D2177417D61772749E18348
:1057B00027492184274961842749A1872749A18452
:1057C0002749E18427492185D0F8FC170A0C628516
:1057D000A185B0F86110E185B0F863102186B0F8BA
:1057E000651061860021A186017F01F0030184F824
:1057F0003610017FC1F3011184F8371090F81611AB
:1058000001F001012187184909684A8952BA628763
:1058100001F12202E2873232A4F8422090F8170107
:1058200084F84400C87B84F845001048A4F846007A
:105830000F48A4F848000F48A4F84A000E48A4F8FE
:105840004C0070BD00000120EC02100062680120D5
:10585000545D0120865D0120B85D0120AE68012005
:10586000BC06012090021000F00210001A4C01202A
:105870001C4C012014031000EA5D012010B5FAF75A
:10588000E3FDFBF738FE08B1FBF72FFEBDE8104043
:10589000FAF7D8BD10B5FAF7D7FDFBF72CFE08B91B
:1058A000FBF71DFEBDE81040FAF7CCBDF0B5851A38
:1058B000DDE905471E1B75438E1A012F02D0904269
:1058C00006DD0BE0904201DC1846F0BD884201DBAA
:1058D0002046F0BD95FBF6F0181AF0BD8842F3DAC9
:1058E00095FBF6F02044F0BD2DE9FC4F7E4A0026E2
:1058F0003546126802F19B0402F1A30C02F1BB09C8
:1059000002F1C30A02F1AB0702F1B30302F1CB08C3
:1059100002F1D30B22568A4201DD144603E01C56E5
:105920008C4200DB0C46A24209DC1CF90010A142AB
:1059300005DB19F900601AF90030012509E03A5633
:10594000A2420CDC1956A14209DB18F900601BF9D0
:105950000030CDE900652046FFF7A8FF46B230468B
:10596000BDE8FC8F2DE9F84F164689460546002410
:10597000DFF878B1DFF870A1DFF8748139E0DBF887
:105980000070E0B249462437FFF7AEFF0146DAF86F
:10599000000090F8E327882A0DD135F8143028F854
:1059A000143090F8E307882805D1524880F83092E7
:1059B000204480F8311208EB44008181C1B135F9EF
:1059C000140064225043C1F1640290FBF2F000B273
:1059D000002801DA404200B237F81420824205DC88
:1059E000821A4A43642192FBF1F1401A25F814000F
:1059F000641CB442C3DBDAF8000090F8E30788289F
:105A000006D0BDE8F84F40F237213A4801F022B9FC
:105A10002968C8F818106968C8F81C10A968C8F87F
:105A2000201006200090DBF800203149938E1831B9
:105A300001F10C002432FFF787FEDFF8B8802E4F0B
:105A40006FF01305388808F80050401C3880002497
:105A50000AE0E0B22946FFF747FF398808F801005D
:105A6000491C641C398024B2B442F2DB6D1C6DB257
:105A70003C2DE7DB3888B0F50C7F08F8009001D3A7
:105A800000203880BDE8F88F70B5002408E031F8B8
:105A9000145032F81460AD1B20F81450641C24B26A
:105AA0009C42F4DB70BDF0B4049C012C04D01BB10B
:105AB000C3F11006002412E0F0BC520001F04BB814
:105AC00030F9145031F914705D4307FB0655EF1798
:105AD00005EB17752D1120F81450641C24B2944264
