:10000000001E0020F1000000D1000000D700000019
:1000100000000000000000000000000000000000E0
:10002000000000000000000000000000DD000000F3
:100030000000000000000000E3000000E9000000F4
:100040004B0100004501000000000000000000001E
:10005000000000003F010000000000003901000026
:10006000330100002D0100002701000021010000E4
:100070001B010000150100000F010000000000003E
:10008000000000000000000007010000FF00000069
:100090000000000000000000000000000000000060
:1000A0000000000000000000000000000000000050
:1000B0000000000000000000000000000000000040
:1000C00082001068116070478200106C11647047E4
:1000D0001F48806800471E48C06800471C48C06A27
:1000E00000471B48806B00471948C06B00477047AA
:1000F00010B518490020C86100F052FB10BD14482B
:100100008030C0680047124880308068004710483F
:10011000806F00470E48406F00470D48006F004752
:100120000B48C06E00470A48806E00470848406E82
:1001300000470748006E00470548C06D0047044867
:10014000406D00470248406C00470148006C004782
:10015000000C0000401000F0000000000000000053
:10016000000000000000000000000000000000008F
:10017000000000000000000000000000000000007F
:1001800010B507E013469C00241F521E9B000C591B
:100190001B1FC450002AF5D110BD30B50446002005
:1001A0000F221207136818258907AB43C90E0B43AA
:1001B0001360116889088900491C1160411E216083
:1001C000116804231943116011684907FCD430BD3C
:1001D00010B500230F2212071468A408A400A41C61
:1001E0001460016010680421084310601068400723
:1001F000FCD4184610BDD649012008607047F0B500
:1002000004460020844620680F46401C1AD0D14E78
:10021000200A0502402231462846FFF7B1FF601B45
:100220008010C117890F08188010800037500024F3
:10023000A00031584019FFF7CBFF641C402CF7D3C6
:100240006046F0BD2046FFF7C3FFF9E7C248002132
:100250000161C24A42618161C14A91600321016129
:100260007047BD490020086148618861BC498860C9
:10027000704710B500231A4603E0845CE3185BB2B4
:10028000521C8A42F9D3D8B210BDB5488168491CC6
:1002900081600120B34940064860704738B5020CC0
:1002A000B14B01290BD0032189028A423AD3D96B81
:1002B000914237D3AD490968012904D00AE0D96BCE
:1002C00091422FD9F6E70B2109028A4202D201217D
:1002D000490752189107890F0004521A000E002591
:1002E000A34C6B46102822D006DC012809D0022836
:1002F0000DD0042815D116E020281DD0402810D19B
:1003000021E0104612680092227D5A5406E0104601
:1003100012680092A28A490849005A520099FFF7D0
:100320006EFF656138BD616910460091F7E710689E
:100330000090585C207538BD480811684000009155
:10034000185AA08238BD1068606138BDF0B500242D
:10035000020C854B01290BD0032189028A4225D347
:10036000D96B914222D381490968012904D00AE05E
:10037000D96B91421AD9F6E70B2109028A4202D2BF
:100380000121490752189107890F561A0004050EDA
:100390000AE0A100764A88198F187969FFF72FFFC4
:1003A00000207861641CE4B2AC42F2D3F0BDF0B539
:1003B0006E4887B0006800250126002838D06D4CB3
:1003C00020680690FFF74DFF6A496017803108608A
:1003D0005F490860624E0127376167490F20FFF7C8
:1003E0006FFE039065490020FFF76EFE059064499B
:1003F0000120FFF769FE0490FFF728FF012108465E
:1004000000F0C4F827600220206068460572564953
:100410000020CA6B0092CA6B0192019B009A9A421B
:1004200017D1401C6428F4D93069002813D014E097
:1004300000F0A6FB4D4840384563524981634104B2
:10044000C1634A490E60C1694F4A1143C16107B097
:10045000F0BD0020DDE7012A18D0B069C0B2422803
:10046000B06935D0C0B25228B06936D0C0B2442885
:1004700038D0B069C0B25528C9D100273C463B49A5
:1004800020020968381801294FD055E03748056027
:1004900036484038C16901221143C161FFF7E1FECE
:1004A00000203449C04380310860294908600F208A
:1004B0000399FFF705FE00200599FFF705FE0120CF
:1004C0000499FFF701FE2B49069808603561BEE7E5
:1004D0006946097AFFF7E2FE25E06946097AFFF7E7
:1004E00035FF20E003277F0300242003381A012171
:1004F000FFF753FE641C062CF7D30327BF0200242A
:10050000200238180021FFF748FE641C042CF7D3A2
:1005100007273F030024200238180021FFF73DFE83
:10052000641C0F2CF7D3B56171E70B2109028842D7
:1005300002D20121490740180021FFF72EFE641C5A
:100540000C2C9CD3B5610120694608725FE700005E
:1005500080E200E0001E002000E000E0D514000072
:10056000000C002000ED00E0C07E0000401000F014
:10057000001F002000E100E08B020000F7010000F6
:1005800001070000FF0A0000010200000122794873
:100590005202C26177494031CB69CB695B085B008D
:1005A000CB61C1691143C1617348016AD201114332
:1005B0000162016A090A090276310162016A520088
:1005C0009143016238214163704770B58407020A84
:1005D000A40F1206694B120E01D0012A03D1052582
:1005E0002D0340195032664D1F2A2BD0403A1F2A46
:1005F00041D802462A40AD0652191568E400FF268C
:10060000A640B543A140294311605E49884205D107
:100610005D4AD16801246405A143D1605B498842E9
:1006200029D1564A103A107C5949002444281CD03C
:100630000DDC102812D0202813D0402813D04228D7
:1006400018D112E002462A4001256D07D4E74F2851
:100650000ED0522809D055280CD106E0012008619F
:1006600008E00C6106E0507C03E01868886101E056
:100670000F2048611461002070BD010A10B5090601
:10068000090E01D0012903D105221203801850312F
:100690000B46103B3A4A0F2B04D801461140012269
:1006A000520713E00B467B3B742B05D801461140E3
:1006B00007221203891A0AE070390A29014602D872
:1006C0001140344A02E011400F22120789188207B4
:1006D0000868920F30490978CB072749CB6A07D0C1
:1006E000FF242402D200D040A3430006000C04E003
:1006F0001B0A1B02D200D040C0B20343CB6210BD24
:10070000F0B51D49086B8006800E8863CA6A224CCA
:10071000150C25608A6A120C62604B6A87069BB2D0
:1007200001262361002F02DA5B192361A672C3063A
:1007300003D523699B182361E672000700D5A672D2
:10074000E07A002500280AD0D007886A01D000048A
:10075000000E2072C1B22069FFF737FFE572A07A60
:10076000002803D02069FFF788FFA5720B490220FB
:100770000860F0BD001000F0009000F0101F002095
:10078000FCFF00004E500000405000F0101F000021
:10079000000C00200090FF1FE80C002080E200E029
:1007A0001CB54948416B022291434163474B986B0A
:1007B000910708439863464E0022F261C8174549E5
:1007C00008604549086000F0F3F94448026142615D
:1007D0003E4843493830002420C920C0641C0F2CF7
:1007E000FAD34048016A0124240421430162016ACA
:1007F000090A090276310162016A6400A1430162BB
:100800003248C038C16AC024A143C162C16A1824F9
:100810002143C162C16A06242143C162324C226174
:100820006261A261E261012525606260A260002030
:100830007D21C90000BF401C8842FBD3D86B012139
:1008400009038843D863264F00202849783F00BF1A
:10085000401C8842FBD30020F96B0091F96B019199
:10086000019A00999142F6D1401C6428F4D9786B22
:10087000401C18D0B86B401C15D0796B0320800247
:1008800081420FD9796B164A483A91420AD8796B5E
:10089000091AFFF7EEFC12495839097E08180006BC
:1008A000000E00D025613068012800D12561206943
:1008B000012802D00098012802D0FFF778FDCAE78E
:1008C00000F0FEF9C7E70000004000F0005100F022
:1008D000401000F080E100E080E200E0001F002016
:1008E000387F0000009000F0000C0020B80B0000E2
:1008F00000000000000000000000000000000000F8
:1009000000000000000000000000000000000000E7
:1009100000000000000000000000000000000000D7
:1009200000000000000000000000000000000000C7
:100B8000012110B5002349070B200002401E1C5C08
:100B90000C54C028FAD801221203C020401E145C55
:100BA0000B460C54FAD1064808600648586010BD40
:100BB0000549002008614861886104494860704720
:100BC000001E0020F100000000E000E0000C00200A
:100BD0000000000000000000000000000000000015
:100BE0000000000000000000000000000000000005
:100BF00000000000000000000000000000000000F5
:100C0000001E0020F1000000590E00005B0E0000E5
:100C100000000000000000000000000000000000D4
:100C20000000000000000000000000005D0E000059
:100C300000000000000000005F0E000081220000A4
:100C40000D0F0000FF130000000000000000000076
:100C5000000000002725000000000000CF0E00006B
:100C6000C50E0000B1230000B10E0000E522000017
:100C7000810F00006B0F0000110F0000000000004A
:100C800000000000000000007F0E0000750E000054
:100C90000000000000000000000000000000000054
:100CA0000000000000000000000000000000000044
:100CB0000000000000000000000000000000000034
:100CC000F8B501F0E9FA0024584E0125356058497D
:100CD00020468200401C8C504028FAD3554A002000
:100CE000411E8300401CD1501028FAD301F0C7FCEC
:100CF00000207D21890100BF401C8842FBD301F008
:100D000085FB0121084601F098FB05F009F80090E9
:100D10006846C570009805F019F80F2004F0F6FF3A
:100D2000002004F0ADFA444804F090FB012000F0EC
:100D3000ADFC012000F0B3FC012005F059F80120C2
:100D400005F060F8002004F0A8FF002004F094FFF4
:100D500001208003306000F071FB384841680225B3
:100D6000A943416001F0FFFF01F070FD01F074FD47
:100D70003349CA6B03231B029A43CA63CA6B1B0520
:100D80009A43CA632D4940310A6B0F231B059A43CE
:100D900007231B05D2180A634A690F231B0607267F
:100DA0009A43360692194A618A699A430B231B06B5
:100DB000D2188A61012829D0022827D0032828D0F8
:100DC000042826D0032004F05BFA0321072004F056
:100DD00077FA04F0F7F9CF2004F016FA072004F0B0
:100DE00045FA174840300168294301600168012233
:100DF0001203114301600E4D803D01F0F6FD01F03C
:100E00008BFE01F0E2FD012806D007E002F0D9FEDA
:100E1000E7E703F0B9FAE4E704F060F8286901288D
:100E2000EBD1044810380461F8BD000000E100E097
:100E3000800C0020101F00207C150000005100F0E5
:100E4000401000F00348854605F07CFA0048004752
:100E5000A1070000001E00207047FEE77047012038
:100E60002849C0064860704701202649400648606E
:100E70007047FEE710B5132000F03DF810BD10B527
:100E8000122000F038F810BD10B50E2000F033F835
:100E900010BD10B50D2000F02EF810BD10B50C20BF
:100EA00000F029F810BD10B50B2000F024F810BD9B
:100EB00010B50A2000F01FF810BD10B5092000F091
:100EC0001AF810BD10B5082000F015F810BD10B5C7
:100ED000072000F010F810BD10B5052000F00BF849
:100EE00010BD10B5012000F006F810BD10B50020AF
:100EF00000F001F810BDC106C90E0120884002496A
:100F00000860704700ED00E080E200E070470000FC
:100F100010B504F0D3FE1E21884344086400204627
:100F200004F0BBFE600603D50121084601F00CFF6A
:100F3000200603D50121022001F006FFE00503D5BC
:100F40000121042001F000FFA00503D501210820A4
:100F500001F0FAFE600503D50121102001F0F4FE36
:100F6000012028498003086010BD10B5FF20002132
:100F7000013000F0D7FA012022494003086010BD7B
:100F800010B500F0DBFAFF2104460131884300F080
:100F9000C6FA204602F033FF204602F04DFF2046FD
:100FA00003F053FA600402D5012001F06AFE6002EA
:100FB00001D501F08FF8200201D501F078F8E001A9
:100FC00001D501F053F9A00101D501F019F9600133
:100FD00001D501F0E8F820010FD503F074FF0328D4
:100FE0000BD004F0A9FD002807D100F022FF01205A
:100FF00003F012FD012004F021FE0120014900034D
:10100000086010BD80E200E010B5442830D014DC48
:101010002B283BD03C281CD040280DD104F0A1F94E
:10102000032803D004F058FE002803D0002001F06C
:1010300035FE80B204F0EAF910BD46281FD04828DA
:1010400048D0FF386528F7D104F0BCFB04F0DAFD86
:1010500010BD04F086F9032803D004F03DFE0028FB
:1010600003D0022001F01AFE80B204F0C7F910BDCF
:10107000012001F013FE80B204F0DAF910BD032064
:1010800001F00CFE80B204F0DAF910BD01F0BFFDF2
:1010900004F009FA04F065F9012805D0022803D00C
:1010A000032803D0002012E0042010E003F0FFFE2C
:1010B000012809D003F081FD012807D003F006FFC5
:1010C000012803D0082002E00A2000E0092004F0F3
:1010D000F3F910BD04F045F90328FAD000F0E2F965
:1010E00001467D20800204F091FF80B204F0EBFB0A
:1010F00010BD10B50C464E2808D04F2805D1C807A2
:1011000003D00121072004F03AF910BDA00602D552
:10111000012004F089FDE00603D50121042001F03F
:1011200002FE200703D50121022001F0FCFDE007AB
:1011300003D00121084601F0F6FD600703D5002029
:10114000B349C043C861A0070AD500F0C6F9012819
:1011500012D0012000F0B8F90021052004F00FF9A9
:101160002006D2D503F0A3FE012807D0012003F00A
:10117000A2FE00210120C6E70020EBE7002003F0DB
:101180009AFE012004F05AFDF3E738B5044601F059
:101190003EFD00280BD1022C0AD0072C01D00F2CC9
:1011A00005D19C48C16B0122D2061143C16338BDF1
:1011B000002000F089F900206946087048706846F0
:1011C00004F046FD0021802004F0B7F800218020C3
:1011D00004F0A1F80021102004F052FD002004F0DA
:1011E00071FD38BDF8B5044600698B4E010A8707CA
:1011F0000D06BF0F89492D0E04D0012D27D01F2DBC
:1012000055D027E082B24018502520613E2A1AD0DE
:101210004E2A04D04F2A0DD0692A1BD10FE0217A23
:101220001046FFF766FF207A810713D5FD2108409D
:1012300020720FE0217A1046FFF75BFF0AE0207A68
:10124000FFF7A3FF06E0022001F08AFD02E040184C
:1012500051252061403D1F2D40D87149206908402B
:10126000890640180268F900FF238B409A43237ACD
:101270008B4013430360694920694E31884203D192
:101280000021084604F07BF866492069884225D190
:10129000614A103A107C64490023422818D00BDCC4
:1012A00010280ED020280FD0402816D10EE05C491F
:1012B000084001214907D4E74F280CD052280CD10F
:1012C00006E00120086108E00B6106E0507C03E0C5
:1012D0003068886101E00F20486113610020F8BD8B
:1012E00070B50C460969080A0006000E01D00128F5
:1012F00003D14A4A8918503021610246103A4849C0
:101300000F2A04D8206908400121490713E002464A
:101310007B3A742A05D82069084007210903401A3E
:101320000AE070380A28206902D808403F4902E0E4
:1013300008400F2109074018216905688E07B60F7C
:1013400036482030814205D100F0C7F880210128BD
:101350000DD08D432078C1073548C16A09D0FF22DE
:1013600012029143F200D5402A06120C06E00D430A
:10137000F0E7090A0902F200D540EAB21143C1625E
:1013800070BDF8B52A4D06462A4C286B8006800EA3
:10139000A863E96A090C2160A96A090C6160696A9D
:1013A000830689B201222161002B03DA2368C91860
:1013B0002161A272C10604D563682169C91821613F
:1013C000E272000703D5A2722069FFF71DFEE07AE2
:1013D000002700280AD02079C007A86A01D000049D
:1013E000000E20722046FFF7FDFEE772A07A00286B
:1013F00004D021463046FFF773FFA772F8BD10B541
:101400000020FFF7BEFF0C490220086010BD00005D
:10141000001000F0005100F0101F002000500000EC
:10142000FCFF0000101F0000000C00200090FF1FB8
:10143000009000F0FC0C002080E200E0FE4900205B
:1014400008707047FD4A516B0223C0079943800F13
:10145000014351637047F94A51680123DB03C00718
:101460009943000C014351607047F448006800063E
:10147000C00F704710B5F1480069F14C01052078A4
:10148000090D49304843C82104F0C0FDED4980B240
:101490004843ED4904F0D0FD01216156C9004018D0
:1014A00080B210BDE548006AC004000D7047E348F3
:1014B000403080688003C00B7047E048006A000439
:1014C000800F00D001207047DC4A516B8023C00799
:1014D0009943000E014351637047D848406B0006A2
:1014E000C00F704710B5D54CE269D84B9202920AF2
:1014F0001A400303134388051843E06110BDCF4A27
:10150000D169D14B5B42194040000843D06170471C
:10151000CA4AD169490849000143D1617047C749A6
:1015200008637047C54A012905D0002902D1116B13
:10153000814311637047116B0143FAE7BF48806A2A
:101540007047BE49C8627047BC4A012905D00029CE
:1015500002D1D16A8143D1627047D16A0143FAE76F
:10156000B64A11689301C0079943C00A014311604C
:10157000704710B5B1494A6803789202920A9B05F8
:101580001A434A604A680323DB049A4343789B0763
:10159000DB0A1A434A604A6807231B049A4383788C
:1015A0005B075B0B1A434A60A44A40321368C47855
:1015B0001B091B012407240F234313601368F02425
:1015C000A34304792407240E234313604B68CC0102
:1015D000A3434479E407A40A23434B601168012321
:1015E000C0799B05C0079943400A0143116010BDB3
:1015F000012805D002280DD004280DD008280DD0D0
:1016000000208E4A516803235B0399434003014342
:10161000516070470120F4E70220F2E70320F0E771
:1016200086494A6807239B029A4303785B07DB0CD1
:101630001A434A604A687C239A434378DB065B0E70
:101640001A434A604A68FF2301339A438378DB07D1
:10165000DB0D1A434A604A68C0788023C0079A436A
:10166000000E02434A60486B4022104348637047B3
:10167000724A51687C23C0069943400E0143516071
:1016800070476E4840684006C00E70476B4A516B09
:101690001023C0079943C00E014351637047674A46
:1016A000516B0823C0079943000F014351637047F2
:1016B0006249496A014201D0012070470020704709
:1016C0001CB55E49CA686B46120E1A70CA681202CF
:1016D000120E5A70CA681204120E9A70CA68120664
:1016E000520FDA70C9680522C906C90E1971194668
:1016F00004F0B6FC1CBD51490068886070474F4833
:101700000830006870474D490068086070474B48D2
:1017100000687047F0B5494C4D4D85B0020011D0BE
:10172000012A2DD0022A7DD0032809D160694949B8
:101730000001000D4843484904F07EFC4749401829
:1017400005B0F0BD012102A800F04AFF03990298FC
:101750000191009020696A4601051078090D493011
:1017600048430C214843294604F066FC3549484368
:10177000354904F061FC6A465188C90009B2DEE7C8
:10178000206900210001040D02A800F029FF029841
:101790000090039928480191FF27FF2600784137E0
:1017A00019362F4D002804D004F0C6F9012818D0AE
:1017B0001CE06A4610792D214930604348434B2193
:1017C000C90104F039FC2249C8314843254904F0D5
:1017D00033FC6A460621515E4018174901220A70FF
:1017E00043E06869B84201D9002007E004F0A4F999
:1017F000002807D16869B04204D2012004F0ACF996
:10180000686932E004F098F901286A4632D010780D
:10181000493060430101081A4B21490104F00CFCD6
:101820000B4900E038E0C8314843074904F004FCA4
:101830006A460221515E17E0800C0020004000F053
:101840009B0C0020E8800000FF0F0000FF0FC0FF8E
:10185000D007000074B90200102700005C95FFFF5C
:10186000100D0020FD2F00004018002800DA002095
:10187000686165E710792D214930604348434B2169
:10188000C90104F0D9FBFE494843FE4904F0D4FBEA
:101890006A460621515ECEE7606901210405240DE8
:1018A00002A800F09DFE039902986A4601910090FB
:1018B00010790C21493060434843294604F0BCFBB1
:1018C000F1494843F14904F0B7FB6A460621515EED
:1018D000C90040180028CCDC002031E7EC4800218A
:1018E000016041608160C16001618161C16101622B
:1018F0007047E849486AC005FCD5E5480B690268AD
:101900001B051B0DD218026042680B691B011B0DE1
:10191000D218426082684B691B051B0DD218826089
:10192000C26849690901090D5118C1608169491CE2
:1019300081617047D749486AC005FCD5D4480B6916
:1019400002681B051B0DD218026082684B691B05DB
:101950001B0DD2188260C26849690901090D51182E
:10196000C160C169491CC1617047CA48416AC90563
:10197000FCD5C74900694A680001000D101848608D
:10198000086A401C08627047C249486AC005FCD515
:10199000BF480B6902681B051B0DD21802608268E4
:1019A0004B691B051B0DD2188260C2684B691B0175
:1019B0001B0DD218C260426809690901090D51184E
:1019C0004160016A491C0162C169491CC1617047DB
:1019D000F0B57D2485B02401AD4D030004F0C4FCB6
:1019E00005042393B6C2B400012102A800F0F8FD5B
:1019F0000399029801910090E969286804F006FBB8
:101A00006A461178493141430C204843214604F08D
:101A100013FB9D4948439D4904F00EFB6A46022191
:101A2000515EC9009CE0002102A800F0D9FD039995
:101A3000029801910090296A686804F0E7FA044668
:101A40009548FF27FF26007841371936002804D033
:101A500004F072F8012817D01BE06A4610792D2196
:101A60004930604348434B21C90104F0E5FA8449F9
:101A70004843844904F0E0FA6A460621515E401862
:101A8000854901220A7027E06869B84201D900201F
:101A900007E004F051F8002807D16869B04204D289
:101AA000012004F059F8686916E004F045F80128AF
:101AB0006A4616D01078493060430101081A4B215C
:101AC000490104F0B9FA6E494843704904F0B4FA88
:101AD0006A460221515E4018002800DA0020686141
:101AE0002EE610792D214930604348434B21C9012E
:101AF00004F0A2FA62494843624904F09DFA6A463A
:101B00000621515EE7E7012102A800F069FD039973
:101B1000029801910090E969A86804F077FA6A4692
:101B20001179493141430C204843214604F084FA9D
:101B300055494843554904F07FFA6A460621515EEB
:101B4000C90040180028CBDC0020F9E5E969E86805
:101B500004F05CFA51494843514904F06DFA514987
:101B60004018EDE5A969286904F050FAE8E510B5D8
:101B700003F019FF642148434749FF22F5328A6088
:101B800048600146484804F057FA0446FF20F53003
:101B90007D216043C90004F04FFA3E498A6B434BF4
:101BA0001A40E3055B0D1A438A638A6B404BC005FC
:101BB0001A40000B02438A63886B3E4A10408863D8
:101BC00010BD70B5044603F0E9FE054603F0E1FEE2
:101BD000041BAC4201DC2C4602E0844200DB0446DC
:101BE000A0B203F070FE642003F085FE214664205D
:101BF0004143294841602C4804F01EFAFF21044665
:101C0000F5314843490004F017FA224902468B6B2C
:101C100026480340E005400D03438B638B6B24484B
:101C20000340D005000B03438B63886B214A1040AF
:101C3000886370BD184880686430C2E7F8B505460F
:101C400003F0B6FE8100471803F0A3FE06466420A9
:101C500031464143144804F0EFF90446304603F09E
:101C600032FEFF212046F5314843490004F0E4F9F3
:101C70000646BD4200DA3D46052128461CE000002C
:101C800098080000FD2F0000E8800000FF0F000012
:101C9000100D0020004000F0800C002074B90200FC
:101CA000102700005C95FFFF0048E80103F8FFFFE4
:101CB000FF07F0FFFFFF0FE004F0BEF9C0B203F032
:101CC0001AFEFF20F530411B204648437D21C90004
:101CD00004F0B2F9DE498A6BDE4B1A40E3055B0D76
:101CE0001A438A638A6BDC4B1A40F3051B0B1A43B9
:101CF0008A638A6BD94BC0051A40C00802438A63C5
:101D0000F8BD70B5054603F044FE044603F046FEF8
:101D1000241A03F04DFE8100D14B411898682246E9
:101D2000FF324019F532904201DD104602E0884250
:101D300000DA0846FF21F5319860884203DB401A3B
:101D4000FFF73FFF70BDFFF779FF70BD10B501468B
:101D5000C44804F071F9FF210446F53148434900B5
:101D600004F06AF9BA4902468B6BBA480340E005B1
:101D7000400D03438B63886BB74BD2051840120BA1
:101D80001043886310BD70B50546B5484168B54835
:101D900004F052F904467D216843C90004F04CF96F
:101DA000AB4902468B6BAB480340E005400D034353
:101DB0008B638B6BA8480340D005000B03438B63F8
:101DC00070BDA74840687047A14940318A6AC00782
:101DD00052085200C00F02438A62704770B59C4D92
:101DE00001264035F6030446012805D1E86A304350
:101DF000E862012000F05FFA9549886B42085200C2
:101E0000E007C00F02438A638A6B02239A434000B3
:101E100002438A63012C0BD1192000F0A4FA01209F
:101E2000FFF7D2FF022000F046FAE86AB043E8620A
:101E300070BD8748816B490849008163816B02222C
:101E400091438163704782484030016A0122114307
:101E5000016270477E4A4032116A0C238007994321
:101E6000000F014311627047794940310A6AFF232C
:101E70001B029A43000202430A627047744A10B57B
:101E80004032136A0F2424050007A343000A0343CA
:101E90001362106A0223C9079843890F084310622E
:101EA00010BD6B4A4032116A1F231B06C0069943BE
:101EB000C008014311627047012100B58B05184627
:101EC000FFF730FB01211846FFF73EFB0121CB0550
:101ED0001846FFF727FB01211846FFF735FB0120C5
:101EE00061490003086000BD59488030406AC0B2B3
:101EF000704757488030406A0004000E70475448CD
:101F00008030406A0002000E704751488030406ABD
:101F10000001000F70474E4A8032D1680223C0078B
:101F20009943800F0143D160704749498031CA68A5
:101F3000C00752085200C00F0243CA607047444AAB
:101F400010B5803213690124E403C007A343000CD9
:101F50000343136110694904C00BC003490C0843D3
:101F6000106110BD10B5072304461B060146184634
:101F7000FFF7D8FA21461846FFF7E6FA01203A495A
:101F80000003086010BD3248016B820211430163F7
:101F9000016B020311430163016BC2021143016330
:101FA000704730B52A4B40335C6A0825C007AC4304
:101FB000000F04435C62586A5207C008C000520F09
:101FC00010435862586A294A09051040090C084311
:101FD000586230BD30B51E4B40335C6A0125ED04BC
:101FE000C007AC43000B04435C62586A0724240416
:101FF0005207A043520B10435862586A0003000B6B
:1020000009050843586230BD10B501230446014656
:10201000DB061846FFF786FA21461846FFF794FAC2
:1020200010BD10B50123044601461B071846FFF7F3
:1020300079FA21461846FFF787FA10BD044A403264
:10204000916A0223C0079943800F01439162704750
:10205000004000F003F8FFFFFF07F0FFFFFF0FE075
:10206000800C00200048E80100E100E00F00FFFFC5
:1020700010B5334800218174C175017601218C05AA
:102080002046FFF74FFA01212046FFF75DFA0121B4
:10209000CC052046FFF746FA01212046FFF754FA07
:1020A0002849E012086010BD2548807C704724490B
:1020B00000208874704730B5214B01229A740022A9
:1020C000DA75197603E0845C9D18EC74521C8A4220
:1020D000F9DB30BD70B51A4DA87C2C4613340128AD
:1020E00008D0022805D1E97D085D491CE975FFF794
:1020F000BBFE70BD01210220FFF7C0FE0020FFF7EC
:10210000A9FE287E801EC0B2FFF7CBFEE97D085DE8
:10211000491CE975FFF7A8FE052000F0CCF8FFF791
:1021200092FE0220A87470BD10B50020FFF792FE49
:1021300010BD10B50120FFF78DFEFFF784FE10BD26
:10214000340D002000E100E04C49087070474B4816
:102150000078704710B5FFF7D8FE002803D1FFF7CD
:10216000C3FE02F0A7F910BD202801D2032017E01A
:10217000802806D22038C117090F08180011001D49
:102180000EE0E02806D28038C117490F0818C010A9
:102190000A3005E0E038C117890F081880101630A2
:1021A00036490872704770B5FFF7AFFE002813D1AB
:1021B000324C264660680A3600280ED0217A491E25
:1021C000884209D2FFF795FE617A414061726168E9
:1021D00088556068401C606070BDFFF785FE05464D
:1021E000FFF7C2FF02F063FE012803D1012D01D1E8
:1021F00002F065FE607A6840607260688555E8E7C5
:1022000070B5FFF782FE00281BD1FFF778FE1B4D4B
:1022100029466A680A3150546968491C69606A7ABB
:1022200042406A720DD1287A81420AD1002405E029
:102230002819807A02F03EF9641CE4B26868A04272
:10224000F6D870BD10B500210846FFF778FE0020D3
:10225000FFF761FE0020FFF785FE10BD10B50120DD
:10226000FFF759FE0120FFF77DFE10BD0348002156
:10227000416041720321017270470000500D00203F
:1022800044480168491C01600120434940064860F8
:102290007047404800687047404800210161404A4B
:1022A000426181610321016170473C480021016165
:1022B00041618161704737490A680B689B1A834204
:1022C000FBD9704737480268012109038A4302603D
:1022D0007D221201C261344B4A101A6002680A431F
:1022E000026070472B484168491C41602D48416A93
:1022F0000822114341622D491002086070472548A9
:102300004068704710B57D2103F080FE10BD0021AC
:10231000425C202A07D00D2A05D0002A03D0491C90
:1023200089B28029F4D3491C88B2704770B50D4634
:1023300006460023FFF7EBFF04B22846FFF7E7FF4E
:1023400000B2844200DC04460020641E07E0315CD9
:102350002A5C914201D05B1C1BB2401C00B2A0421F
:10236000F5DB184670BD002813D00E490A685208E4
:1023700052000A600A178A6000010A68C0430123FC
:102380001A430A608A688242FCD808684008400004
:10239000086070478C0C002000ED00E000E000E0D9
:1023A000D514000000D000F000E100E080E200E081
:1023B000704714490A6810239A430A600001C860F4
:1023C00011495801086070470E480168C90603D4D6
:1023D000016810221143016070470A480168C9066C
:1023E00003D4016810221143016070470548016859
:1023F0001022914301607047024801681022914306
:102400000160704700D000F000E100E001201A49AF
:102410004002C8611948016A012212041143016295
:10242000016A090A090276310162016A5200914388
:10243000016213490220086070470F484030C169AB
:10244000C16949084900C1610B48C16901225202B2
:102450001143C1610948016AD20111430162016A55
:10246000090A090276310162016A52009143016250
:102470003821416370470000001000F0009000F028
:1024800000E100E039480068C0B2704737498A6906
:102490009206FCD40860704700B5034602E05B1C5E
:1024A000FFF7F4FF18780028F9D100BD10B501221C
:1024B0002F48202303602F48C16B03242404A14329
:1024C00054040919C163C16B0324A404A143D404B7
:1024D0000919C1632548816B19438163816B1023FE
:1024E00019438163816B402421438163416A090C54
:1024F000090408314162816A090C09042C318162A6
:10250000016B540221430163016B140221430163F7
:10251000C16A1943C162C16A60231943C162016B78
:102520001143016310BD10B50020134A2021116032
:102530000E4B40331A68920601D5586812E01968AC
:102540000E4A4C06094903D410BD086810700120DA
:102550008C69E406F9D5002802D01078FFF796FFC1
:10256000586840210843586010BD000000B000F0DA
:1025700000E100E0401000F080E200E0940C002058
:10258000A54908717047A4480079704770B50446A2
:102590000020611A049E642900DC01209E4C002565
:1025A0006178814203D12178491C217000E02570B7
:1025B000607000280CD0184603F09AFC7D20C00003
:1025C000301800B203F0FAFA01202071257070BDB6
:1025D000104603F08DFC304603F0F0FA2571F5E764
:1025E0007CB50C46054602F0BCFE8B490246491DEF
:1025F000881C032A0FD0002C19D0012C33D00021C5
:102600006846017041800171C180082269462846F0
:1026100003F026FD7CBD012C25D07F486A461E3084
:1026200001781170408850807B481A300CE07A485D
:10263000007901280DD078486A461630017811706B
:102640004088508074481230017811714088D080E1
:10265000DBE771486A460E3001781170408850807F
:102660006D480A30F0E70A786B461A7001228A56E4
:102670005A800178197101214156D980C5E7F8B512
:102680006D4A66A1127869A0552A7DD16A4B6B4CC0
:102690002B3B002220CB20C4521CD2B20F2AF9D3EC
:1026A000654A2C3A1278664B1A70634A11321278D6
:1026B000634B3D331A70604A123212785B1C1A70F9
:1026C000554A5D4B121D0F331B7813705A4B521C29
:1026D00011331B781370584B12331B785370564BC1
:1026E000921C13331B781370534B14331B785370A5
:1026F000514B133215331B7813704F4B183A163366
:102700001B7813704C4B521C17331B781370D31E5D
:10271000DA789C78120222431C461A346280221D09
:10272000454C183424781470434C1C3A19342478DE
:102730001470414C521C1A3424781470DA789C7846
:10274000120222431C461E3462803C4A0832546AFC
:1027500025141C4612346580946A1E461636748011
:10276000946A1F4624140A377C80D46A3D1D6C800D
:10277000D46A2402250E341F2570D46A240E3470C6
:10278000146B3C70126B00E019E01204140E3A1D39
:1027900014701A79FF2A12D100221A71341F628034
:1027A00072807A80251F6A807F23237033703B708C
:1027B0002B700D3C23706270A41C23706270224B3E
:1027C000204A5A601D4A883A00239C000D5D641817
:1027D000E67836063543A678647836042402264324
:1027E0003543009520C25B1CDBB2032BEDD302CA3C
:1027F00000218B00C45C1B18DD782D062C439D78CE
:102800005B782D041B021D432C43009410C2491C0D
:10281000C9B20229EDD3F8BD960C002046656220AE
:1028200032372032303139200000000032313A3165
:10283000323A313100000000637F0000385100F06F
:1028400037510000A3110210005000F0F74800219A
:102850000170C17601767047FEB500207D240546E3
:10286000E4000646009002F07CFD012701287DD09F
:1028700002287BD0032879D0012003F0CBF908206F
:10288000FEF7B6FE002002F0FBFCFEF740FF402101
:102890000843029002A8FEF736FF192149014810AB
:1028A000FEF720FE0520FEF72AFE0020FEF730FE90
:1028B00001218803FEF736FE01218803FEF744FE5E
:1028C000DB4938030860FFF7E4FC0746FFF7E1FC4B
:1028D000C01B052803D8FEF7E5FD0028F6D0D34934
:1028E000002048700120FEF7B6FDFEF7DBFDC008B2
:1028F000A84200D90546A04200D204460099761CA1
:1029000008180090FFF7C5FCC01B0528EDD931461B
:10291000009803F07BFBC54E2A1B03217060042A3C
:1029200003D9641F3C2C04D927E002464A3A682A9E
:1029300002D20120307013E010281ED870780128D0
:102940001BD000203070B0760121880202F0E3FC39
:102950000121202002F0DFFC0121102003F022FAE7
:102960007D20C001716803F051FB00E007E002F038
:10297000B2FF0020FEF76FFD24E03170F0E7012088
:10298000FEF760FD0020FEF79FFD0021802002F091
:10299000D4FC0021802002F0BEFC0021102003F0B6
:1029A0006FF9002468460471447101A803F050F9DE
:1029B0000021102003F0F6F9012003F03FF99B48B5
:1029C0008776047099480078FEBD10B502F0C9FC06
:1029D000032801D0002010BD0021102003F0E2F9EF
:1029E000012003F02BF9012010BD38B502F0B9FC2D
:1029F0008E4C012810D002280ED000280BD1A07ECA
:102A0000012808D10121102003F0CCF9012003F0A6
:102A100015F90220A07638BDA07E0028FBD1012048
:102A2000FEF710FD002020700098C008C000009044
:102A30006846FEF768FE0120A0760021102003F012
:102A4000B1F9012003F0FAF838BDF8B5794D286BDB
:102A5000400CC00752D10320694608701F204870FF
:102A600001208870C8706846FEF7DAFD1F20FEF767
:102A7000FFFD0220FFF71FFC0220FEF74BFE07467A
:102A8000286B64210002000F4843090144186A487A
:102A9000844200D90446A8690001000F03F0DDFB61
:102AA000064668690001000F03F0D7FB314603F0CA
:102AB0007FFB0646384603F0C5FB0746204603F079
:102AC000CCFB314603F037FB394603F071FB5B4921
:102AD000884200DD08465A4CA16B5A4A1140FF312A
:102AE0000131A163062103F0A1FB03F0D6FBC00571
:102AF000A16B000B544A11400843A063E868E968E1
:102B00000F2081430143E9604A494039C86B0122E3
:102B1000D2069043C863F8BDF8B502F022FC002548
:102B2000424F0646072801D00F2E53D1B87E01240C
:102B3000002802D1BC76FFF788FF02210F2E3D4B03
:102B40003F48424ABE7E06D0012E2CD1404E7668C8
:102B5000B60741D433E0012E25D13D4E7668B60745
:102B60002DD41678002E0BD1324E403EF66B360532
:102B700005D4866B26438663866B0E43866314708A
:102B8000334E7668F6040FD45678002E0BD1294EBA
:102B9000403EF66B360533D4D86860218843403018
:102BA000D86054709570F8BD90780028FBD1D86833
:102BB000602188432030D86094705570F8BD137838
:102BC000012BFBD1836B5B085B008363836B8B43BF
:102BD00083631570BD76F8BD1678002E0BD1154EA7
:102BE000403EF66B360505D4866B26438663866BBE
:102BF0000E4386631470164E7668F604D4D5C3E788
:102C0000866B26438663866B0E438663C4E707485C
:102C10000078704705490870704704484068633879
:102C2000152801D801207047002070477C0D002036
:102C300000E100E0405100F0C409000000004842FB
:102C4000004000F003F8FFFFFF07F0FFB80C002082
:102C5000801000F05A484068642801D30120E4E75E
:102C60000020E2E75648406801464B39172901D851
:102C70000120DAE76338152801D80220D5E70020C3
:102C8000D3E74F494870D0E74D4902688A604268EF
:102C9000CA6082680A61C0684861C6E770B5484D7D
:102CA0000446287801280ED002280CD002F059FBE7
:102CB00003281DD0002C26D0012C28D0022C11D0A6
:102CC000032C13D125E0002C04D0012C04D0022CBD
:102CD00014D103E0A86870BDE86870BD394928695F
:102CE0008842FADA02200FE0686970BD002070BDEA
:102CF000002CEFD0012CEFD0022C02D0032CF5D108
:102D0000F2E7286970BD0020FEF704FD70BD0120C8
:102D1000FAE70320F8E72A49097E014201D00120A1
:102D200083E7002081E7264B01291A7E02D08243E7
:102D30001A767AE70243FBE72149497E014201D036
:102D4000012072E7002070E71D4B01295A7E02D056
:102D500082435A7669E70243FBE71948C07E64E77D
:102D60001749C87661E71649002088765DE7F8B50F
:102D7000164915480A6B6B461202D20E1A70134A96
:102D8000403292685202520E5A704A6B1205120F6C
:102D90009A70496B0E4E8902890ED97000246D46D7
:102DA000295D420110184018314603F02FF9641CC8
:102DB0000846042CF4DB314603F028F90846F8BD38
:102DC0007C0D0020B80B00009FE73503005100F098
:102DD000FFFFFF00F8B5054616460F460120FEF737
:102DE00047FCFEF747FB84091F20FEF741FCFF2C40
:102DF00000D3FF24FE484460012028706C701E2020
:102E00003860072030607120F8BD70B5044602209C
:102E100015460E46207002F060FB6070C8203060DE
:102E200000202860012070BD30B5FF22FF23FF2461
:102E3000FF25E1327D334B341935002815D00128A8
:102E400024D0022833D0032842D0042851D00528AA
:102E500060D0FF24053406286DD0FF235F33072898
:102E60007AD0322979DA0020B0E0914276DC9942BA
:102E700075DCA14274DCA94273DCE62972DCB4295A
:102E800071DC822970DC50296FDC9FE03229EADB9B
:102E9000914263DC994262DCA14261DCA94260DCC0
:102EA000E6295FDCB4297CDC822976DC8EE03229DD
:102EB000D9DB64296DDB914250DC99424FDCA142A1
:102EC0007BDCA94275DCE6296FDCB42969DC7DE096
:102ED0003229C8DB64295CDB96295EDB914274DC15
:102EE000994270DCA14268DCA94262DCE6295CDC24
:102EF0006CE03229B7DB64294BDB96294DDBB42922
:102F00004FDB914261DC99425DDCA14255DCA94274
:102F10004FDC5BE03229A6DB64293ADB96293CDBF7
:102F2000B4293EDBFA2940DB91424EDC99424ADC6F
:102F3000A14242DC4AE0322995DB642929DB96294B
:102F40002BDBB4292DDBFA292FDBA14231DB9142A7
:102F50003BDC994237DC39E008E018E035E032E04C
:102F60002BE026E021E01CE017E012E032298EDBA6
:102F700064290EDB962910DBB42912DBFA2914DB55
:102F8000A14216DB994218DB91421EDC1EE0642947
:102F900001DA01201AE0962901DA022016E0B429AC
:102FA00001DA032012E0FA2901DA04200EE0A1423E
:102FB00001DA05200AE0994201DA062006E0FF2046
:102FC000C330814201DA072000E008208849887672
:102FD00030BD014600B5FF220020F5320B0003F0A2
:102FE000C3F90906090C0F121214141408004B201F
:102FF000000100BD1920400100BDAF20800000BDD0
:103000004B20C00000BD104600BD142000BD38B5E7
:10301000044602F085FE00906846002201210078F7
:10302000022C06D801280ED06846C170417001708C
:1030300005E0002807D06846C170427002708270B7
:10304000009802F083FE38BD70B56A4CFF232178EA
:1030500001227D330225002904D001290ED0022946
:1030600013D01BE00146FF266F390E36B14210D94E
:10307000984201DD65700EE001200DE09842F9DC18
:10308000322808DA00206070F6E7FF211E318842FE
:1030900001DA627002E0032002F0F2F8607820703A
:1030A00070BDF7B552480024C07E86B0782802D2A1
:1030B0004F49401CC8760020FEF78AFC05460120D7
:1030C000FEF786FC07460220FEF782FC04900320F0
:1030D000FEF77EFC0646FEF701FC0498029001977D
:1030E000009503966846FFF7CFFDFFF74CFA414E77
:1030F000F179884204D000203072FFF744FAF07171
:10310000FFF741FAF179884202D1307A022804D2DD
:10311000F0680190307A401C02E001970220F760CD
:103120003072019F02F0ADF90A21049002F06EFFA7
:10313000049942182E4920310591BA4211DA2C48DF
:10314000008CFF38F53800B202F038FD2848407F87
:1031500002F0CEFE0599012088700020FFF710FADA
:1031600031E00499081AB8422DDDB079401CC0B294
:10317000B071082810D30599002088700120FFF74E
:10318000FFF90020B0711A492020085E02F016FDF8
:103190001748807F02F0ACFEFFF77BF8144989687E
:1031A000411A1548814202D8B07800280ED0FFF7A6
:1031B00070F80F498968411A0F4881426FD9B07879
:1031C00000286ED097E00020B071E5E7084C0B4F67
:1031D000E07E08282BD00A48854202DD207D0228A7
:1031E00004D0BD4236DD207D022833D0207C09E0AA
:1031F000980D0020BC0C0020881300004C1D00001E
:103200006419000003283AD00120FEF75DF902207E
:10321000FFF751F8012002F055FD02F0AEFE082044
:10322000FFF749F80120B070E07E207727E0606862
:10323000A84201DD01200BE07D204001854201DD37
:10324000022005E0F648F74928188842F2D9002004
:10325000207514E0FFF71DF8A168401A7D210901CF
:1032600088420CD9207D022809D00020FEF72CF9D5
:10327000002002F027FD0020EB49C043C861781B05
:1032800000B2C117C90E081844117F2C01DD7F243C
:10329000B9E07F20C043844200DA0446B3E02CE06A
:1032A000FFE7E248007D022802D0012802D018E0A2
:1032B000DF4800E0DF48854213DD0120FEF704F916
:1032C0000220FEF7F8FF012002F0FCFC02F055FEA0
:1032D0000820FEF7F0FF0120B070D448C17E0177CE
:1032E00009E00020FEF7F0F8002002F0EBFC0020DF
:1032F000CD49C043C8610120F07039467079FFF7AD
:1033000093FD7071FFF783FE3846FFF79DFEC748B7
:10331000C17E007F401D814205D9C4480621017449
:103320007921017703E0C148007C06285BD102F0D7
:103330008CFA002811D0022002F0FEF902F08EFA79
:10334000002823D002F03EFA044602F057FA201A71
:1033500004B2322C42DD322445E0012002F0ECF9C7
:1033600002F07CFA002805D002F041FA044602F08F
:103370004CFAECE702F085F8044602F007FA201850
:1033800084B2204602F026FAE01BE1E702F06EF874
:1033900004B27079FFF71DFE049002F0EAF9A44927
:1033A0008C4201DC052200E00A22A0490A7004993F
:1033B0006118081884B2204602F0F5F9322F06DAB7
:1033C000601B00B2C117490E0818C411C1E7601B89
:1033D00000B2C117C90E08184411BAE73120C04322
:1033E000844200DA0446707906280CD8A01E3028E2
:1033F00001D8641E04E020463230312802D2641C19
:1034000024B200E00024894F387C062801D0062031
:1034100030710B21307902F0F9FD0A2919D0069894
:10342000007851280ED00420FFF775FC012812D037
:103430000120FFF770FC012815D00220FFF76BFC7C
:10344000012818D003253079411C31710B281CD07C
:103450001DE00425F7E7052500210420FFF763FCA4
:10346000002102200EE0282500210120FFF75BFC4F
:103470000021062006E0022500212846FFF753FC24
:103480000021032001F07BFFDDE700203071FFF712
:1034900064FC802101280AD0F2783720002A03D06A
:1034A000052C01DA621D02DC0799086001E007982B
:1034B000016008990020086006980078282804D048
:1034C000032806D0282804D009E0069840780C2864
:1034D00002D0387C032802D10120FEF7C9F80698F3
:1034E0000321017006984470284609B0F0BDF7B575
:1034F00088B00020FEF76CFA06460120FEF768FA55
:1035000005460220FEF764FA04460320FEF760FA3F
:103510000746FEF7E3F902A805970296039504947F
:10352000FFF7B2FB414C2946A07EFFF77DFC1A2035
:103530002178205601AB6A4602F089F86846007887
:1035400002F08BFE07466846007902F086FE0521F0
:103550000690C943384602F069FE7F21C90502F092
:1035600091FD07463449069802F0E5FD334902F023
:1035700089FD0690207802F070FE0790284602F040
:1035800061FE2F4D294602F013FE0446304602F03C
:1035900059FE294602F00CFE394602F0CCFD2146C8
:1035A00002F0C9FD069902F06DFD072102F03EFE12
:1035B000079902F0FDFD3F21090602F063FD02F0CC
:1035C00053FE00B2FF2801DDFF2002E0002800DAF0
:1035D0000020089904220A700899487009987D21F2
:1035E00001600A980021016003200BB0F0BD70B5A6
:1035F0000446052015460E46207001F068FF6070F5
:10360000C820306000202860032070BD06230370AE
:1036100064234370322008600020106051207047FE
:1036200047F4FFFFE7030000001000F0980D0020B2
:103630007C150000641900008FC2753C3333F3BF62
:1036400000007A4407230370AA23437000200B6014
:103650001060184670470923037000234370AA20A6
:1036600008601360704710B520230370437800246E
:10367000002B0CD0012B0CD0022B0DD0032B0DD026
:103680004470AA2383700B601846146010BD012398
:1036900000E002234370F4E70323FBE70423F9E788
:1036A00022230370AA234370837000200B601060F4
:1036B0001846704718230370FF234370FC4B187C97
:1036C000012805D0042803D0D87C022808D009E0BE
:1036D000987C012802D00220187403E00520FBE743
:1036E0000320D874462303200B600021116070472B
:1036F000F7B582B004460F46684601F0FCFE684606
:103700000078207068464078607068468078A070C5
:103710006846C078E0706846007920716846407954
:103720006071462038606078032601220025E04958
:10373000092830D007DC030002F016FE072D242DE7
:103740002D2D2D1D2D000C2805D024DD0D2822D077
:10375000182820D11DE0087C022801D0062807D1B6
:103760000D764D76CD75032008748A74C87E08776F
:10377000802038600FE0A0782C280CD10120FFF7C2
:10378000EFFA08E0087C022801D0062803D1CA74A9
:1037900001E002F0F2FB04980560304605B0F0BD90
:1037A00031230370AA238370C37046200860002071
:1037B00010603120704710B5512303700A23437005
:1037C00000238370C3708224047143714620086013
:1037D00001201360FDF75AFF032010BD542303702E
:1037E000AA2343708370C37003714371462008603D
:1037F000002010601846704755230370AA234370B9
:103800008370C3700371437146200860002010600C
:103810001846704770B515460E460446FFF7A7FADE
:1038200071212170122161700021A1704222E27089
:1038300064222271020C6271020AA271E07121728B
:103840006172A172601D02F012F82079000601D5A4
:10385000812000E05120412131600721296070BDA5
:1038600081230370002343708370C370037143711D
:103870008371C37103724320086006201360704790
:10388000F0B58B4C85B00520207000252574E574BB
:103890006574A57465762576E576E5756575257597
:1038A0002577A57602F07BF9208402F01DFB607776
:1038B00002F030FBA077607F02F01AFB002002F0DC
:1038C0000AFB012002F01DFB0020FFF749FA0F263A
:1038D000012408273046FDF722FE3046FDF731FE71
:1038E0007449200308600121102001F014FD01211A
:1038F000082001F010FD0121042001F00CFD012140
:10390000C80301F008FDFDF702FFC008C000A104D4
:10391000401C0843049004A8FDF7F5FE902168467A
:103920000170447006218170C77007714471C571C0
:10393000FDF71FFE0321684601721F214172847248
:10394000C47202A8FDF76CFEC32001F05DFC0620E6
:1039500001F08CFC01F00FFE574801F098FD0120AA
:1039600002F0FAF8C02002F012F9012001F088FC00
:103970000321072001F0A4FC0120FDF763FD01F005
:1039800075FD01F010FF002001F053FF012001F050
:1039900044FF022001F0D0FE0020FEF7F1FD02F00E
:1039A00055FA6846447304738573C473039802F030
:1039B000CDF9F3E6F8B53E4F0546387C3C46443435
:1039C0000026030002F0D0FC0604A9A936A99FA98D
:1039D0000220FEF770FC0120FDF7C2FD3448C17DD6
:1039E000491CC175FEF755FC07460AE0FEF751FC7D
:1039F000C01B502805D3207A002807D0E079012881
:103A00000CD0FEF746FCC01BC828EFD92848C17D62
:103A100003293AD34674012101746AE02448243012
:103A2000017F0229F2D1407F002801D00128EDD189
:103A30001F48EFE70220FEF73EFC0120FDF790FD56
:103A40001B48C17D491CC175FEF723FC07460AE0EF
:103A5000FEF71FFCC01BA02805D3207A002807D042
:103A6000E079012815D0FEF714FCC01BC828EFD957
:103A70000F49C87D032808D3487C01283FD000287F
:103A80003DD08E7406200874CE750020FDF768FDC9
:103A900047E0207A02281DD305482430017F0229FF
:103AA00018D1407F012809D000280ED012E0000074
:103AB000980D002000E100E0DC050000F74801213E
:103AC0004174017E491C017604E0F4484674417E4D
:103AD000491C4176F148017E022904D30421017476
:103AE0000121417405E0417E022905D304210174BE
:103AF0004674C6751825C8E703210174B8E7042089
:103B000008741825C0E7797C0022022002F083F9AE
:103B10000620BE743874032506E0FDF7B2FD1F28A9
:103B200002D01F20FDF7A4FD2846F8BDF8B50646D3
:103B3000DA48C07C01280BD0022801D0032835D0F8
:103B4000FDF79FFD1F283AD01F20FDF791FD36E0BD
:103B50000220FEF7B0FB0120FDF702FDFEF799FB06
:103B6000CE4F054624373C4620340DE0FEF791FB4E
:103B7000401B502808D3207A00280AD0E079012879
:103B800002D1387F012808D0FEF783FB401BC828EC
:103B9000ECD90020FDF7E4FCD6E7C048797F4175F9
:103BA000B97F81750221C1741826F2E7BB4C012050
:103BB000A27D617D02F02FF90020E07403263046DB
:103BC000F8BD86B0FFF75CFEFEF763FBB349886083
:103BD000FEF75FFB0446FEF75CFB001B022805D8DE
:103BE000FF200130FDF764FD0128F4D11420FEF719
:103BF00062FB0125FEF74DFBA9490020C2008A5C4B
:103C0000AA4209D1C00040184368A44804AA02A9E6
:103C100024309847054603E0401C80B21228EDD3BB
:103C20009E4E24363078202801D201211AE08028C7
:103C300007D201462039CA17120F51180911891CE1
:103C400010E0E02807D201468039CA17520F5118F8
:103C5000C910083106E00146E039CA17920F511821
:103C600089101431CAB28D4972752531B163B075AE
:103C7000002006E0B37D0C78491C6340B375401CFE
:103C8000B1638242F6DC854800272730B063F775C0
:103C900037761930F063001DC7710772FDF72FFDED
:103CA000019030786946087170784871B0788871F1
:103CB000B07DC87101A8FDF71EFDFDF728FD1F218D
:103CC00049028843717DC906890C0843FF210131EF
:103CD0000843039003A8FDF716FDFEF7DAFA044641
:103CE000FEF7D7FA001BC82802D8307E0128F7D18A
:103CF0003776FEF7CEFA0746307802280ED0032832
:103D00000FD0052802D028281CD102E00021022073
:103D100001E00021062001F032FB13E00021032026
:103D2000F9E72846FFF746FEFFF700FF0546FEF7D6
:103D3000B0FA0299001B884204D9FEF7AAFA001BC8
:103D4000C01D02900498FEF7B6FA00261D20FDF76C
:103D50008FFC3FE0032D01D0042D3BD1FEF799FAF3
:103D6000C01B192836D9FEF794FA011B0298401F90
:103D7000814206D801210802FDF7D4FBFDF7DAFDE8
:103D800028E0FEF786FA011B0298801E814221D8A6
:103D9000002E19D10220FDF76BFC0020FDF718FE64
:103DA00006460220FDF714FE01463C48203080788C
:103DB000012808D039482022825E0092837F427F0A
:103DC0003046FEF7E3FB012601210802FDF7AAFBBE
:103DD000FDF7CBFDFEF75DFA0299001B8842B9D9C9
:103DE0000120FEF798FF012800D003E728250021D5
:103DF000FEF799FF0021062001F0C1FAFAE638B576
:103E00000446FDF77CFC00902649E00701D0012024
:103E10000876A0070FD5C87D6B46401CC875C00743
:103E2000886B027801D05A7000E09A70401C886359
:103E30001846FDF760FC38BD1FB5044602A8FDF723
:103E40003FFC0399019102981649009060072031C8
:103E5000002847DA68460079124B002809D01D284F
:103E600033D0487A0A7A401C8242684631D10078C1
:103E700030E068468278D86B0270D86B401CD863FB
:103E8000202A01D201221EE0802A0DD2203AD0172A
:103E9000000F80180211921C15E00000980D002000
:103EA000A0630000BC0D0020E02A06D2803AD017A3
:103EB000400F8018C210083205E0E03AD017800F9A
:103EC0008018821014324A7209E06846807848717E
:103ED00005E04078DA6B1070D86B401CD863087A24
:103EE000401C0872200708D56846C078002805D015
:103EF00000228A7188720120C8711FBD0122F8E773
:103F000070B50646FF480D460721036849068B43F6
:103F1000012109060B4314460360FDF7F4FB002062
:103F200030742060F8482860022070BD70B5F54BF1
:103F30000D460646072118684906884303214906AD
:103F40004018186014461846FDF7DDFB0020307459
:103F500020607D2000012860042070BDFF23EB4A13
:103F60007D33002808D0012812D0FF231E330228F9
:103F700017D05F290EDB1BE0914201DD0320704763
:103F8000994201DD02207047BE29FCDD0120704707
:103F90005F2901DA002070479142EFDC9942F1DCA1
:103FA00070475F29F6DB9942F0DB9142E6DC70470F
:103FB0009942EBDBFF20C3308142E3DBDEE7F8B55B
:103FC0000027012604460D46002804D0012C08D005
:103FD000022C17D01FE0BE2D01DD012424E00020BB
:103FE00017E0FF207D30854201DD022410E05F29CB
:103FF00004DA0024204601F043F90EE0032001F02A
:104000003FF911E0FF201E30854201DA012402E071
:10401000032001F035F95F2D06DA6946CE708F7006
:10402000032048700E7005E06946CE708F70032043
:1040300048700F70009801F089FE2046F8BDF7B572
:10404000B04F82B0083FB8790D4600280AD1012050
:10405000FDF73AFA0220FEF72EF9012001F032FEB8
:104060000120B8710020FDF755FB04460120FDF743
:1040700051FB0090FEF70DF93969A24E411A7D20DF
:104080000001814203D2A248201804B233E03878FC
:104090000099FFF763FF387003283CD00020FEF73B
:1040A0006FFA3878002838D0012839D002283AD061
:1040B0002821019178780099FFF781FF7870CF204F
:1040C00001F0A2F8072001F0D1F807213068490576
:1040D0008843052149054018306001F04AFB0090F3
:1040E00001F0C4F90199411800980818211A0CB27E
:1040F00080B201F058FB20463B30772800D20024E4
:1041000020464A30952810D2B87805280DD2401C98
:10411000B87000240BE00120C1E74B210901C8E77A
:10412000AF218900C5E78021C3E70020B870384679
:10413000FA787D230727DB007F061E2A02D2017949
:10414000322902D30121417130E0002C13DA714988
:104150008C4201DC2B6009E06C4963316118F9295C
:1041600002D8FF21F53100E0FA212960521CC2700B
:104170003068B84329E0002C18DD644A6432944268
:1041800002DB7D22920108E0FF3CF53CFA2C02D2D2
:104190007D22520101E07D221201491C2A60017139
:1041A00030680121B843490640180EE000212B6019
:1041B000C17001714279012A02D1574A2A604171C6
:1041C00031680320B9434006081830604D48FDF7B8
:1041D0009AFA0220FEF79FFD002801D0052500E095
:1041E00003254E4C0020A07101212020FDF79AF9F3
:1041F00001212020FDF7A8F9A0790028FCD0306823
:104200000321B8434906401830603E48FDF77BFA69
:1042100004990020086002990874284605B0F0BD92
:1042200000230370AA23437010238370B423C37048
:10423000992303714C23437128238371FF23C37196
:10424000DD23037244234372F32383720B2303742D
:10425000142010602C4808600320704770B5064693
:10426000284814460D46072201685206914303224E
:10427000920689180160FDF746FA00233374236023
:1042800005202B6070BDF0B51921490185B048109B
:10429000FDF728F90520FDF732F90020FDF738F980
:1042A000902480252046FDF73AF92046FDF749F98C
:1042B00001241B4920030860FEF704F8FDF727FAE4
:1042C0001049E20408398860C008C000801C10430F
:1042D000072252050831104308600846FDF713FA1B
:1042E0000327684607731F2141738473C47303A8AF
:1042F000FDF796F9304628434E210843204300F04D
:1043000083FF0FE0D40C0020307500008A0200000B
:10431000D8DCFFFF12FDFFFF50C300001C0E002081
:1043200000E100E0072000F0A1FF042001F0DAFC2A
:10433000042001F0E0FC012001F0E3FD00266846C6
:104340000096067145718571C57101F0BDF90120B6
:1043500001F002FC0020FEF713F9032000F090FFAB
:104360000321072000F0ACFF0120FDF76BF8684641
:10437000C472867247720472029801F0E7FC01F081
:1043800075F801F010FA49E71CB5FDF7C0F9454C86
:10439000A060FDF7B4F9E060FFF775FFFDF779FF66
:1043A0000125414E2061FDF7AAFF04463F48002148
:1043B000CA00825CAA4208D1C9000818436801AA51
:1043C000694639489847054603E0491C89B20529E2
:1043D000EED3307C00282CD03348801CB062002003
:1043E0007074B07431782F480C30417071788170DE
:1043F000FDF781F9307C2B4A010708321068000173
:10440000000908430721490688430121890640180D
:1044100010601046FDF777F9FDF73BFF0746FDF703
:1044200038FFC01BC82802D8B07C0128F7D1002073
:10443000B0740198FDF73FFFFDF761FF071B00987F
:10444000FDF760FF8742F7D9ADE770B50446C106B6
:104450000120154D002900DAA874A1060AD51249D9
:104460002031887100212020FDF76EF801212020E5
:10447000FDF758F8200613D5687C401C6874687CEA
:104480000B49C007A86A04D0421CAA620078487091
:1044900003E0421CAA62007888700548FDF72BF9FA
:1044A00070BD0000CC0C0020FC0D0020306400002A
:1044B000D80C002030B5FA4A002351780224142980
:1044C00002D3537093702FE0F54DED1C4855507892
:1044D000401CC1B2517001291DD1D078202801D2D1
:1044E000032017E0802806D22038C5172D0F281882
:1044F0000011001D0EE0E02806D28038C5176D0FB0
:104500002818C0100A3005E0E038C517AD0F28188C
:104510008010163090701078002801D0012804D146
:104520009078814201D15370147030BDDC4800781E
:104530007047DB4880787047D948C0787047D848C2
:10454000C01C704770B50446FDF7A3FED449002592
:104550007839C865D24861785838044601724034C9
:10456000E079012811D00020FDF72EFC20462038EC
:10457000057465702570A570E570257465746572A5
:10458000202001F0FCF9022070BD2572012060722C
:104590000020FDF723FC002070BD70B50446FDF738
:1045A00078FEBF4D783D68652946607820314872B5
:1045B00000F098FF2C46A86C6034002805D12078C4
:1045C000401CC0B2207001F0B8F9207C012801D055
:1045D000032070BD012001F0ABFC0020FDF7FEFBC5
:1045E000002070BDAE487838806CC0B2704738B5D6
:1045F0000446FDF74EFEAA4A783A5065916C0A29A6
:1046000001D2491C91646078A54C583CA072906C12
:1046100001280DD1204640300178032912D3002112
:104620000174684601F07FF903216846FDF743FDF8
:10463000FDF750FD0A20205600F0D2FC01280ED0D4
:10464000032038BD0121017400F0BCFDFF2000F003
:10465000DBFD00223C21934801F015FAEAE7002037
:1046600038BDF8B58E4C0746183C207C002849D14F
:1046700001F058FA2546603D0126B8421EDC607BF9
:1046800001280FD06673FDF704FE2862A07B002886
:1046900010D0FDF7FEFD696A411A8348814224D893
:1046A000A6732FE0FDF7F5FD296A401A7F4988427D
:1046B0001BD8EBE7FDF7EDFD6862F1E701F036FA94
:1046C00001463846002781421ADCA07B012805D02C
:1046D000A673FDF7DEFD6862677313E0FDF7D9FD91
:1046E000696A411A70488142F6D9E672012001F0E8
:1046F00028FC012001F0A2FAFDF79BFB0120F8BD88
:104700006773A7730020F8BDF0B5654D87B040789A
:10471000583D0027E872FDF7BCFD29462039486561
:104720000C4601206034E0700520FDF7C4FDFDF764
:10473000B0FD064601E0FDF727F9FDF7AAFD801B55
:104740000328F8D30120FDF743F904900020FDF77A
:104750003FF906900220FDF73BF906460320FDF7DE
:1047600037F90590FDF7BAF8069800900498019083
:104770000598039002966846FEF786FA0498FFF7BC
:1047800070FF01280AD00499304648437D21C900B2
:1047900001F052FC217C012903D00DE0002007B07C
:1047A000F0BD43498E4207DDE97AEA7B51437D2221
:1047B000D2005143090A471A7D20000187420FDDCC
:1047C000E07B401CC0B2E07303280BD30120E072F1
:1047D00001F0B7FB012001F031FAFDF72AFBDDE71C
:1047E0000020E0730320DAE710B52D4942785839EC
:1047F0000A734178642903D18278052001F00BFB0C
:10480000032010BD2649407858394873052801D344
:10481000CD2801D9002070470220704710B504460A
:10482000FDF737FD1E497839486540310A7C1C4840
:10483000521C0A7400211838017061780022182077
:1048400001F0E9FA032010BD70B586B00446FDF70B
:1048500020FD1349124D7839486560780221183DD2
:1048600001280AD00122182824D0002619282BD08C
:104870000E2838D00C283DD053E0A078002850D125
:104880006878401CC0B26870012801D9697048E09E
:1048900004A801F048F8032104A8FDF70CFC40E04F
:1048A000A80E00204C040000C0D40100B80B00008A
:1048B00070170000A078012833D1EA7101F0BEF929
:1048C0000020FDF78BFA0BE0A078FF2829D100200B
:1048D000FDF784FA2E73A2786178282001F09BFA04
:1048E000002006B070BDA07855281AD0702818D1C5
:1048F0006A7416E0A078002813D16A4611725672C5
:1049000002A800F00DFE684600F0F5FD6A4610783A
:1049100051784840907003216846FDF7CCFBFDF7C5
:10492000D9FBA2786178282001F075FA0320D8E736
:1049300010B541788A09FA498A7342789206920E34
:10494000CA738278D2090A7482785207520F4A7465
:104950000279D2088A7400794007400FC874012098
:1049600001F0E6FA032010BD10B541780A09EC49C0
:104970000A7542781207120F4A7581780A02E849CF
:104980002039CA86C378D218CA86027912068A6389
:1049900043791B04D2188A6383791B02D2188A6375
:1049A000C379D2188A6301F099F8022010BD70B55E
:1049B000417800220B06DA4920394B640A64847876
:1049C000250494186B410C644B64C5782D02A4181F
:1049D0006B410C644B640579A4186B410C644B6407
:1049E0004679350A3606A4196B410C644B64867906
:1049F000350C3604A4196B410C644B64C679350E32
:104A00003602A4196B410C644B64007A20185341A0
:104A10004B640864022070BDC14910B540318872F2
:104A2000012801D101F0A0FA10BDFEB5BC48002557
:104A3000203805702030044645724034E5712572F7
:104A40000320694608700F20487001208870C870E4
:104A50006846FCF7E5FD012001F07EF80020FDF737
:104A60008FFD012001F037FA012001F016FAAD4860
:104A7000C16B032212029143C163C16B01229202F6
:104A80001143C163C26B0121C9028A43C263C26B75
:104A900049008A43C263C16B01267603B143C163F7
:104AA000C16B72009143C163C16B5700B943C163CD
:104AB00001F036F969460190CD71019801F046F98F
:104AC000072069460872487202A801F0C1F8FDF794
:104AD000B0F94B21E120C900800001F017F82574DE
:104AE00000F070FBCF2000F08FFB8F4800F095FCAA
:104AF00000223C218D4800F0C6FF0120FCF7A2FCFB
:104B0000022001F0B6F9012001F0D1F9072001F0EF
:104B1000D8F9012001F0B7F98348323800F027FFB7
:104B2000202000F02CFF80481E3800F010FF7F4846
:104B30000A3000F014FF0F2001F05CFA722101200E
:104B400000F0E3FE552000F090FF0121384600F010
:104B5000E2FB0121022000F0DEFB0121080300F04E
:104B6000DAFB0121202000F0D6FB0121C80200F071
:104B7000D2FB0121304600F0CEFBFDF779FA002090
:104B800000F0EAFF0120FDF73FFA01220D21C901E3
:104B90001046FDF706FA0120FDF716F90020FFF791
:104BA0003BFF2573FDF74EFBFDF758FB6573A573BF
:104BB000E5726420FDF77FFBFEBD59484030807AE6
:104BC0007047F8B500F0D9F9554E0127203EB7706F
:104BD000FCF7CDFF0020FDF701F934466034E079A1
:104BE0000025012804D0002000F0B6FFFA200EE0D6
:104BF000207A401CC0B22072022804D9E5712572C7
:104C0000012001F01BF800F039FF40002838FDF7C3
:104C100052FB6573A573A07A002809D1E07A0028B9
:104C200006D13F48407A032802D00120FDF7D6F88C
:104C3000FCF754FE002000F097F97570B770384803
:104C4000B564E573583045700570FDF722FB706060
:104C5000002000F072FE0120F8BDF8B5304D0027AD
:104C6000203D68782E462C4678366034012828D0BE
:104C7000FDF70FFB6968401A782801D96F701EE0B4
:104C80003078002808D0FDF704FBE860FDF701FB51
:104C9000A8600120687024E0E079012802D1607AE0
:104CA000012820D0FDF7F5FA6968401A642818D960
:104CB000E079012815D16F700020FDF78FF80020F2
:104CC000F8BDE079012802D1607A01280BD0FDF708
:104CD000E0FAA968401A1428D0D831783046022961
:104CE00004D00120F8BD27726772E5E76F70077086
:104CF000C37800240E4A2146CE00965D9E4206D11E
:104D0000C90089184968C01C8847044603E0491C4B
:104D100089B20B29F0D3FDF7BCFA68612046F8BDD3
:104D2000500E0020005100F0DC0500004C04000093
:104D300058640000F8B5884C002660782546783520
:104D4000012818D0A078012806D1FDF7A2FAE16861
:104D5000401AC82817D8A6702878002819D0FDF75F
:104D600098FAA061FDF795FAE061FDF792FA2061EB
:104D70000120607012E0FDF78CFA2169401AFF21D2
:104D8000F531884202D966700020C8E728780228E9
:104D900006D0FDF77EFA606500F009F90220BEE753
:104DA00066702E70EB7800206C4A0146CF00D75D0C
:104DB0009F4205D1E81CC90089184968884703E06B
:104DC000491C89B20B29F1D36670A8E7F8B5624F88
:104DD0006037F879012833D05F4D002468782E467B
:104DE0007836012848D0FDF754FA696D411AFF2042
:104DF0002D30814209D9FDF74CFA6865012000F099
:104E0000B3F8FDF746FAA86539E0FDF742FAA9695B
:104E1000401AE121C900884207D96C70012001F0D5
:104E200087F80020FCF7DAFF0AE0F878012809D0BB
:104E3000FDF72FFAE969401A4949884209D96C708F
:104E400000206CE7FDF725FAE969401A45498842D8
:104E5000E3D83078002812D0F078032802D0042854
:104E600004D006E0FDF715FAA86102E0FDF711FA9B
:104E7000E8610120687002E03078022801D0032048
:104E80004DE76C703470F3780020344A0146CF004F
:104E9000D75D9F4205D1F01CC90089184968884731
:104EA00003E0491C89B20B29F1D36C7037E72A481B
:104EB0006030C079704728496031C8717047264911
:104EC000603148727047244800787047224860304B
:104ED000C07A704720486030407C70471CB5FFF7AF
:104EE000A4FD1D4C2078012806D002280DD00328EF
:104EF0000ED0FFF766FE01E0FFF7AFFE2070012045
:104F0000FDF709FF012806D016E0FFF713FFF5E7CC
:104F1000FFF75CFFF2E700210120FDF704FF684680
:104F200000F0E9FA6946087849784840694688708F
:104F300003216846FDF7BFF800F013FA0028D1D12D
:104F40000121102000F02EFF012000F077FE00F07C
:104F500008FA0328FBD1C5E7300E00205864000092
:104F600010270000AC0D000093490870487070478E
:104F700091484038008B00B270478F49002040397B
:104F800088620863C8610862FF234862F5334B6199
:104F90000122CA62C860FF23C33308608B61886046
:104FA000203108752031C8708A70087170478249B5
:104FB000FF20F5304039C8637F4801212038017552
:104FC00070477D4910B50246403908684A6003467B
:104FD0005043C417640E2018C4111819C86310BDBB
:104FE000F1B588B0002668460670FFF7FBFA002886
:104FF00004D0FDF759F8002802D0002009B0F0BD18
:105000000820FDF758F9FDF744F96C4D286001E0E0
:10501000FCF7BAFCFDF73DF92968401A0328F7D3DD
:105020000120FCF7D5FC64490446403908600020A3
:10503000FCF7CEFC07900220FCF7CAFC07460320D1
:10504000FCF7C6FC0090FCF749FC079803A991C146
:105050000098069003A8FDF717FE5948874226DD01
:10506000FFF738FF012867D0534801220179022356
:105070000327002906D0012913D0022941D0032992
:105080004BD014E0FF2141318C424CDAFF217331C7
:105090008C4201DB03714DE0FF21A5318C423ADAED
:1050A00002E0F02C24DC0671462000F068FC20466B
:1050B000FFF7D7FA0128A1D00898FFF782FF01A8CF
:1050C00000F0FDFC6946888889794843642100F036
:1050D0009DFF064600F0A8F9374C00B2403C21681D
:1050E000814203DA68468088884227DC401A2CE037
:1050F000FF2173318C42CDDAFF21A5318C420ADACF
:1051000012E0F02CCFDDFF2123318C420BDDFF219B
:10511000A5318C420EDB07710CE0F02CC3DDFF21C2
:1051200023318C4202DC02714120BEE7FF21553160
:105130008C42AFDD2020B8E72820B6E7E06BB14213
:10514000D4DB401AC10F081840106168002900D153
:10515000002081004018C0100090FCF7D2FD05200F
:10516000FDF7A9F8FDF795F8286001E0FCF70CFCC5
:10517000FDF78FF82968401A0428F7D30120FCF7BF
:1051800027FC064620600020FCF722FC0746022090
:10519000FCF71EFC04460320FCF71AFC0546FCF74E
:1051A0009DFB03A80397049606950594FDF76CFDF7
:1051B000FCF794FB21E70000000F0020E00C00202A
:1051C00070170000FE48816A490849008162816ABF
:1051D000022291438162816A042291438162816A41
:1051E000082291438162816A102291438162816A1F
:1051F000202291438162816A402291438162816AC7
:105200008022914381627047ED49C20703D08A6AC8
:1052100001231A438A62820703D58A6A02231A434A
:105220008A62420703D58A6A04231A438A62020704
:1052300003D58A6A08231A438A62C20603D58A6A9A
:1052400010231A438A62820603D58A6A20231A43EE
:105250008A62420603D58A6A40231A438A62C009D9
:1052600003D0886A8022104388627047D44A916ACA
:1052700007231B0440079943400B01439162704789
:10528000CF4AD16AC02380079943000E0143D162FF
:10529000704770B5CB4B81071A780025C84CC026E3
:1052A000090E904205D05A78042A02D2521C5A7034
:1052B00070BDE26AB2430A43E2625D70187070BD6D
:1052C00010B5BF4AD36A06248907A343490F0B438D
:1052D000D362D16A182380079943C00E0143D1627B
:1052E00010BD10B5B64A536A032464068907A34368
:1052F00049090B435362516AA30080079943C008D0
:105300000143516210BDAE494A6A52005208C007BB
:1053100002434A62704708B5A94B403B5A6A009263
:10532000012902D0002902D004E0024300E08243B8
:10533000684602800098586208BD08B5A04B403B03
:105340005A6A0092012902D0002903D006E0110C0C
:10535000014301E0110C8143684641800098586286
:1053600008BD9748806A0004000E704794498A6A15
:10537000FF231B029A43000202438A62704710B562
:10538000CA078F4CD20F030000F0EEFF0805300B68
:1053900011171D232937E06801214905884351056C
:1053A00029E0E068012109058843110523E0E06850
:1053B0000121C9048843D1041DE0E068012189046A
:1053C0008843910417E0E0680121490488435104AF
:1053D00011E0E06801210904884311040BE0E06852
:1053E000012252069043C907890904E0E0680121BF
:1053F000C9058843D1050843E06010BD70494039B4
:10540000CA6B120C12040243CA6370476C490A68E3
:10541000120C120402430A60704769490A680004CA
:1054200092B202430A60704765480068000C7047FA
:1054300063494A68120C120402434A60704760498B
:105440004A68000492B202434A6070475E4A10B54F
:105450001421801800F0F0FD80058109584840387B
:10546000C26B5A4B1A401143C16310BD54484038B7
:10547000C06B14218001800D4843534949424018B4
:1054800070474F48C0683221C0B24843704710B5DA
:10549000322100F0BBFDC1B24948C268120A1202B3
:1054A0001143C16010BD464940398A6AD200D20812
:1054B000400702438A627047414A403A916A0F238B
:1054C0001B060007994300090143916270473C485D
:1054D0004038806B0002000E704739484038806BBE
:1054E000000E7047364940398A6B1202120A0006D4
:1054F00002438A63704732490A6902700A691204DA
:10550000120E42700A691202120E82700A69120E9D
:10551000C2704A69027149690904090E41717047F4
:1055200010B527490A690378120A12021A430A6160
:105530000A69FF231B0244789A43240222430A612A
:105540000A691C02A2438478240422430A610A697E
:10555000C4781202120A240622430A614A690479B5
:10556000120A120222434A614A6940799A430002B0
:1055700002434A6110BD70B51148016B090A090266
:1055800023310163036BFF21090249228B4352023D
:105590009B180363046B0B0223259C432D046419A1
:1055A0000463046B25022D0A14042D190563456B51
:1055B0002D0A2D0223354563456B8D43AD1807E059
:1055C000405000F0E40C002018F7FFFFFFFF00FC44
:1055D0004563456B13269D433604AD194563456B02
:1055E0002D022D0A2D194563856B2D0A2D021335C9
:1055F0008563856B8D43AD188563856B01269D435F
:105600003605AD198563856B2D022D0A2D1985632D
:10561000C56B2D0A2D021035C563C56B8D43AD18C2
:10562000C563C56B9D4303239B04EB18C363C36B26
:105630001B021B0A1B19C363FA4803681B0A1B02DF
:105640002033036003688B439918016070BD10B567
:10565000F44C1946403C030000F086FE09060A108F
:10566000151B1F2529310600206B1070206B08E0E8
:10567000206B0002000E1070206B1DE0606B10703C
:10568000606B000418E0606B0002000E1070606B2D
:1056900012E0A06B1070A06BF3E7A06B0002000E8D
:1056A0001070A06B08E0E06B1070E06BE9E7E06B56
:1056B0000002000E1070E06B000E087010BDD9489B
:1056C000036813700068DCE730B5D6494A68037890
:1056D000120A12021A434A604A68FF2424024378DD
:1056E000A2431B021A434A604B6822028578934307
:1056F0002D042B434B604B68C5781B021B0A2D06FB
:105700002B434B608B6805791B0A1B022B438B6074
:105710008B68A3434479240223438B608B689343B3
:105720008279120413438B608A68C0791202120ACC
:10573000000602438A6030BDBA4901230222803943
:10574000002806D0012807D00228886A0AD098438A
:1057500004E0886A184307E0886A18438862886A08
:10576000904304E0400840008862886A10438862E1
:105770007047AC4810B58038806BAB49001240B21E
:105780004843AA4900F058FC00B210BDA54810B526
:105790004038C068A449001240B24843A34900F011
:1057A0004BFC00B210BD10B5322100F02FFC0006FA
:1057B000010A9C488038026BFF231B049A43114363
:1057C000016310BD97488038006B32210002000E43
:1057D0004843704710B5322100F018FCC1B291481F
:1057E0008038026B120A12021143016310BD8D480A
:1057F0008038006B3221C0B24843704789488038F6
:10580000006B3221000E4843704786488038006B99
:1058100032210004000E484370478249012240397A
:1058200052040028C86A02D01043C86270479043EF
:10583000FBE77C490122403912040028C86A02D0E3
:105840001043C86270479043FBE776484038C06A0F
:10585000800301D400207047012070477148403810
:10586000C06AC00301D400207047012070476D4911
:1058700010B580390A690378120A12021A430A61C4
:105880000A69FF231B0244789A43240222430A61D7
:105890000A691C02A2438478240422430A610A692B
:1058A000C4781202120A240622430A614A69047962
:1058B000120A120222434A614A6940799A4300025D
:1058C00002434A6110BD574940398A68120C1204DC
:1058D00002438A607047534940398A68000492B293
:1058E00002438A6070474F494031CA6A120C120461
:1058F0000243CA6270474B4940314A6AFF231B0486
:105900009A43000402434A627047464AD3691B0A1D
:105910001B020343D361D069FF231B029843090292
:105920000843D06170473F4AD1690170D2691204BF
:10593000120E42705140817070473A494039CA6A2C
:10594000FF231B029A4300020243CA627047354993
:1059500040390A6A120C120402430A627047314944
:1059600040390A6A000492B202430A6270472D4924
:1059700040394A6A120C120402434A6270472949AC
:1059800040394A6AFF231B049A43000402434A62D7
:10599000704724484038006A80B270472148403838
:1059A000006A000C70471F484038406A80B2704758
:1059B0001C484038406A0002000E704710B5194A72
:1059C000D3690324A4058007A343000A0343D361DA
:1059D000D069A31089079843890A0843D06110BD94
:1059E00010B5104AD3690324A4048007A343000B15
:1059F0000343D361D069A31089079843890B0843F7
:105A0000D06110BD074AD3699B009B088007034300
:105A1000D361D06903231B0789079843890808438A
:105A2000D0617047805000F008520000FF0F000066
:105A30004048C0690002800FF3E73E48C069800219
:105A4000800FEEE73B48C0690003800FE9E7394863
:105A5000C0698003800FE4E73648C069800FE0E743
:105A60003448C0698000800FDBE732494031CA68A2
:105A70001202120A00060243CA60D2E72D484030E3
:105A8000C068000ECDE730B52A4B803B5C6B240C20
:105A9000240404435C635C6BFF252D04AC430904C0
:105AA0000C435C63596B0902090A00060143596300
:105AB000986B000A0002110A0843986330BD1D4923
:105AC00080394A6B02804A6B1202120E82708A6B16
:105AD000496B1202090E51188180A2E71549403125
:105AE0000A6BFF231B049A4303791B041A430A63BE
:105AF0000A6B43791202120A1B061A430A634A6BA5
:105B00008079120A120202434A638AE7094A5369FA
:105B10001B0C1B04034353615069090480B2084302
:105B200050617EE70348406980B27AE701484069E6
:105B3000000C76E7805000F010B5FFF712FCF84932
:105B40000328886904D00005002803DA012010BD6D
:105B5000C004F9E7002010BD10B50446FFF701FCB2
:105B6000EF49032807D00120C0028A69012C0CD01C
:105B700082438A6110BD012212038869012C02D080
:105B80009043886110BD1043FBE70243F1E7E44A0C
:105B90009169E44BC0031940014391617047E049AA
:105BA000C869C9694006400E090602D41421484359
:105BB00070471321C943484300B2704710B5DA4A11
:105BC0008021D74C904201DD104607E0D64A524270
:105BD000904201DA104605E0002803DBE2698A43BF
:105BE000E26104E0E2690A43E261404200B214214A
:105BF00000F022FA4006E169400EC909C9010843D4
:105C0000E06110BDC6494A6A80B2120C1204024318
:105C10004A627047C24A116801239B06C007994334
:105C20004009014311607047BD4A403A516804235E
:105C3000C0079943400F014351607047B84940394C
:105C40000A68C00752085200C00F02430A6070473A
:105C5000B349CA6807231B069A4343785B075B096D
:105C60001A43CA60CA6807230078DB0640079A43D4
:105C700080080243CA607047A949403948617047AB
:105C8000A74A403A012905D0002902D15169814330
:105C90005161704751690143FAE7A1494039886170
:105CA00070479F4A403A012905D0002902D19169E5
:105CB00081439161704791690143FAE79848403800
:105CC00000697047964940394A68C0075208520037
:105CD000C00F02434A607047914840384068C0078F
:105CE000C00F70478E4940390A6B12011209000734
:105CF00002430A6370478A4A403A116B07235B06E6
:105D0000400799430009014311637047844A403AB0
:105D1000D16BF02300079943000E0143D163704714
:105D20007F4808B54038C16B6A460902C90FD17077
