:10000000001E0020F1000000D1000000D700000019
:1000100000000000000000000000000000000000E0
:10002000000000000000000000000000DD000000F3
:100030000000000000000000E3000000E9000000F4
:100040004B0100004501000000000000000000001E
:10005000000000003F010000000000003901000026
:10006000330100002D0100002701000021010000E4
:100070001B010000150100000F010000000000003E
:10008000000000000000000007010000FF00000069
:100090000000000000000000000000000000000060
:1000A0000000000000000000000000000000000050
:1000B0000000000000000000000000000000000040
:1000C00082001068116070478200106C11647047E4
:1000D0001F48806800471E48C06800471C48C06A27
:1000E00000471B48806B00471948C06B00477047AA
:1000F00010B518490020C86100F050FB10BD14482D
:100100008030C0680047124880308068004710483F
:10011000806F00470E48406F00470D48006F004752
:100120000B48C06E00470A48806E00470848406E82
:1001300000470748006E00470548C06D0047044867
:10014000406D00470248406C00470148006C004782
:10015000000C0000401000F0000000000000000053
:10016000000000000000000000000000000000008F
:10017000000000000000000000000000000000007F
:1001800010B507E013469C00241F521E9B000C591B
:100190001B1FC450002AF5D110BD30B50446002005
:1001A0000F221207136818258907AB43C90E0B43AA
:1001B0001360116889088900491C1160411E216083
:1001C000116804231943116011684907FCD430BD3C
:1001D00010B500230F2212071468A408A400A41C61
:1001E0001460016010680421084310601068400723
:1001F000FCD4184610BDD549012008607047F0B501
:1002000004460020844620680F46401C1AD0D04E79
:10021000200A0502402231462846FFF7B1FF601B45
:100220008010C117890F08188010800037500024F3
:10023000A00031584019FFF7CBFF641C402CF7D3C6
:100240006046F0BD2046FFF7C3FFF9E7C148002133
:100250000161C14A42618161C04A9160032101612B
:100260007047BC490020086148618861BB498860CB
:10027000704710B500231A4603E0845CE3185BB2B4
:10028000521C8A42F9D3D8B210BDB4488168491CC7
:1002900081600120B24940064860704738B5034686
:1002A0001A0C7F24000C2402121D012903D0032103
:1002B0008902884232D3A24230D8AA49096801296A
:1002C00006D10B210902884202D2012149074018B8
:1002D00082071904920F801A090E0025A24C6B4662
:1002E00010291FD006DC012909D002290CD00429CD
:1002F00013D114E020291AD040290ED11EE0016844
:100300000091217D995405E0510802680092A28A6B
:1003100049005A520099FFF772FF656138BD616963
:100320000091F8E700680090985C207538BD00687F
:10033000510800904800185AA08238BD00686061DA
:1003400038BDF0B503041E0E0024020CB300402B90
:100350002AD803041B0E9B00000C18187F231B02D5
:10036000012903D0032189028A421DD398421BD858
:100370007C480068012806D10B200002824202D28C
:100380000120400712189007800F171A0AE0A100F9
:10039000754AC8198D186969FFF731FF0020686137
:1003A000641CE4B2B442F2D3F0BDF0B56D4887B03E
:1003B000006800250126002838D06C4C2068069083
:1003C000FFF74FFF69496017803108605F49086097
:1003D000624E0127376166490F20FFF771FE0390D7
:1003E00064490020FFF770FE059063490120FFF784
:1003F0006BFE0490FFF72AFF0121084600F0C4F8C5
:10040000276002202060684605725C490020CA6BA4
:100410000092CA6B0192019B009A9A4217D1401C2C
:100420006428F4D93069002813D014E000F0A8FB48
:100430004C4840384563524981634104C16349498E
:100440000E60C1694F4A1143C16107B0F0BD002081
:10045000DDE7012A18D0B069C0B24228B06935D0B2
:10046000C0B25228B06936D0C0B2442838D0B06982
:10047000C0B25528C9D100273C463A492002096834
:10048000381801294FD055E03648056035484038C6
:10049000C16901221143C161FFF7E3FE0020334926
:1004A000C04380310860294908600F200399FFF795
:1004B00007FE00200599FFF707FE01200499FFF7CA
:1004C00003FE2A49069808603561BEE76946097A45
:1004D000FFF7E4FE25E06946097AFFF732FF20E0E6
:1004E00003277F0300242003381A0121FFF755FE5C
:1004F000641C062CF7D30327BF02002420023818FF
:100500000021FFF74AFE641C042CF7D307273F03A2
:100510000024200238180021FFF73FFE641C0F2C36
:10052000F7D3B56171E70B210902884202D201219C
:10053000490740180021FFF730FE641C0C2C9CD3A7
:10054000B5610120694608725FE7000080E200E0C3
:10055000001E002000E000E0D5140000000C002088
:1005600000ED00E0401000F0001F002000E100E07E
:100570008B020000F7010000FD060000C07E0000B5
:10058000FF0A000001020000012279485202C26104
:1005900077494031CB69CB695B085B00CB61C169AE
:1005A0001143C1617348016AD20111430162016ABA
:1005B000090A090276310162016A5200914301621F
:1005C00038214163704770B58407020AA40F1206F0
:1005D000694B120E01D0012A03D105252D034019C4
:1005E0005032664D1F2A2BD0403A1F2A41D802466E
:1005F0002A40AD0652191568E400FF26A640B5430F
:10060000A140294311605E49884205D15D4AD16805
:1006100001246405A143D1605B49884229D1564A2F
:10062000103A107C5949002444281CD00DDC1028B5
:1006300012D0202813D0402813D0422818D112E01D
:1006400002462A4001256D07D4E74F280ED05228D4
:1006500009D055280CD106E00120086108E00C61A2
:1006600006E0507C03E01868886101E00F204861D3
:100670001461002070BD010A10B50906090E01D0F1
:10068000012903D105221203801850310B46103B7B
:100690003A4A0F2B04D8014611400122520713E0B9
:1006A0000B467B3B742B05D80146114007221203F1
:1006B000891A0AE070390A29014602D81140344AE1
:1006C00002E011400F221207891882070868920F72
:1006D00030490978CB072749CB6A07D0FF24240289
:1006E000D200D040A3430006000C04E01B0A1B020A
:1006F000D200D040C0B20343CB6210BDF0B51D495B
:10070000086B8006800E8863CA6A224C150C25602F
:100710008A6A120C62604B6A87069BB201262361CB
:10072000002F02DA5B192361A672C30603D5236981
:100730009B182361E672000700D5A672E07A0025B7
:1007400000280AD0D007886A01D00004000E207269
:10075000C1B22069FFF737FFE572A07A002803D005
:100760002069FFF788FFA5720B4902200860F0BDE1
:10077000001000F0009000F0101F0020FCFF0000AF
:100780004E500000405000F0101F0000000C0020F0
:100790000090FF1FFC0C002080E200E01CB54948DF
:1007A000416B022291434163474B986B9107084389
:1007B0009863464E0022F261C817454908604549D2
:1007C000086000F0F5F94448026142613E4843493F
:1007D0003830002420C920C0641C0F2CFAD34048B4
:1007E000016A0124240421430162016A090A090201
:1007F00076310162016A6400A14301623248C03867
:10080000C16AC024A143C162C16A18242143C162E4
:10081000C16A06242143C162324C22616261A26135
:10082000E261012525606260A26000207D21C9008F
:1008300000BF401C8842FBD3D86B012109038843C9
:10084000D863264F00202849783F00BF401C8842CB
:10085000FBD30020F96B0091F96B0191019A00998B
:100860009142F6D1401C6428F4D9786B401C18D012
:10087000B86B401C15D0796B0320800281420FD9E0
:10088000796B164A483A91420AD8796B091AFFF7F0
:10089000F0FC12495839097E08180006000E00D0F5
:1008A00025613068012800D125612069012802D026
:1008B0000098012802D0FFF778FDCAE700F000FA9F
:1008C000C7E70000004000F0005100F0401000F0C9
:1008D00080E100E080E200E0001F0020387F00009F
:1008E000009000F0000C0020B80B00000000000099
:1008F00000000000000000000000000000000000F8
:1009000000000000000000000000000000000000E7
:1009100000000000000000000000000000000000D7
:1009200000000000000000000000000000000000C7
:100B8000012110B5002349070B200002401E1C5C08
:100B90000C54C028FAD801221203C020401E145C55
:100BA0000B460C54FAD1064808600648586010BD40
:100BB0000549002008614861886104494860704720
:100BC000001E0020F100000000E000E0000C00200A
:100BD0000000000000000000000000000000000015
:100BE0000000000000000000000000000000000005
:100BF000000000000000000000000000A311201011
:100C0000001E0020F1000000110F0000130F000073
:100C100000000000000000000000000000000000D4
:100C2000000000000000000000000000150F0000A0
:100C30000000000000000000170F0000ED2600007B
:100C4000C50F0000F11700000000000000000000C8
:100C500000000000332A000000000000870F0000A1
:100C60007D0F00002F280000992800005127000068
:100C70003F10000029100000C90F00000000000014
:100C80000000000000000000370F00002D0F0000E2
:100C90000000000000000000000000000000000054
:100CA0000000000000000000000000000000000044
:100CB0000000000000000000000000000000000034
:100CC000F8B50121084600F001F90221052000F0E5
:100CD000FDF80221082000F0F9F80221092000F0B7
:100CE000F5F802210A2000F0F1F802210B2000F0B3
:100CF000EDF802210C2000F0E9F802210D2000F0AF
:100D0000E5F80221122000F0E1F80221132000F0A2
:100D1000DDF801F0F7FC0024604E012535606049E4
:100D200020468200401C8C504028FAD35D4A0020A7
:100D3000411E8300401CD1501028FAD301F047FF18
:100D400000207D21890100BF401C8842FBD301F0B7
:100D5000E3FD554801F0B9FD0121084601F0F3FD1E
:100D6000012006F06DFA012006F075FA06F088F809
:100D700000906846C570009806F098F80F2006F0BD
:100D800075F8002005F016FA484805F0C8FA012069
:100D900000F098FE012000F09EFE002006F0E3F82F
:100DA000012006F0EAF8002006F03DF8002006F0E9
:100DB00029F801208003306000F02AFD3C4841689A
:100DC0000226B143416002F022FA04F079FC01F0FE
:100DD000E7FF0C2005F06BF802F07AF8054606F004
:100DE0001FFA012849D006F020F9012845D000203B
:100DF00005F0B0FF2F48C16B032212029143C1637B
:100E0000C16B12059143C1632A49403108683043E0
:100E10000860086801225202104308600868D20086
:100E200010430860012D2AD0022D28D0032D29D08F
:100E3000042D27D0032005F0BDF90321072005F07C
:100E4000C2F90021084605F0ECFE042005F0A8F9DF
:100E500002F046F97D210901884205DD012006F0F6
:100E60009FF9012002F02BF90D4D803D02F0FDF8B5
:100E700002F0EBF8012808D009E00120B8E703F000
:100E800009FBE5E704F018F8E2E705F016F8286931
:100E90000128EBD1034810380461F8BD00E100E0FF
:100EA000800C0020101F0020B80B00007C150000F3
:100EB000005100F0401000F00348854606F086FE21
:100EC000004800479D070000001E00208307FF2206
:100ED000DB0E9A408907090E994000280BDA0007BB
:100EE000000F0838830808489B001818C36993430B
:100EF0000B43C3617047830804489B0018180368BC
:100F000093430B430360704700ED00E000E400E012
:100F10007047FEE7704701202849C00648607047C7
:100F200001202649400648607047FEE710B51320AF
:100F300000F03DF810BD10B5122000F038F810BDDB
:100F400010B50E2000F033F810BD10B50D2000F0E4
:100F50002EF810BD10B50C2000F029F810BD10B50A
:100F60000B2000F024F810BD10B50A2000F01FF887
:100F700010BD10B5092000F01AF810BD10B50820FA
:100F800000F015F810BD10B5072000F010F810BDE6
:100F900010B5052000F00BF810BD10B5012000F0D1
:100FA00006F810BD10B5002000F001F810BDC10614
:100FB000C90E0120884002490860704700ED00E03A
:100FC00080E200E07047000010B505F030FF1E2100
:100FD000884344086400204605F025FF600606D5D6
:100FE000012006F0E8F80121084602F001F9200688
:100FF00003D50121022002F0FBF8E00503D5012111
:10100000042002F0F5F8A00503D50121082002F024
:10101000EFF8600503D50121102002F0E9F8012066
:1010200031498003086010BD10B5FF200021013058
:1010300000F060FC01202C494003086010BD10B591
:1010400000F064FCFF2104460131884300F04FFCAE
:10105000204603F056FC204603F070FC204603F0C7
:1010600098FFA00506D502F053F9012802D100200F
:1010700005F048FF200505D502F04AF9012801D105
:1010800005F040FF600402D5012002F042F8600242
:1010900001D501F040FA200201D501F01FFAE0016C
:1010A00001D501F012FBA00101D501F0D4FA6001D5
:1010B00001D501F09EFA200110D502F01DF901289A
:1010C0000CD005F0D9FD002808D104F0F3FEFF286C
:1010D00004D001F01FF9012004F02AFB012002498D
:1010E0000003086010BD000080E200E010B5442855
:1010F0003FD011DC2B286BD03C2819D0402816D1CA
:1011000005F0A1F803282AD005F09FFE00282DD075
:10111000002002F00BF828E0462841D048287CD077
:10112000FF38652803D105F047FB05F00BFE10BD25
:1011300005F089F8032807D005F087FE00280BD0BA
:10114000022001F0F3FF06E004F02EF80028F7D1AA
:10115000022000F0FBFC80B205F0B9F810BD04F0ED
:1011600023F80028D4D100F0F1FC80B205F0B7F8E4
:1011700010BD05F068F8032807D005F066FE0028CA
:101180000BD0012001F0D2FF06E004F00DF800289A
:10119000F7D1012000F0DAFC80B205F0B2F810BD02
:1011A00005F051F8032808D005F04FFE00280CD0B8
:1011B000032001F0BBFF80B207E003F0F5FF002839
:1011C000F6D1032000F0C2FC80B205F0A1F810BDFA
:1011D00001F09CFF05F0D2F805F035F8012805D0A4
:1011E000022803D0032803D0002013E0042011E0DC
:1011F00004F041FE02280AD004F058FB012808D070
:1012000004F051FE012804D0082003E005E00A2084
:1012100000E0092005F0BBF810BD01F077FF0028C1
:10122000FAD000F027FB0146FE4806F047FB80B2EB
:1012300005F00CFB10BD10B50C464E280CD04F2805
:1012400009D1880707D50121082001F0C8FF002136
:10125000072004F0FDFF10BDA00610D5012005F009
:1012600084FD0021084604F0F3FF02F049F802284B
:1012700002D1002001F019FE002005F076FDE00605
:1012800007D50121042001F0AAFF0021022004F06B
:10129000DFFF200707D50121022001F0A0FF002178
:1012A000032004F0D5FFE0070DD004F0CCFF0328A5
:1012B00001D005F0A0F80121084601F090FF0021BF
:1012C000062004F0C5FF600707D50021042004F0C4
:1012D000BFFF0020D449C043C861A0070AD500F071
:1012E000E4FA01280ED0012000F0D6FA00210520F2
:1012F00004F0AEFF2006AED504F0BDFD002803D0FB
:10130000002006E00020EFE704F0B5FD022802D03F
:10131000022004F0B4FD002001F097FD002101201F
:1013200097E738B5044601F0F1FE002816D1022CEB
:1013300014D1694608704870684605F04FFD0021D9
:10134000802004F063FF0021802004F04DFF002185
:10135000102005F05BFD002005F06DFD38BDFEB5E9
:101360000446002000902169B04A8E07080A0192C5
:10137000B60F0006AE4AAF4B000E04D001280AD0CB
:101380001F2817D00CE088B2009005200003081831
:101390002061502004E0052000030818206151203E
:1013A000014640391F2908D820690F21104009073C
:1013B00047180BE01140CF1808E0083807287CD800
:1013C00001212069C902401A1040C7183D689A4996
:1013D0002069884203D0F200FF2191408D43964955
:1013E000183988420CD1207A400709D501F088FFCE
:1013F000002805D0012040060543022001F055FDDC
:101400008D492069B131884202D1207A04F068FE0A
:1014100089492069B231884206D1207A012801D059
:10142000002801D101F070FF8348216961308142B9
:1014300002D1207A04F03BFD7F4920696231884265
:1014400002D1207A03F016F87B482169633081428B
:1014500002D1207A03F016F8774A2069521E7749A4
:10146000904212D12A020878120A05061543002874
:1014700019D1207A922816D202F062F9012812D1ED
:1014800001F04AFF832020720DE06B4A90420AD19E
:10149000207A0870012806D1F100FF228A40954386
:1014A00088402843386064492069891F884208D1F0
:1014B000207A002802D0002001E06FE0012005F032
:1014C00012FE5D482169814204D0207AF1008840F3
:1014D00028433860052120690903884226D3401A31
:1014E0003E2820D04E2804D04F2813D069281DD183
:1014F00015E0217A0098FFF79EFE207A810702D539
:10150000FD2108402072C0B201060FD54006400EF2
:1015100020720BE0217A0098FFF78DFE06E0207A1A
:10152000FFF7FFFE02E0022001F06EFE4449206951
:10153000884233D13D4A103A107C42490024422867
:1015400025D006DC102809D020281CD0402824D122
:101550001BE04F281FD052281FD118E03A4843689B
:101560001B0A1B0243604368FF252D02AB43436007
:1015700043682D02AB43436043681B021B0A436070
:101580000120086109E00C6107E0507C04E001984B
:101590000068886101E00F20486114610020FEBDF1
:1015A000F8B50D460969080A0006000E01D00128A9
:1015B00004D1052212038918503029610246103ADD
:1015C0001B490F2A03D8286908401A491BE0024624
:1015D0007B3A742A05D82869084007210903411A73
:1015E00012E00246703A0A2A03D8286908401749CF
:1015F00009E008380728286902D80840144902E0A1
:1016000008400F210907411828690C688607B60FA2
:1016100009491F39884221D100F047F9802101286A
:101620001AD017E000881300001000F0101F0020EF
:10163000FCFF0000000000203F500000800C002054
:10164000101F0000000C0020005000F00090FF1F51
:1016500000F8FF1F8C434EE00C434CE06849884281
:101660001CD101F049FE0121C90200280CD00C4315
:1016700001F046FE002802D001204002844301F020
:1016800045FD002802D036E08C43F1E704F0DBFD95
:10169000002830D10120800204432CE05849012762
:1016A000891C7F06884206D101F02AFE002822D03C
:1016B0007800044313E05249091D884207D101F024
:1016C0001FFE002817D001204002844313E04C493C
:1016D000891D884205D101F013FE00280BD0BC43C0
:1016E00009E04749CF31884205D1270A3F0204F07B
:1016F000FAFC384304464249FF272869D0313F02AB
:10170000884204D1BC4301F003FE000204433C497B
:1017100028697F31884204D1240A240204F0CAFBDC
:101720000443374928698031884204D1BC4302F020
:10173000A5FE00020443324928698131884206D15E
:10174000FF200004844302F0A1FE00040443287833
:10175000C1072C48C16A05D0F200D440B943220623
:10176000120C04E0090A0902F200D440E2B211436B
:10177000C162F8BDF8B5234D0646234C286B8006A0
:10178000800EA863E96A090C2160A96A090C6160EE
:10179000696A830689B201222161002B03DA23687A
:1017A000C9182161A272C10604D563682169C918EC
:1017B0002161E272000703D5A2722069FFF796FC4F
:1017C000E07A002700280AD02079C007A86A01D053
:1017D0000004000E20722046FFF7C1FDE772A07AD8
:1017E000002804D021463046FFF7DAFEA772F8BD84
:1017F00010B50020FFF7BEFF04490220086010BDAD
:1018000021500000009000F0100D002080E200E068
:10181000FE49002008707047FD4A516B0223C00743
:101820009943800F014351637047F94A516801237E
:10183000DB03C0079943000C01435160704710B5AA
:10184000F3480069F34C01052078090D49304843FD
:101850000C2148437D21090106F030F8EE4980B2A1
:101860004843EE4906F040F801216156C90040188E
:1018700080B210BDE648006AC004000D7047E4481D
:10188000403080688003C00B7047E148006A000464
:10189000800F00D001207047DD4A516B8023C007C4
:1018A0009943000E014351637047D948406B0006CD
:1018B000C00F704710B5D64CE269D94B9202920A1C
:1018C0001A400303134388051843E06110BDD04A52
:1018D000D169D24B5B42194040000843D061704748
:1018E000CB4AD169490849000143D1617047C849D1
:1018F00008637047C64A012905D0002902D1116B3F
:10190000814311637047116B0143FAE7C048806A55
:101910007047BF49C8627047BD4A012905D00029F8
:1019200002D1D16A8143D1627047D16A0143FAE79B
:10193000B74A11689301C0079943C00A0143116077
:10194000704710B5B2494A6803789202920A9B0523
:101950001A434A604A680323DB049A4343789B078F
:10196000DB0A1A434A604A6807231B049A438378B8
:101970005B075B0B1A434A60A54A40321368C47880
:101980001B091B012407240F234313601368F02451
:10199000A34304792407240E234313604B68CC012E
:1019A000A3434479E407A40A23434B60116801234D
:1019B0009B059943C379DB075B0A194311601168E2
:1019C000FF231B02007A994300020143116010BDFE
:1019D00010B5FFF74FFF01461120C00205F06EFF62
:1019E0009049884201D2802000E0A02088494A68BE
:1019F0009202920A800502434A6010BD10B5FFF7BB
:101A000039FF01461120C00205F058FF8549884280
:101A100001D2802000E0A0207D494A689202920A0B
:101A2000800502434A6010BD012805D002280DD070
:101A300004280DD008280DD00020754A51680323D2
:101A40005B03994340030143516070470120F4E771
:101A50000220F2E70320F0E76D494A6807239B0262
:101A60009A4303785B07DB0C1A434A604A687C237D
:101A70009A434378DB065B0E1A434A604A68FF23A9
:101A800001339A438378DB07DB0D1A434A604A68C7
:101A9000C0788023C0079A43000E02434A60486B17
:101AA0004022104348637047594A51687C23C0065E
:101AB0009943400E014351607047554840684006C5
:101AC000C00E7047524A516B1023C0079943C00E95
:101AD0000143516370474E4A516B0823C007994335
:101AE000000F0143516370474949496A014201D0DF
:101AF00001207047002070471CB54549CA686B46F5
:101B0000120E1A70CA681202120E5A70CA681204B3
:101B1000120E9A70CA681206520FDA70C96805224E
:101B2000C906C90E1971194605F0F2FE1CBD3849E7
:101B3000006888607047364808300068704734494C
:101B4000006808607047324800687047F0B5304C54
:101B5000354D85B0020011D0012A2DD0022A6FD058
:101B6000032809D1606931490001000D484330491B
:101B700005F0BAFE2F49401805B0F0BD012102A8BA
:101B800000F0D6FF039902980191009020696A46FF
:101B900001051078090D493048430C214843294676
:101BA00005F0A2FE1C4948431C4905F09DFE6A460B
:101BB0005188C90009B2DEE7206900210001040D47
:101BC00002A800F0B5FF0298009003990F48019118
:101BD000FF27FF26007841371936174D002804D01B
:101BE00005F04AF8012834D038E06A4610792D21F2
:101BF0004930604348434B21C90105F075FE0A494D
:101C0000C83148430D4905F06FFE1AE0840C0020EE
:101C1000004000F0A10C0020E8800000FF0F000051
:101C2000FF0FC0FFEC040000D007000074B90200F1
:101C3000102700005C95FFFF240D0020FD2F000001
:101C400046E06A460621515E4018FF4901220A70AB
:101C500027E06869B84201D9002007E005F00CF8D8
:101C6000002807D16869B04204D2012005F014F8B9
:101C7000686916E005F000F801286A4616D0107869
:101C8000493060430101081A4B21490105F02CFE3F
:101C9000EE494843EE4905F027FE6A460221515EAF
:101CA0004018002800DA0020686165E710792D21CE
:101CB0004930604348434B21C90105F015FEE34913
:101CC0004843E44905F010FE6A460621515EE7E705
:101CD000606901210405240D02A800F029FF039981
:101CE00002986A460191009010790C2149306043B6
:101CF0004843294605F0F8FDD7494843D44905F043
:101D0000F3FD6A460621515EC90040180028CCDC6C
:101D1000002031E7C3070021D04A002B01D0116019
:101D20005162830701D551609162430701D59160EB
:101D3000D162030701D5D1601163C00601D51161DD
:101D40005163704710B5C6494A6AD205FCD5C34AEB
:101D5000C30708D013680C692405240D1B191360F0
:101D6000536A5B1C5362830708D553680C692401CE
:101D7000240D1B195360936A5B1C9362430708D5BB
:101D800093684C692405240D1B199360D36A5B1C6E
:101D9000D362030708D5D3684C692401240D1B19AD
:101DA000D360136B5B1C1363C00608D51069896987
:101DB0000905090D40181061506B401C506310BD9F
:101DC000F0B57D2485B02401A44D030005F010FF7B
:101DD0000504299DC6D7DC00012102A800F0A8FE59
:101DE0000399029801910090696A002917D0286828
:101DF00005F064FD6A461178493141430C2048439F
:101E0000214605F071FD94494843914905F06CFD68
:101E10006A460221515EC9004018A861ACE6A86973
:101E2000AAE6002102A800F083FE0399029801911E
:101E30000090A96A002910D0686805F03FFD0446AB
:101E40008148FF27FF26007841371936002806D041
:101E500004F012FF012819D01DE068698CE66A467B
:101E600010792D214930604348434B21C90105F0C9
:101E70003BFD76494843774905F036FD6A46062121
:101E8000515E4018704901220A7027E06869B84223
:101E900001D9002007E004F0EFFE002807D16869AF
:101EA000B04204D2012004F0F7FE686916E004F0A5
:101EB000E3FE01286A4616D01078493060430101DC
:101EC000081A4B21490105F00FFD6049484360495C
:101ED00005F00AFD6A460221515E4018002800DA2A
:101EE0000020686148E610792D214930604348435D
:101EF0004B21C90105F0F8FC54494843554905F008
:101F0000F3FC6A460621515EE7E7012102A800F0D2
:101F10000FFE0399029801910090E96A00291BD0F5
:101F2000A86805F0CBFC01466A4610794930484361
:101F30000C214843214605F0D7FC47494843444912
:101F400005F0D2FC6A460621515EC90040180028FF
:101F500000DC0020E8610FE6E8690DE6296B002946
:101F60000BD0E86805F0AAFC3E4948433E4905F01D
:101F7000BBFC3E4940182862FEE5286AFCE5696B17
:101F8000286905F09BFCF7E50020F5E510B504F0A5
:101F9000DBFC044604F001FD201A7D21C9002A4C17
:101FA0004018A06004F0F9FC6421484301466060D9
:101FB0002F4805F099FC7D210446C900484349009B
:101FC00005F092FC264902468B6B2A480340E00547
:101FD000400D03438B63886B274BD2051840120BCF
:101FE00010438863886B254A1040886304F0D5FC51
:101FF00004F02CFC642004F04DFC10BDF8B50D4637
:10200000074604F0E3FC0A214843044604F09CFC24
:102010000646002D02D00A202C4644433146642057
:102020004143134805F060FC0546304604F00EFCC1
:102030007D212846C9004843490005F055FC064665
:10204000A74200DA27461BE0840C00209808000015
:10205000FF0F0000FD2F0000E8800000240D00208D
:10206000004000F074B90200102700005C95FFFFEB
:102070000048E80103F8FFFFFF07F0FFFFFF0FE054
:102080000A21384605F030FCC0B204F003FC7D2084
:10209000C000C11B284648437D21090105F024FCEE
:1020A000F1498A6BF14B1A40EB055B0D1A438A63C9
:1020B0008A6BEF4B1A40F3051B0B1A438A638A6B3A
:1020C000EC4BC0051A40C00802438A63F8BD70B5E6
:1020D000044604F04EFC054604F036FC041BAC42FA
:1020E00001DC2C4602E0844200DB0446A0B204F08E
:1020F000ADFB642004F0CEFB214664204143DE4862
:102100004160DE4805F0F0FB7D210446C9004843EC
:10211000490005F0E9FBD44902468B6BD3480340E4
:10212000E005400D03438B638B6BD1480340D00522
:10213000000B03438B63886BCE4A1040886370BDED
:1021400070B5044604F000FC054604F012FC281AA1
:10215000450004F03BFC0A21C74B41437D229868AF
:10216000D200904204DC0019904206DB104604E0E5
:10217000E60F3419640864002018AC18A04201DD91
:10218000204602E0884200DA08469860904206DB6A
:10219000801AC10F08184010FFF799FF70BD002189
:1021A000FFF72CFF70BD70B50C46064604F0CCFB63
:1021B000054604F0DEFB281A450004F007FC0A215E
:1021C00002464A43002C02D022460A204243AA4932
:1021D000886880197D26F600AB19984201DD184603
:1021E00002E0904200DA10468860B04206DB801BB5
:1021F000C10F08184010FFF76AFF70BD2146FFF7B6
:10220000FDFE70BD10B5044603F054FEFF2800D15A
:10221000002495484030816AE20749084900D20FFE
:102220001143816210BDF0B585B00C4607461646D5
:10223000002102A800F07CFC8B4D039902984035E8
:1022400001910090686A08218843F907090F084343
:102250006862686A7107C008C000490F0843686275
:10226000192C00D319246420444369460220085ED7
:10227000201A0103081A824905F036FB69460978DD
:1022800049310A01511A4B225201504305F02CFBEF
:102290007C49884200DB0846696A7B4A0005114098
:1022A000000C0143696267E470B56F4D012640354B
:1022B000F6030446012805D1E86A3043E8620120AC
:1022C00000F02FFA6849886B42085200E007C00FFF
:1022D00002438A638A6B02239A43400002438A6363
:1022E000012C16D1192000F074FA01F005F801282C
:1022F00009D003F0DFFD014601221046FFF793FFEE
:102300000120FFF77FFF082000F00BFAE86AB043D6
:10231000E86270BD5448816B490849008163816B54
:1023200002229143816370474F484030016A012285
:102330001143016270474C4A4032116A0C238007F6
:102340009943000F014311627047474940310A6ABF
:10235000FF231B029A43000202430A627047424A6B
:1023600010B54032136A0F2424050007A343000A66
:1023700003431362106A0223C9079843890F084375
:10238000106210BD384A4032116A1F231B06C00676
:102390009943C00801431162704733488030406A56
:1023A000C0B2704730488030406A0004000E704769
:1023B0002D488030406A0002000E70472A48803065
:1023C000406A0001000F7047274A8032D16802231B
:1023D000C0079943800F0143D1607047224A10B56E
:1023E000803213690124E403C007A343000C0343B4
:1023F000136110694904C00BC003490C0843106104
:1024000010BD10B5072304461B0601461846FFF70A
:1024100071FA21461846FFF77FFA01201B49000395
:10242000086010BD10B5012304460146DB061846BE
:10243000FFF760FA21461846FFF76EFA10BD0A4A08
:10244000116803239B0380079943000C014311602B
:102450007047054A4032D16A07231B05400799435C
:10246000400A0143D1627047004000F003F8FFFFCB
:10247000FF07F0FFFFFF0FE0840C00200048E80199
:1024800098080000FF0F00000F00FFFF00E100E0D0
:1024900010B53E4800218174C17501764176012155
:1024A0008C052046FFF726FA01212046FFF734FA73
:1024B0000121CC052046FFF71DFA01212046FFF738
:1024C0002BFA3349E012086010BD3048807C704719
:1024D0002E49887470472D49487670472B48002153
:1024E000427E002A03D001228274C1757047817434
:1024F000704730B5254B01229A740022DA7519769F
:1025000003225A76002203E0845C9D18EC74521C6E
:102510008A42F9DB30BD70B51C4CA07C25461335D2
:10252000012808D0022805D1E17D485D491CE175EC
:10253000FFF70BFF70BD607E002819D0401E60764B
:1025400001210220FFF70BFF0020FFF7F4FE207EA1
:10255000801EC0B2FFF716FFE17D485D491CE175A2
:10256000FFF7F3FE052000F0DCF8FFF7DDFE0220A8
:10257000A07470BD10B50020FFF7DDFE10BD10B5D2
:102580000120FFF7D8FEFFF7CFFE10BD5C0D002045
:1025900000E100E0544908707047534800787047E4
:1025A00010B5FFF70BFF002803D1FFF7F6FE02F08E
:1025B00025FD10BD202801D2032017E0802806D277
:1025C0002038C117090F08180011001D0EE0E0287F
:1025D00006D28038C117490F0818C0100A3005E02C
:1025E000E038C117890F0818801016303E4908726C
:1025F000704770B5FFF7E2FE002813D13A4D2E4622
:1026000068680A3600280ED0297A491E884209D205
:10261000FFF7C8FE697A4140697269688855686841
:10262000401C686070BDFFF7B8FE0446FFF7C2FFAC
:1026300003F021FC022802D1012003F024FC687A77
:1026400060406872686884556868401C6860A87A51
:1026500002F0D4FC70BD70B5FFF7B0FE00281CD1AD
:10266000FFF7A6FE204D29466A680A315054696872
:10267000491C69606A7A42406A720ED1287A8142A6
:102680000BD1012405E02819807A02F0B7FC641C04
:10269000E4B26868A042F6D870BD03F0FCFB70BDE0
:1026A00010B5192189010020FFF798FE0020FFF7DF
:1026B0008BFE0020FFF7A5FE10BD10B50120FFF72F
:1026C00083FE0120FFF79DFE10BD10B506480021D6
:1026D000416041720321017202F007FD002802D01F
:1026E000012002F006FD10BD780D0020444801686D
:1026F000491C01600120434940064860704740483A
:1027000000687047404800210161404A4261816190
:102710000321016170473C480021016141618161F1
:10272000704737490A680B689B1A8342FBD9704788
:1027300037480268012109038A4302607D221201A1
:10274000C261344B4A101A6002680A430260704743
:102750002B484168491C41602D48416A08221143B9
:1027600041622D4910020860704725484068704753
:1027700010B57D2105F0A2F810BD0021425C202A91
:1027800007D00D2A05D0002A03D0491C89B2802920
:10279000F4D3491C88B2704770B50D460646002335
:1027A000FFF7EBFF04B22846FFF7E7FF00B28442D1
:1027B00000DC04460020641E07E0315C2A5C914284
:1027C00001D05B1C1BB2401C00B2A042F5DB1846D6
:1027D00070BD002813D00E490A68520852000A60E2
:1027E0000A178A6000010A68C04301231A430A607D
:1027F0008A688242FCD80868400840000860704738
:10280000900C002000ED00E000E000E0D514000096
:1028100000D000F000E100E080E200E0394801680B
:10282000102291430160384900204880704710B55C
:102830003448416A0222114341623449100208605F
:1028400003F001FD03280BD12F494888401C80B2BA
:1028500048800146FF39693904D1092000F0F5FAB2
:10286000FFF7DCFF10BD27490A6810239A430A606E
:102870007D22D2015043C860254958010860704745
:1028800020480168C90606D401681022114301607E
:102890001D4900204880704710B51A48416A04223B
:1028A000114341621948110201601A48006A164931
:1028B000000C02D10878401C08700878042803D363
:1028C0000020087000F08EFA10BD0E490A68FF2340
:1028D00001339A430A60000148610D49980008607D
:1028E000704708480168C90504D40168FF22013215
:1028F00011430160704703480168FF220132914390
:102900000160704700D000F0980C002080E200E0E9
:1029100000E100E0005000F001201A494002C861C7
:102920001948016A0122120411430162016A090A6D
:10293000090276310162016A520091430162134932
:102940000220086070470F484030C169C1694908DA
:102950004900C1610B48C169012252021143C161A2
:102960000948016AD20111430162016A090A090298
:1029700076310162016A520091430162382141635C
:1029800070470000001000F0009000F000E100E04F
:1029900039480068C0B2704737498A699206FCD44A
:1029A0000860704700B5034602E05B1CFFF7F4FFC8
:1029B00018780028F9D100BD10B501222F48202336
:1029C00003602F48C16B03242404A1435404091954
:1029D000C163C16B0324A404A143D4040919C163D6
:1029E0002548816B19438163816B102319438163EF
:1029F000816B402421438163416A090C0904083139
:102A00004162816A090C09042C318162016B540214
:102A100021430163016B140221430163C16A19431D
:102A2000C162C16A60231943C162016B1143016332
:102A300010BD10B50020134A202111600E4B403309
:102A40001A68920601D5586812E019680E4A4C06B9
:102A5000094903D410BD0868107001208C69E40690
:102A6000F9D5002802D01078FFF796FF586840216A
:102A70000843586010BD000000B000F000E100E025
:102A8000401000F080E200E09C0C0020B649887005
:102A90007047B5488078704770B515460E460446B5
:102AA00003F04DFCB149884201D3FA2000E06420D4
:102AB000844203DD304604F00CFB70BD284604F070
:102AC00008FBA9490120887070BD70B514460D46F9
:102AD000064603F034FCA549884216D32046FF3051
:102AE0002D3000B2FA2E0DDCFF212D318D4209DC94
:102AF000B42D03DDFF34F53420B203E07D20C000A7
:102B0000201800B204F0FAF870BD642E04DC2046F0
:102B1000643000B204F0F2F8934881780129F3D1CF
:102B2000FF2105318D42EFDA002181702046E9E76F
:102B30007CB50C46054603F086FB8B490246C91C52
:102B4000881C032A0FD0002C19D0012C33D000216F
:102B50006846017041800171C1800822694628469B
:102B600004F0D6FE7CBD012C25D07F486A461C307F
:102B700001781170408850807B4818300CE07A480A
:102B8000807801280DD078486A4614300178117099
:102B90004088508074481030017811714088D0808E
:102BA000DBE771486A460C3001781170408850802C
:102BB0006D480830F0E70A786B461A7001228A5691
:102BC0005A800178197101214156D980C5E7F8B5BD
:102BD0006E4A67A112786AA0552A7DD16B4B6C4C66
:102BE0002B3B002220CB20C4521CD2B20F2AF9D397
:102BF000664A2C3A1278674B1A70644A113212787E
:102C0000644B3D331A70614A123212785B1C1A70A1
:102C1000554A5E4B921C0F331B7813705B4B521C52
:102C200011331B781370594B12331B785370574B69
:102C3000921C13331B781370544B14331B7853704E
:102C4000524B133215331B781370504B183A16330E
:102C50001B7813704D4B521C17331B781370531E87
:102C60005A781C78120222431C4618346280221DB6
:102C7000464C183424781470444C1C3A1934247887
:102C80001470424C521C1A34247814705A781C78F0
:102C9000120222431C461C3462803D4A0832546AA8
:102CA00025141C4610346580946A1E4614367480C0
:102CB000946A1F46241408377C80D46A3D1D6C80BA
:102CC000D46A2402250E341F2570D46A240E347071
:102CD000146B3C70126B00E019E01204140E3A1DE4
:102CE00014709A78FF2A12D100229A70341F6280E1
:102CF00072807A80251F6A807F23237033703B7037
:102D00002B700D3C23706270A41C23706270234BE7
:102D1000214A5A601E4A883A00239C000D5D6418BF
:102D2000E67836063543A6786478360424022643CE
:102D30003543009520C25B1CDBB2032BEDD302CAE6
:102D400000218B00C45C1B18DD782D062C439D7878
:102D50005B782D041B021D432C43009410C2491CB8
:102D6000C9B20229EDD3F8BD9E0C00201027000047
:102D700046656220303620323032302000000000BC
:102D800031303A32313A343600000000637F0000BF
:102D9000385100F037510000A3112010005000F00E
:102DA000F84910B500200870C8770A460877203225
:102DB0000C4610706034E0756075A0752076607602
:102DC0000872A07604F080F9E07604F09CF9207790
:102DD00003F085FF21462039C88710BDE9496031DD
:102DE0000876704710B5E74C6034A17D607D814264
:102DF00001D0012100E00021002922D0E17D401C0A
:102E0000491EE175142104F059FD61754800091847
:102E1000DC4808182030027EC17D807D04F0D3F8A4
:102E2000D848627D2130115C052902D0062902D0E4
:102E300003E0012100E000212176105C03F09FFFF8
:102E400001E0FFF758FDE07D10BDF8B5CD4C074619
:102E50006034A07D00251421401C04F02FFD607D0E
:102E6000814201D1012600E00026002E1BD1C64878
:102E70000068C00500D40125FFF733FDE07D142173
:102E8000401CE075A07D401C04F018FDBD48A175F4
:102E900021300F54BD48006A000C002D03D00028DB
:102EA00001D1FFF79FFF3046F8BDB64910B560313C
:102EB00048760100B64807D0012904D103F094F9FF
:102EC0000720FFF7C2FF10BD002103F08DF910BDF0
:102ED000FEB500207D240546E4000646009003F080
:102EE000B2F9012701287DD002287BD0032879D0B0
:102EF000002003F02FFF0820FEF796FD002003F0CE
:102F000059F9FEF720FE40210843029002A8FEF77F
:102F100016FE192149014810FEF7CCFC0520FEF7EA
:102F2000D6FC0020FEF7DCFC01218803FEF7E2FC62
:102F300001218803FEF7F0FC964938030860FFF78B
:102F4000DEFB0746FFF7DBFBC01B052803D8FEF7B7
:102F500091FC0028F6D08B49002048700120FEF734
:102F600064FCFEF787FCC008A84200D90546A042D1
:102F700000D204460099761C08180090FFF7BFFBAA
:102F8000C01B0528EDD93146009804F097FC7D4E12
:102F900001467060804804F091FC80B203F067FC49
:102FA000281B0321042803D9641F3C2C05D924E0E5
:102FB00070680246333A7F2A02D20120307018E04E
:102FC0001138B72819D37078012816D00020307036
:102FD000B0770121880203F007F90121202003F0D6
:102FE00003F900E00BE00120FFF75FFF002003F092
:102FF0003EFC0020FEF719FC24E03170F9E70020C8
:10300000FEF70AFC0020FEF747FC0021802003F0B9
:10301000FDF80021802003F0E7F80021102003F0E4
:10302000F5FE002468460471447101A803F0D6FE41
:103030000021102003F071FF0020FFF706FF514828
:10304000877704704F480078FEBD10B503F0FBF899
:10305000032801D0002010BD0021102003F05DFFE7
:103060000020FFF7F2FE012010BD38B503F0EBF8A9
:103070000025444C01280DD002280BD0002808D18F
:10308000A07F012805D1FFF710FF0020FFF7DDFE2C
:10309000A57738BDA07F0028FBD125700098C00817
:1030A000C00000906846FEF74AFD0120A07700218D
:1030B000102003F032FF0020FFF7C7FE38BD10B527
:1030C000002806D0354803F02AF90120FEF7E4FB7A
:1030D00010BD0020FEF7E0FB314803F020F910BDE1
:1030E00008B50320694608701F20487001208870C9
:1030F000C8706846FEF7B0FC1F20FEF7D5FC022022
:10310000FFF70FFB0220FEF721FD08BD1D480078E8
:1031100070471C49487070471A490268CA60426883
:103120000A6182684A61C0688861704770B5154D50
:103130000446287801280ED002280CD003F083F82A
:10314000032831D0002C3AD0012C3CD0022C13D0D3
:10315000032C15D139E0002C04D0012C04D0022C12
:1031600028D103E0E86870BD286970BD0D49686921
:103170008842FADA0028F8D0022021E0A86970BD60
:10318000002070BDA40D002000D000F0005000F021
:103190000002000000E100E000710200D4580000CD
:1031A0007C150000B80B0000002CDBD0012CDBD01C
:1031B000022C02D0032CE3D1E0E76869E1E70020AC
:1031C000FEF7C4FCDDE70120FAE70320F8E76049D9
:1031D000097F014201D001207047002070475C4BFD
:1031E00001291A7F02D082431A7770470243FBE716
:1031F000574B01295A7F02D082435A7770470243C6
:10320000FBE75348C07F70475149C8777047504922
:10321000002088777047F8B54F494E480A6B6B46D7
:103220001202D20E1A704C4A403292685202520E6A
:103230005A704A6B1205120F9A70496B474E8902F9
:10324000890ED97000246D46295D4201101840187E
:10325000314604F033FB641C0846042CF4DB314691
:1032600004F02CFB0846F8BDFFB5394C0746603426
:10327000A07D81B000251421401C04F01FFB607D5F
:10328000814201D1012600E00026002E31D13448D0
:103290000068C00500D40125FFF723FBE07D142161
:1032A000401CE075A07D401C04F008FB2848A17577
:1032B00021300F54A07D029A410040182449401843
:1032C00020308275A07D039A4300C018401820303A
:1032D000C275A07D049A4300C018401820300276C1
:1032E0002048006A000C002D03D0002801D1FFF710
:1032F00079FD304605B0F0BD15486030007E70475E
:1033000013486030407E70471149603188767047BD
:103310000F486030807E70470D4901200872704769
:1033200010B50B49002008720F4802F0F8FF10BDDD
:103330000748007A704706496031012801D0087FAC
:103340007047C87E704702484030C08F7047000009
:10335000A40D00209FE73503005100F0FFFFFF00A0
:1033600000D000F0005000F088130000F7B5FF4FC8
:1033700006460120FEF798FBFEF761FA0546840930
:103380001F20FEF791FBBD42F3D3FF2C00D3FF2497
:10339000F7481E21046001203070747001980160AC
:1033A0000298072101607120FEBD70B5044602201D
:1033B00015460E46207002F0FBFF6070C82030609A
:1033C00000202860012070BD30B5FF22FF23FF24BC
:1033D000FF25E1327D334B341935002815D0012803
:1033E00024D0022833D0032842D0042851D0052805
:1033F00060D0FF24053406286DD0FF235F330728F3
:103400007AD0322979DA0020B0E0914276DC994214
:1034100075DCA14274DCA94273DCE62972DCB429B4
:1034200071DC822970DC50296FDC9FE03229EADBF5
:10343000914263DC994262DCA14261DCA94260DC1A
:10344000E6295FDCB4297CDC822976DC8EE0322937
:10345000D9DB64296DDB914250DC99424FDCA142FB
:103460007BDCA94275DCE6296FDCB42969DC7DE0F0
:103470003229C8DB64295CDB96295EDB914274DC6F
:10348000994270DCA14268DCA94262DCE6295CDC7E
:103490006CE03229B7DB64294BDB96294DDBB4297C
:1034A0004FDB914261DC99425DDCA14255DCA942CF
:1034B0004FDC5BE03229A6DB64293ADB96293CDB52
:1034C000B4293EDBFA2940DB91424EDC99424ADCCA
:1034D000A14242DC4AE0322995DB642929DB9629A6
:1034E0002BDBB4292DDBFA292FDBA14231DB914202
:1034F0003BDC994237DC39E008E018E035E032E0A7
:103500002BE026E021E01CE017E012E032298EDB00
:1035100064290EDB962910DBB42912DBFA2914DBAF
:10352000A14216DB994218DB91421EDC1EE06429A1
:1035300001DA01201AE0962901DA022016E0B42906
:1035400001DA032012E0FA2901DA04200EE0A14298
:1035500001DA05200AE0994201DA062006E0FF20A0
:10356000C330814201DA072000E008208049C87694
:1035700030BD014600B5FF220020F5320B0004F0FB
:1035800037FB0906090C0F121214141408004B2003
:10359000000100BD1920400100BDAF20800000BD2A
:1035A0004B20C00000BD104600BD142000BD38B542
:1035B000044603F065FC0090684600220121007873
:1035C000022C06D801280ED06846C17041700170E7
:1035D00005E0002807D06846C17042700270827012
:1035E000009803F063FC38BDF8B5614A6032127888
:1035F000002A20D15F4CFF23227801277D3302254A
:10360000002A05D00026012A16D0022A1DD010E07B
:103610000246FF266F3A0E36B24205D8677011E0B7
:10362000032004E0012002E0984207DC002002F0C1
:10363000C1FD60782070F8BD984201DD6570EFE74C
:10364000322804DB0029EDD1EAE7322801DA66707E
:10365000ECE7FF221E329042E2DADFE770B5054662
:10366000FFF717FA434CA178884204D00020E0709D
:10367000FFF70FFAA070FFF70CFAA178884202D189
:10368000E078022803D2E1782069491C02E028464C
:1036900002212561E17070BDF3B581B0064602F0EC
:1036A0004EFE334A05B240321078314C800000198A
:1036B000066210780021401CC3B2137008468600D1
:1036C0003619366A401C71180828F8DBCE10082B12
:1036D00001D30020107002F03DFE07460A2104F0DD
:1036E000EDF8C119B14202DAA17F002915D0381ACC
:1036F000B04211DDA07F01280ED1FFF724FE00B2F9
:1037000003F0FCFA0020FFF716FE03F0E2FC0020B5
:10371000A0770120FFF7BAF9FEBD02982D1AFFF736
:1037200012FE401BFF38F53800B203F0E7FA012023
:10373000FFF701FE03F0CDFC0120A0770020E9E7B0
:103740000B484030007F7047F7B5094D0024287FB3
:103750008AB00F46782801D2401C28770020FEF757
:103760002FFB06460120FEF72BFB05E0B80B0000FF
:10377000240E0020C00C002001900220FEF720FB48
:1037800002900320FEF71CFB00900F20FEF7C2FA08
:10379000FEF78BF8002803D10A2001900020029048
:1037A000019806900298059607900098089005A841
:1037B000FFF7B2FC0198FFF751FF0690019003F06C
:1037C0009CFC012803D102990198FFF765FFFEF7E1
:1037D00096FFFE49FD4D49684035411AFC4881423B
:1037E00003D8FC48007900280CD0FEF788FFF74981
:1037F0004968411AF648814275D9F648007900288F
:1038000052D06DE0F14C207F082833D027D9F24800
:10381000864202DD207C022805D0F04886421EDD6B
:10382000207C02281BD0207B032818D00120FEF723
:1038300033F80220FEF775FF012003F0FCFAFEF7D3
:103840005EFFA06501202877E24D687103F061FCFE
:103850000820FEF766FF01202871207F6077DF488F
:10386000801B00B2C117C90E081844117F2C15DD4A
:103870007F2404E12068B04201DD01200CE07D20BE
:103880004001864201DD022006E0D148D449C04310
:1038900030188842F1D900202074E0E77F20C0432F
:1038A0008442E6DA0446EAE00120FDF7F5FF022053
:1038B000FEF737FF012003F0BEFAFEF720FFC349F1
:1038C00088650120C3492877487103F022FC08204D
:1038D000FEF727FFBF4901200871BC48017F4177EF
:1038E000BC4901208871BB480199007AFFF76CFD43
:1038F000B8490872FFF71CFD012814D0B548007ABA
:10390000FFF755FEB148017F407F401D8142AF481F
:103910000FD9017B06290FD0062101730121C17344
:103920007921417708E00198C828EBDDFFF7F8FC22
:10393000E8E7007B06287CD1022002F004FFFEF7B6
:10394000DEFEA249896D401AFF212D31884201D93E
:1039500000202877FFF7ECFC002803D10121019813
:10396000FFF742FE02F0EBFC04B29A48007AFFF740
:1039700000FE029002F004FF0090FFF7D9FC01283E
:1039800002D1FF20F5300090687B64282CD191484B
:1039900041899448814204D3844202DAA87B0028FA
:1039A00003D0A87B012802D007E00120A8738E482D
:1039B000844202DCE87B002803D0E87B012802D0A7
:1039C00012E00120E8738148006D00280CD0FEF75A
:1039D00096FE7E490A6D801A7D22D200904203D362
:1039E0000020E8730865A8737A4844817F488442C0
:1039F00006DB282002900098642801DA002000905D
:103A0000E87B012801D0029802E07D2000010290AD
:103A100021180098081884B2204602F0BEFE0198D2
:103A2000322807DAA01B00B2C117490E0818C411CA
:103A300006E00EE0A01B00B2C117C90E0818441121
:103A4000322C01DD322404E03120C043844200DA0C
:103A500004466048007A06280BD8A01E302801D8FA
:103A6000641E06E020463230312801D2641C00E09A
:103A700000245F48864202DD002C00DD002453480C
:103A8000007B062802D053490620C871514E0B21F5
:103A9000F07903F013FF0A2915D00A98007851280D
:103AA00009D00420FFF793FB01280ED00220FFF776
:103AB0008EFB01280DD00325464AD079411CD171D7
:103AC0000B280CD00EE00425F6E705250021042084
:103AD00002E0022500212846FFF781FBECE73D4983
:103AE0000020C871FFF78DFB8021012800D13960CB
:103AF000364837266430C07E00280AD135484279DE
:103B0000012A08D08079002803D0052C01DA601D35
:103B100006DC3E6005E0392139600021417100E09A
:103B20003960FFF705FC012800D13E600C990020A8
:103B300008600A98807E022802D10A9901208876BE
:103B40000A980078282804D0032806D0282804D012
:103B50000AE00A9840780C2803D01C48007B032810
:103B600002D10120FDF7A0FF0A98032101700A98F5
:103B7000447028460DB0F0BDF7B504468AB0002069
:103B8000FEF71EF906900120FEF71AF905460220FD
:103B9000FEF716F906460320FEF712F907460F2036
:103BA000FEF7B8F8FDF781FE002801D10A250026AE
:103BB000069802A9E1C102A8FFF7AEFA0348294618
:103BC000C07EFFF701FC01AA694613E0240E002025
:103BD000B80B0000C00C0020701700006419000032
:103BE000E7030000282300007C15000010270000D8
:103BF000204E0000284602F015FD02F074FA0990EC
:103C000068460078089003F080FF06466846007911
:103C1000079003F07AFF07460521C943304603F0B9
:103C20005DFF7F21C90503F085FE0646FE49384643
:103C300003F0D9FEFD4903F07DFE0746099803F025
:103C400064FF0990284603F055FFF94903F008FF87
:103C50000546069803F04EFFF54903F001FF314693
:103C600003F0C1FE294603F0BEFE394603F062FEB2
:103C7000099903F0B8FEEF4903F0F2FE3F2109066F
:103C800003F058FE03F048FF00B2FF2801DDFF20DB
:103C900002E0002800DA00200899FF2903D10799E3
:103CA000FF2900D1FF200421217060700B987D2135
:103CB00001600C9800210160DF490120C8600320E9
:103CC00058E770B50446052015460E46207002F0F0
:103CD00069FBDA4960704873C820306000202860B2
:103CE000032070BD062303706423437032200860F4
:103CF000002010605120704707230370AA234370EF
:103D000000200B60106018467047092303700023E1
:103D10004370AA2008601360704710B52023037019
:103D200043780024002B0CD0012B0CD0022B0DD09B
:103D3000032B0DD04470AA2383700B6018461460C7
:103D400010BD012300E002234370F4E70323FBE7E7
:103D50000423F9E722230370AA2343708370002011
:103D60000B6010601846704718230370FF234370E0
:103D7000B24B403B187B012801D0042804D1987B2A
:103D8000012805D002201873D87B022802D003E056
:103D90000520F8E70120D873462303200B6000219B
:103DA00011607047F7B584B004460F46684602F0CC
:103DB0006CFB012803D901210846FFF710FA684679
:103DC0000078207068464078607068468078A070FF
:103DD0006846C078E070684600792071684640798E
:103DE00060710320029046203860944D6078002670
:103DF000403D0A283BD005DC401F030003F0F8FEDD
:103E000002371C370B2832D00C2804D00D282ED0B6
:103E100018282CD129E0287B022801D0062808D1B7
:103E20006E76AE762E76032028730120A873287F45
:103E30006877802038601AE0FEF761FC6865A0783A
:103E4000052804D02C2802D10120FFF7DDF97B489A
:103E5000C07B01280BD1A078052808D1286D002847
:103E600005D1FEF74CFC286501E003F052F90698F5
:103E70000660029807B0F0BD31230370AA23837057
:103E8000C37046200860002010603120704710B5D4
:103E9000512303700A23437000238370C37083246B
:103EA000047143714620086001201360FDF70AFE8B
:103EB000012003F0DAF90520FEF7C7FF032010BD4B
:103EC00054230370AA2343708370C370037143713A
:103ED0004620086000201060184670475523037084
:103EE000AA2343708370C370037143714620086036
:103EF000002010601846704770B515460E460446FF
:103F0000FFF789F971212170122161700021A170E0
:103F10004222E27064222271020C6271020AA271D2
:103F2000E07121726172A172601D02F063FC207960
:103F3000000601D5812000E0512041213160072198
:103F4000296070BD81230370002343708370C370A8
:103F5000037143718371C3710372432008600620AB
:103F600013607047F0B535490025403987B00D73AF
:103F7000CD734D738D738D764D760D770D760D74F3
:103F80004D772E4CCD76A573E5730D6565738D77F2
:103F90002570002082005218401C40B2156208288B
:103FA000F8DB4D658D65257765772448A577E5773E
:103FB000203005700120FFF7BEF903F08AF80120D8
:103FC00003F074F8012003F08EF81C4A6432557136
:103FD0001146A5702039E57025710D7108462573CD
:103FE000203805624D718D71857645778577C57668
:103FF00095710020FFF708F9114F01240826384673
:10400000FDF775FC3846FDF784FC0E492003086077
:10401000002003F0D0F8402002F005FF402002F01D
:10402000F1FE012110200FE08FC2753C3333F3BF46
:1040300000007A440000A040C00C0020640E002064
:104040000F00200000E100E002F0CEF8012108207E
:1040500002F0CAF80121042002F0C6F80121C803C9
:1040600002F0C2F80021402002F0BEF80121C8028F
:1040700002F0BAF80121084602F0B6F80121480220
:1040800002F0B2F80121080202F0AEF8FDF75BFD84
:10409000C008C000A104401C0843059005A8FDF716
:1040A0004EFDA020694608704C7006208870CE70C6
:1040B0000E714C71CC71502008726846FDF741FCBE
:1040C0000320694608731F2048738C73CC7303A8C0
:1040D000FDF7C2FC0021012002F0A3FD042002F044
:1040E0005FF802F02AFA1920800102F03AF9012063
:1040F00002F0D2FDC02002F0EAFD012002F05AF8E1
:104100000321072002F05FF80020FDF785FB02F095
:1041100016F902F042FB002002F061FB012002F0E0
:1041200053FB022002F00FFB0020FEF7AFFC02F071
:104130005FFF6946CC74022048740C748D74049837
:1041400002F0B4FE01F0D2FF802001F0C9FF03208D
:1041500003F06CF80120FEF772F9F748416B1F225B
:10416000120291430D22520289184163F348C16B38
:10417000032212021143C1630020FFF7C5F879E65C
:10418000F8B5EF4F0546387B3C46843400260300E3
:1041900003F02EFD0604B4B43DB4A8B40220FEF72B
:1041A000C0FA0120FDF7C4FBE548017E491C0176F9
:1041B000FEF7A5FA07460AE0FEF7A1FAC01B502851
:1041C00005D3207D002807D0E07C012810D0FEF721
:1041D00096FAC01BC828EFD9D948017E032903D31A
:1041E00001210173067618250020FDF7A1FB89E067
:1041F000207A0228F0D1607A012804D00028EBD17F
:10420000CF484673E8E7CE4801214173E9E7022031
:10421000FEF787FA0120FDF78BFBC948017E491C98
:104220000176FDF7D5FBFEF76AFA07460AE0FEF7CE
:1042300066FAC01BA02805D3207D002807D0E07CAB
:1042400001281CD0FEF75BFAC01BC828EFD9BC4977
:10425000087E03280AD3487B01283FD000283DD0A0
:104260008E73062008730120C8730E760020FDF7B8
:104270005FFB1F20FDF718FCFDF7AAFB45E0207D42
:104280000321022809D3207A022804D1607A012868
:104290000CD0002811D0AA480173A948427E022AF6
:1042A00011D3042101730121417312E0A4480122BA
:1042B0004273427E521C4276EFE7A1484673827EEB
:1042C000521C8276E9E7827E022A05D3042101731B
:1042D000467306761825C9E70173B8E7042008730A
:1042E0001825C2E7797B0022022002F04FFEBE7340
:1042F000062038730120F873032506E0FDF7DDFB87
:104300001F2802D01F20FDF7CFFB2846F8BDF8B5C7
:1043100007468B48C07B012808D0FDF7CEFB1F283D
:1043200002D01F20FDF7C0FB3846F8BD844C0020AA
:1043300084342646207220367071E074A075607255
:10434000A072FDF745FB0220FEF7EBF901214D05B8
:104350002846FDF7CFFA01212846FDF7DDFA0120B6
:10436000FDF7E6FAFEF7CBF9054634E0FEF7C7F9AC
:10437000401B062802D37079002831D0207D002808
:1043800016D0032804D9FEF7BAF9401B642827D3B6
:10439000207D022804D1FEF7B2F9401B46281FD920
:1043A000FEF7ADF9401B23281AD9A07DC00717D10D
:1043B000FEF7A5F9401B40280DD3207D00280FD023
:1043C000207A00280CD0FEF79AF9401BC8280BD0A1
:1043D000E07C01280AD0FEF792F9401BC828C5D915
:1043E0000020FDF7A5FA9CE70120E074207A002860
:1043F000F6D0617D0329F3D8617AA27A0B46434057
:104400009A4202D1A37D9B0705D50128E8D1142942
:1044100001D03129E4D14A4B022458749974DA74DA
:10442000DC73182702F0B2FDDAE770B5444C0025C2
:104430004034E07F00281BD0FDF71CFA4149884238
:1044400016D3A07F401CC0B2A07705280FD9607F8B
:1044500000280CD10220FEF769FE3B4940183B4979
:10446000884204D20620FEF7F0FC0120607770BD80
:10447000A57770BD32494031C87770473048403029
:10448000C07F70472E496031087070472C486030FB
:10449000007870478CB00025FFF764FDFEF72FF918
:1044A00027494860FEF72BF90446FEF728F9001B60
:1044B000022805D8FF200130FDF716FB0128F4D1B2
:1044C00002F057FB012802D00920FEF72AF91C4E02
:1044D00001244036304644300690FEF710F9184F5C
:1044E000002064371A4AF97E002C04D0002D02D136
:1044F000002900D07470C300D35CA34209D1C0006E
:10450000801843680E480AAA02A9643098470446F6
:1045100003E0401C80B22028E6D33878202801D25E
:10452000012128E0802815D201462039CA17120F30
:1045300051180911891C1EE0004000F0401000F0E5
:10454000240E0020FF0F00002FF8FFFF8B0A000051
:10455000287C0000E02807D201468039CA17520F94
:104560005118C910083106E00146E039CA17920F08
:10457000511889101431C9B279758C46FE49B96455
:10458000B875002007E0B96CBA7D0B78491C5A4019
:10459000BA75401CB9648445F5DCF748801CC71E19
:1045A000B8640020F875387638462830F8640699E3
:1045B0000020C8740875FDF7BEFA05903878694682
:1045C000087578784875B8788875B87DC87505A875
:1045D000FDF7ADFA052001214002FDF78BF905201A
:1045E00001214002FDF798F902F04AFC0090019089
:1045F00001206946C8700520487000200870887046
:10460000009802F053FCFFF710FFFDF79CFA1F2102
:1046100049028843797DC906890C0843FF2101318D
:104620000843099009A8FDF78AFAFEF768F80746DB
:10463000FEF765F8C01BC82804D8CF48401E007E8E
:104640000128F5D1FFF7F1FEFEF759F8089001981F
:1046500002F02CFC052000214002FDF74BF905205B
:1046600000214002FDF758F9C3480021401E0176A1
:104670000078262822D00EDC16281FD006DC03285E
:1046800016D004281AD0152827D117E0172815D0DE
:10469000252822D112E0372810D004DC27280DD09D
:1046A00036281AD10AE0462808D0472815D105E057
:1046B0002046FFF765FDFFF72AFE0446AE48401E80
:1046C000C07E002809D0032C01D0042C05D1AA48B3
:1046D0002146401E02F083FF0025A748401E0078B7
:1046E000032801D0042811D10798142801DA0820E2
:1046F00004E0962801DA042000E000200090FDF795
:10470000FEFF0899411A00988142F8D9FEF71BFE76
:1047100002B204990398401A0799FEF7D6F9FDF7FB
:10472000EEFFC11B0298401F814204D9FDF7E7FF4D
:10473000C01B401D02900A98FDF7F3FFFFF775FEBE
:10474000002000900D20FDF7AFF958E00120FEF7A2
:104750003EFD0220FEF73BFD012801D137200290EB
:10476000102001F067FD002801D102F024FD032C88
:1047700001D0042C43D1FDF7C2FF0899401A192833
:104780003DD9FDF7BCFFC11B0298001F814205D82F
:1047900001210802FDF7AEF80D202EE0FDF7AFFF76
:1047A000C11B0298801E814229D8009800281FD181
:1047B0000220FDF779F90020FDF702FB03900220AB
:1047C000FDF7FEFA04906C486538807F01280DD013
:1047D0000020FEF7B0FD00900120FEF7ACFD014681
:1047E000049A0398801A009AFEF756F90120009067
:1047F00001210802FDF77EF80220FDF7A3FAFDF77C
:104800007EFF0299C01B8842A0D90F20FDF74CF90A
:10481000032C01D0042C17D157496539887F012812
:1048200012D0487F00280FD00A7FC01C824202D8D5
:10483000087B062808D10120FDF7C2FA0790FEF791
:1048400082FD00B202F05AFAFFF7EFFD0120FEF7F9
:10485000BEFC01280AD1182C08D04748401E007819
:10486000282803D028240021012007E00220FEF799
:10487000AEFC012804D1022400212046FEF7AFFC43
:104880003D4F7F1EF97E00291AD0032C02D0002D47
:104890000FD015E0002D01D02C460025B87E012850
:1048A0000ED10020B87606988079002808D00446FA
:1048B00006E006988079002802D0A04200D0054684
:1048C0002E48C268012A0AD10022C260002900D104
:1048D000002529482146401E02F0D5FF0446B07845
:1048E00077280BD0782800D0F7E50020B070F87654
:1048F00002F0C8FC0720FEF7A8FAEEE51B20B07016
:10490000F8E738B50446FDF716F900901C49E007B2
:1049100001D001200876A0070FD5C87D6B46401C4A
:10492000C875C007886C027801D05A7000E09A7090
:10493000401C88641846FDF7FAF838BDF0B585B01C
:10494000044602A8FDF7D8F80298009003990A4897
:104950000191A10201273F30002900DA4771064981
:1049600062071F31002A46DA6A461379044D002B8C
:1049700010D01D2B32D005E0890E0020C00C002085
:10498000880E00204A7D0E7D521C96426A4628D130
:10499000127827E0EE6C92783270EE6C761CEE6442
:1049A000202A01D2012217E0802A06D2203AD51708
:1049B0002D0FAA181211921C0EE0E02A06D2803A9E
:1049C000D5176D0FAA18D210083205E0E03AD517B6
:1049D000AD0FAA18921014324A7508E092784A7402
:1049E00005E05278EE6C3270EA6C521CEA64037196
:1049F000087D401C0875200707D56846C078002848
:104A000005D000228A748875CF7405B0F0BD0122EC
:104A1000F8E7000070B50646FF480D460721036819
:104A200049068B43012109060B4314460360FDF739
:104A300086F8002030742060F8482860022070BD9D
:104A400070B5F54B0D4606460721186849068843A0
:104A5000032149064018186014461846FDF76FF800
:104A60000020307420607D2000012860042070BD8B
:104A7000FF23EB4A7D33002808D0012812D0FF2302
:104A80001E33022817D05F290EDB1BE0914201DDA7
:104A900003207047994201DD02207047BE29FCDDEA
:104AA000012070475F2901DA002070479142EFDC56
:104AB0009942F1DC70475F29F6DB9942F0DB9142C5
:104AC000E6DC70479942EBDBFF20C3308142E3DB39
:104AD000DEE7F8B50027012604460D46002804D07D
:104AE000012C08D0022C17D01FE0BE2D01DD0124BF
:104AF00024E0002017E0FF207D30854201DD022404
:104B000010E05F2904DA0024204601F053FB0EE098
:104B1000032001F04FFB11E0FF201E30854201DA37
:104B2000012402E0032001F045FB5F2D06DA69460F
:104B3000CE708F70032048700E7005E06946CE700D
:104B40008F70032048700F70009802F0AFF9204674
:104B5000F8BDF7B5B04E86B0083EB0790D460028D6
:104B60000AD1012002F081FB0120FCF795FE012013
:104B700002F061F90120B0710020FCF7E7FF044664
:104B80000220FCF7E3FF05900020FEF7D4FB049021
:104B90000120FEF7D0FB01460598049A201A07462B
:104BA000FDF77AFF0120FCF7D1FF0490FEF7CBFB65
:104BB00002B238460499FDF788FF049800940190EA
:104BC000059802906846FEF7A7FAFDF798FD31694F
:104BD000411A7D200001814203D29248201804B27C
:104BE0002DE030780499FFF743FF3070002837D06C
:104BF000012838D0022839D0282770780499FFF787
:104C000068FF70700021012002F00BF8042001F011
:104C1000C7FA8148072201685205914305225205CF
:104C20008918016001F0ACFD049001F088FBC11906
:104C300004980818211A0CB280B201F0AEFD20468B
:104C40003B30772800D2002420464A3000279528A0
:104C50000ED2B07805280BD2401CB070002408E0BA
:104C60004B273F01C9E7AF27BF00C6E78027C4E74E
:104C7000B770F2787D230721DB0049061E2A02D295
:104C80003079322802D30120707132E0002C15DA1D
:104C90006548844201DC2B6009E0614863302018DC
:104CA000F92802D8FF20F53000E0FA202860521CD5
:104CB0005948F27002688A4302602AE0002C18DD2D
:104CC000574A6432944202DB7D22920108E0FF3CA5
:104CD000F53CFA2C02D27D22520101E07D22120124
:104CE000401C2A6030714C4802688A430121490601
:104CF0000DE02B60F77037717079012802D14B48B5
:104D000028607771444802688A4303214906511894
:104D100001604148FCF713FF0220FEF758FA002813
:104D200001D0052500E00325414CA7710121202079
:104D3000FCF7E0FD01212020FCF7EEFDA079002822
:104D4000FCD00898076006980774284609B0F0BDA3
:104D500000230370AA23437010238370B423C3700D
:104D6000992303714C23437128238371FF23C3715B
:104D7000DD23037244234372F32383720B230374F2
:104D800014201060254808600320704770B506465F
:104D9000214814460D46072201685206914303221A
:104DA000920689180160FCF7CAFE00233374236061
:104DB00005202B6070BDF0B51921490185B0481060
:104DC000FCF778FD0520FCF782FD0020FCF788FD4C
:104DD000902480252046FCF78AFD2046FCF799FDAB
:104DE00001241449200308602146402001F0FCF909
:104DF000FDF79EFCFCF7A7FE0749E204083988602E
:104E0000C0080831C000801C10430722520510431F
:104E10000860084610E00000DC0C0020307500003F
:104E20008A020000D8DCFFFF12FDFFFF50C3000024
:104E3000F80E002000E100E0FCF781FE0327684641
:104E400007731F2141738473C47303A8FCF704FE26
:104E50000021012001F0E5FE042001F0A1F9042069
:104E600001F0F9FF012002F03EF9002668460096A5
:104E7000067145718571C57101F02CFC012001F0AE
:104E80000BFF0020FDF702FE002001F093F9032143
:104E9000072001F098F90020FCF7BEFC6846C472B8
:104EA000867247720472029802F000F801F047FA25
:104EB00001F073FC05B0F0BD1CB5FCF744FE4B4C93
:104EC000A060FCF738FEE060FFF775FFFDF717FC08
:104ED0000125474E2061FDF748FC04464548002166
:104EE000CA00825CAA4208D1C9000818436801AA16
:104EF00069463F489847054603E0491C89B20529A1
:104F0000EED3307C00282CD03948801CB0620020C1
:104F10007074B074317835480C304170717881709C
:104F2000FCF705FE307C314A0107083210680001A9
:104F300000090843072149068843012189064018D2
:104F400010601046FCF7FBFDFDF7D9FB0746FDF7A7
:104F5000D6FBC01BC82802D8B07C0128F7D100209E
:104F6000B0740198FDF7DDFBFDF7FFFB071B009810
:104F7000FDF7FEFB8742F7D91C480722083001687D
:104F8000520691430322520689180160FCF7D7FDAF
:104F9000A1E770B50446C1060120154D002900DACD
:104FA000A874A1060AD51249203188710021202059
:104FB000FCF7B2FC01212020FCF79CFC200613D555
:104FC000687C401C6874687C0B49C007A86A04D0E0
:104FD000421CAA620078487003E0421CAA62007872
:104FE00088700548FCF7A3FD70BD0000D40C0020BC
:104FF000D80E0020287D0000E00C002030B5FE4ACD
:10500000002351780224142902D3537093702FE0A7
:10501000F94DED1C48555078401CC1B25170012922
:105020001DD1D078202801D2032017E0802806D295
:105030002038C5172D0F28180011001D0EE0E0289C
:1050400006D28038C5176D0F2818C0100A3005E049
:10505000E038C517AD0F2818801016309070107802
:10506000002807D0012804D19078814201D15370E3
:10507000147030BD0120107030BDDF4800787047DB
:10508000DD4880787047DC48C0787047DA48C01C3B
:10509000704770B50446FDF732FBD749883948663A
:1050A000D548617868380175FDF7B8FBD24C00250A
:1050B000283C607E022813D00020FDF7A3F820468C
:1050C000203805766572FEF717F9012800D02572A1
:1050D000C948A572E57208380570A575022070BD33
:1050E00065750120A075002070BDC3480838C078E0
:1050F0007047C14910B508390871FDF700FBBE497A
:105100008839086310BDF8B50446FDF7F8FABA4FC0
:10511000883FF8653E4660782036707501F04DF99D
:10512000386D002809D131464031087A401CC0B2A0
:105130000872052801D801F0DBFBAF4D083D287847
:1051400001280FD0707DA2786178062827D0022030
:1051500001F01CFF707D01281FD002281DD00328FC
:105160001BD00DE0A2786178022001F00FFF707D66
:10517000012812D0022810D003280ED006280CD007
:105180000220E870FDF7BBFAF862FDF7B8FA386361
:10519000FDF7B5FA38670020F8BD0320F1E70220DB
:1051A00001F011FF0320F8BD93488838006DC0B2AC
:1051B0007047F0B5904D0646683D162085B02856DC
:1051C0000290FDF79CFA2F46203FB861FDF797FA51
:1051D000F865FDF794FAB8622C46002060346070E0
:1051E000386D0A2801D2401C38657078A87501F026
:1051F00052FC064601F053FC0122314601F01BFF30
:105200007D4E283E707E032803D100207076032057
:10521000A071FEF771F8012802D00520FDF715FEF8
:10522000386D012805D00120FDF7D1FF01280ED0EF
:105230001EE0307A002807D00020207003A801F07B
:105240004DFB032103A811E00120207012E0002192
:105250000120FDF7C4FF684601F0B8F869460878F8
:10526000497848406946887003216846FDF741F94E
:10527000FDF751F90298002805D1162028560A2872
:1052800007D00A3005D01620285600F083FE0128EA
:1052900002D0032005B0F0BD0020FBE7F8B50746BB
:1052A000554808380078002846D101F05AFC524D84
:1052B0000126883D2C466034B8421EDC607F012800
:1052C0000FD06677FDF71BFA2862A07F002810D068
:1052D000FDF715FA696A411A4848814224D8A67731
:1052E0002AE0FDF70CFA296A401A454988421BD882
:1052F000EBE7FDF704FA6862F1E701F036FC0146DE
:1053000038460027814215DCA07F012805D0A6770A
:10531000FDF7F5F9686267770EE0FDF7F0F9696A65
:10532000411A36488142F6D9E6760420FDF78DFD14
:105330000120F8BD6777A7770020F8BDF0B58BB0E6
:1053400005460026FDF7DBF92B4C883CE0616878C8
:1053500025462035E875FDF7D2F9E0650120603477
:10536000E0720520FDF7DDF9FDF7C9F9074602E017
:105370000F20FCF7E7FCFDF7C2F9C01B0228F7D3AA
:105380000120FCF71DFD06900020FCF719FD0A9096
:105390000220FCF715FD07460320FCF711FD0990DC
:1053A0000F20FCF7B7FC0A98029006980497039028
:1053B0000998059002A8FDF7AFFE0698FFF76EFF6B
:1053C00001283ED0E87DE97E48437D21C90048435D
:1053D000050A0699384648437D21C90002F084FA3F
:1053E000069080B201F04EFAA8B201F0CEFB01ABFC
:1053F00008AA07A9684605E0900F0020C0D4010064
:10540000B80B000001F0C8FB6846007802F07DFB95
:105410000A906846808B02F078FB0990069802F0AB
:1054200069FB099902F0D7FA0A9902F0DCFAFE4901
:1054300002F016FB02F070FBFC490978012903D049
:1054400008E000200BB0F0BDF9498F4202DD06995B
:10545000081A461B684600797F2811D06846008CE0
:1054600086420BDDE07F401CC0B2E077032807D303
:105470000120E0760420FDF7E8FCE2E70020E07779
:105480000320DFE710B5E949427860390A7682786F
:105490004178052001F07AFD032010BD10B5E349E5
:1054A000407860394876052801D3CD2801D90020FD
:1054B00010BD00F053FD022010BD10B50446FDF7ED
:1054C0001EF9DA498039C8654031087E401C0876EB
:1054D000D6480021203801726078FF2802D10020D0
:1054E000FCF7F9FF61780022182001F04FFD03203E
:1054F00010BD30B585B00446FDF701F9CB4D803DB8
:10550000E865A2786178282001F040FD607829469E
:10551000603101280AD00022022318281AD0192845
:1055200027D00E2842D00C2828D03FE0A0780028B1
:105530003CD1487A401CC0B24872022802D90320EC
:10554000487233E004A801F0C9F9032104A8FCF76C
:10555000D0FF2BE0A078012828D14B76C8750A76B9
:10556000FDF7CDF828670020FDF76FFC002005B09F
:1055700030BDA078FF2819D10A7717E0A07800285D
:1055800014D169460B724A7202A800F0ABFF68465C
:1055900000F01CFF694608784978484069468870E1
:1055A00003216846FCF7A5FFFCF7B5FF0320DEE703
:1055B00010B541788A099D4960398A764278920609
:1055C000920ECA768278D2090A7782785207520FF1
:1055D0004A770279D2088A7700794007400FC87766
:1055E00008464030407E002807D190488179012943
:1055F00001D0002010BD032181710520FDF725FC9D
:10560000032010BD10B541780A09884940390A7055
:1056100042781207120F4A70827812024A80C378C9
:10562000D2184A800179814A0906803A5164437947
:105630001B04C918516483791B02C9185164C379CA
:10564000C918516401F069FA78480122817911433F
:105650008171022010BD70B5417800220B0673499C
:105660008039CB648A648478250494186B418C64F7
:10567000CB64C5782D02A4186B418C64CB6405798A
:10568000A4186B418C64CB644679350A3606A4199C
:105690006B418C64CB648679350C3604A4196B415C
:1056A0008C64CB64C679350E3602A4196B418C64C8
:1056B000CB64007A20185341CB648864022070BD0B
:1056C00010B55C4C204600F011FE0022502120460F
:1056D00001F0F8F95748323801F024F9282001F098
:1056E00029F954481E3801F00DF9534801F012F918
:1056F00001F062FA4B21E120C900800001F025FA97
:105700007221012001F0D0F80021084601F07AF959
:105710000021084601F088F90021084601F096F9B9
:10572000552001F0C1F90021084601F07AFA10BDB8
:105730003E4910B520398876012801D1FDF785FB57
:1057400010BDFEB53948002580380570203004466C
:105750004575403465766575E5752576032069469F
:1057600008700F20487001208870C8706846FCF7E8
:1057700073F9012001F090FA0020FDF787F901206C
:1057800001F094FC012001F088FC2C49C86B032235
:1057900012029043C863C86B012292021043C8638F
:1057A000CA6B0120C0028243CA63C86B012636035C
:1057B000B043C863CA6B70008243CA63C86BB2004F
:1057C0009043C863CA6BF0008243CA6301F058FB80
:1057D00069460290CD72029801F068FB69460D712E
:1057E0000220487101A801F0F9FA104F00203D7025
:1057F000FCF712F8002001F00EFC01F038F90290DD
:1058000001F03AF90122029901F015FC0220FCF79F
:1058100020FE0F2001F0BAFC0121C80300F0E4FCD7
:10582000012102200CE000000000C842880F002087
:1058300070170000DC0500006A040000005100F051
:1058400000F0D2FC0121304600F0CEFC0121C8025C
:1058500000F0CAFC0121480300F0C6FCFCF718FE6A
:10586000002001F019FA0120FCF7DCFD0122797912
:105870001046FCF7D8FC0120FCF7C4FC0020FFF721
:1058800057FF2577FCF70CFFFCF717FF6577A57727
:10589000E576FD703D717D20FD71C000FCF7E3FFF2
:1058A000FCF7EEFF6420FCF73CFFFEBDF748807E6E
:1058B0007047F0B587B0FDF71FFDF44E603E3546EA
:1058C00034468035603401280FD1607E02280CD028
:1058D000032815D00020607620760620FDF7B5FA63
:1058E0000120E871FCF70BFF30670020FCF7DCFCBF
:1058F000FCF7D6FEFCF7E1FEFCF701FF07460CE0E3
:10590000207E401CC0B220760428EED100206076B4
:105910002076EAE70F20FCF715FAFCF7F0FEC01B33
:105920000228F7D30120FCF74BFA06900020FCF781
:1059300047FA07460220FCF743FA05900320FCF7DC
:105940003FFA04900F20FCF7E5F9069800970190C4
:1059500005980290049803906846FDF7DDFB00F07F
:10596000E2FA01F042F9FCF711FBFBF751FF0020CE
:1059700000F0D0FA0120B07000277770C348376577
:10598000E777283047700770AF710F20FCF7C2F936
:10599000607E02281CD001F06AF8049001F06CF8D7
:1059A0000122049901F047FBFCF76AFF002001F097
:1059B00073F9E8797D21C900012842D0E8780128EF
:1059C00048D8FCF79CFE316F401AFA28F9D34CE016
:1059D000607D401C607501F054F8054601F056F8F2
:1059E0000122294601F027FB607D022805D903200A
:1059F000607667750020FDF728FAE07D01280FD05A
:105A0000A07D002813D0FCF77AFE316F451A01F013
:105A100054F8400037308542F5D3A775E77524E088
:105A2000FCF76DFE316F401A7D28F9D3F5E7FCF7DE
:105A300066FE316F451A01F040F840008542F6D30A
:105A4000EBE7EF710D46FCF75AFE316F401AA842A2
:105A5000F9D30AE02878012810D07D252D01FCF724
:105A60004EFE316F401AA842F9D36777A777FCF74B
:105A700046FE3067A07E002808D00DE00D46FCF7FA
:105A80003EFE316F401AA842F9D3EEE7E07E0028CF
:105A900002D10120FCF708FCFCF731FE7060012008
:105AA00007B0F0BDF8B5794D7848603D60382F46B5
:105AB0002C4640782037002680346035012868D095
:105AC000FCF71DFE294660394968401A502806D95E
:105AD000687E022803D028466038467094E06B4800
:105AE0002830007800280AD0FCF709FE674C603C9B
:105AF000E060FCF704FEA060012060708BE0687E2F
:105B0000022802D1A87D012823D0FCF7F8FD5F49C7
:105B100060394968401A642802D9687E02281BD07F
:105B2000E078002877D0012801D9801EE070FCF7CA
:105B3000E6FD564D603D296B411A5548814200D91A
:105B4000E670787D01280DD006280BD0022811D0F0
:105B500017E06E75AE7557E04C486038467002200D
:105B6000A87551E0FCF7CBFDE96A411A494806E007
:105B7000E67050E0FCF7C3FDE96A411A46488142ED
:105B8000F6D8E078002846D02079012843D1267144
:105B90003AE0687E022802D1A87D0128D9D0E078B9
:105BA000002828D0012801D9801EE070FCF7A7FD4D
:105BB000364D603D296B411A3548814200D9E67067
:105BC000787D012802D0022808D00EE0FCF797FD6E
:105BD000E96A411A2F4806E0E6700CE0FCF78FFDF9
:105BE000E96A411A2C488142F6D8E078002802D0B0
:105BF00020790128CBD0FCF782FD244C603CA168C1
:105C0000401A142802D966700020F8BD1F482830B9
:105C10000178022901D00120F8BD66700670C378B2
:105C200000251E4A2946CE00965D9E4206D1C90037
:105C300089184968C01C8847054603E0491C89B299
:105C40000B29F0D3FCF75BFD60612846F8BDF8B581
:105C50000E4E0E4C603E70782746002528370128EE
:105C60002ED0607E00281CD1B078012806D0FCF729
:105C700046FD7169401A642806D812E0FCF73FFD22
:105C8000F168401A96280BD9757055E0680F00200E
:105C9000FC08000010270000204E0000507D00008E
:105CA000B5703878002819D0FCF729FDB061FCF7F1
:105CB00026FDF061FCF723FD3061012070700DE0DE
:105CC000FCF71DFD3169401AC82803D9607E002801
:105CD000DAD003E039783846022901D00220F8BD35
:105CE000294671702F4635460170C4780026854AD2
:105CF0003146CB00D35CA34206D1C900891849685C
:105D0000C01C8847064603E0491C89B20B29F0D322
:105D10006F70012C07D0FCF7F2FC6861FCF7EFFC18
:105D2000E8653046F8BD0620FDF78FF8764901207A
